{"abi":[{"type":"constructor","inputs":[],"stateMutability":"nonpayable"},{"type":"function","name":"approve","inputs":[{"name":"to","type":"address","internalType":"address"},{"name":"tokenId","type":"uint256","internalType":"uint256"}],"outputs":[],"stateMutability":"nonpayable"},{"type":"function","name":"balanceOf","inputs":[{"name":"owner","type":"address","internalType":"address"}],"outputs":[{"name":"","type":"uint256","internalType":"uint256"}],"stateMutability":"view"},{"type":"function","name":"burnAll","inputs":[{"name":"owner","type":"address","internalType":"address"}],"outputs":[],"stateMutability":"nonpayable"},{"type":"function","name":"getApproved","inputs":[{"name":"tokenId","type":"uint256","internalType":"uint256"}],"outputs":[{"name":"","type":"address","internalType":"address"}],"stateMutability":"view"},{"type":"function","name":"isApprovedForAll","inputs":[{"name":"owner","type":"address","internalType":"address"},{"name":"operator","type":"address","internalType":"address"}],"outputs":[{"name":"","type":"bool","internalType":"bool"}],"stateMutability":"view"},{"type":"function","name":"mintCoolNFT","inputs":[{"name":"to","type":"address","internalType":"address"}],"outputs":[],"stateMutability":"nonpayable"},{"type":"function","name":"name","inputs":[],"outputs":[{"name":"","type":"string","internalType":"string"}],"stateMutability":"view"},{"type":"function","name":"nextTokenId","inputs":[],"outputs":[{"name":"","type":"uint256","internalType":"uint256"}],"stateMutability":"view"},{"type":"function","name":"ownerOf","inputs":[{"name":"tokenId","type":"uint256","internalType":"uint256"}],"outputs":[{"name":"","type":"address","internalType":"address"}],"stateMutability":"view"},{"type":"function","name":"safeTransferFrom","inputs":[{"name":"from","type":"address","internalType":"address"},{"name":"to","type":"address","internalType":"address"},{"name":"tokenId","type":"uint256","internalType":"uint256"}],"outputs":[],"stateMutability":"nonpayable"},{"type":"function","name":"safeTransferFrom","inputs":[{"name":"from","type":"address","internalType":"address"},{"name":"to","type":"address","internalType":"address"},{"name":"tokenId","type":"uint256","internalType":"uint256"},{"name":"data","type":"bytes","internalType":"bytes"}],"outputs":[],"stateMutability":"nonpayable"},{"type":"function","name":"setApprovalForAll","inputs":[{"name":"operator","type":"address","internalType":"address"},{"name":"approved","type":"bool","internalType":"bool"}],"outputs":[],"stateMutability":"nonpayable"},{"type":"function","name":"setDAO","inputs":[{"name":"daoAddr","type":"address","internalType":"address"}],"outputs":[],"stateMutability":"nonpayable"},{"type":"function","name":"supportsInterface","inputs":[{"name":"interfaceId","type":"bytes4","internalType":"bytes4"}],"outputs":[{"name":"","type":"bool","internalType":"bool"}],"stateMutability":"view"},{"type":"function","name":"symbol","inputs":[],"outputs":[{"name":"","type":"string","internalType":"string"}],"stateMutability":"view"},{"type":"function","name":"tokenIds","inputs":[{"name":"","type":"address","internalType":"address"},{"name":"","type":"uint256","internalType":"uint256"}],"outputs":[{"name":"","type":"uint256","internalType":"uint256"}],"stateMutability":"view"},{"type":"function","name":"tokenURI","inputs":[{"name":"tokenId","type":"uint256","internalType":"uint256"}],"outputs":[{"name":"","type":"string","internalType":"string"}],"stateMutability":"view"},{"type":"function","name":"transferFrom","inputs":[{"name":"from","type":"address","internalType":"address"},{"name":"to","type":"address","internalType":"address"},{"name":"tokenId","type":"uint256","internalType":"uint256"}],"outputs":[],"stateMutability":"nonpayable"},{"type":"event","name":"Approval","inputs":[{"name":"owner","type":"address","indexed":true,"internalType":"address"},{"name":"approved","type":"address","indexed":true,"internalType":"address"},{"name":"tokenId","type":"uint256","indexed":true,"internalType":"uint256"}],"anonymous":false},{"type":"event","name":"ApprovalForAll","inputs":[{"name":"owner","type":"address","indexed":true,"internalType":"address"},{"name":"operator","type":"address","indexed":true,"internalType":"address"},{"name":"approved","type":"bool","indexed":false,"internalType":"bool"}],"anonymous":false},{"type":"event","name":"CoolNFT_Minted","inputs":[{"name":"owner","type":"address","indexed":true,"internalType":"address"},{"name":"tokenId","type":"uint256","indexed":false,"internalType":"uint256"}],"anonymous":false},{"type":"event","name":"CoolNFTs_Slashed","inputs":[{"name":"owner","type":"address","indexed":true,"internalType":"address"}],"anonymous":false},{"type":"event","name":"Transfer","inputs":[{"name":"from","type":"address","indexed":true,"internalType":"address"},{"name":"to","type":"address","indexed":true,"internalType":"address"},{"name":"tokenId","type":"uint256","indexed":true,"internalType":"uint256"}],"anonymous":false},{"type":"error","name":"ERC721IncorrectOwner","inputs":[{"name":"sender","type":"address","internalType":"address"},{"name":"tokenId","type":"uint256","internalType":"uint256"},{"name":"owner","type":"address","internalType":"address"}]},{"type":"error","name":"ERC721InsufficientApproval","inputs":[{"name":"operator","type":"address","internalType":"address"},{"name":"tokenId","type":"uint256","internalType":"uint256"}]},{"type":"error","name":"ERC721InvalidApprover","inputs":[{"name":"approver","type":"address","internalType":"address"}]},{"type":"error","name":"ERC721InvalidOperator","inputs":[{"name":"operator","type":"address","internalType":"address"}]},{"type":"error","name":"ERC721InvalidOwner","inputs":[{"name":"owner","type":"address","internalType":"address"}]},{"type":"error","name":"ERC721InvalidReceiver","inputs":[{"name":"receiver","type":"address","internalType":"address"}]},{"type":"error","name":"ERC721InvalidSender","inputs":[{"name":"sender","type":"address","internalType":"address"}]},{"type":"error","name":"ERC721NonexistentToken","inputs":[{"name":"tokenId","type":"uint256","internalType":"uint256"}]}],"bytecode":{"object":"0x608060405234801561000f575f5ffd5b506040518060400160405280601381526020017f56756c6e657261626c6520436f6f6c204e4654000000000000000000000000008152506040518060400160405280600581526020017f76434e4654000000000000000000000000000000000000000000000000000000815250815f908161008a91906102df565b50806001908161009a91906102df565b5050506103ae565b5f81519050919050565b7f4e487b71000000000000000000000000000000000000000000000000000000005f52604160045260245ffd5b7f4e487b71000000000000000000000000000000000000000000000000000000005f52602260045260245ffd5b5f600282049050600182168061011d57607f821691505b6020821081036101305761012f6100d9565b5b50919050565b5f819050815f5260205f209050919050565b5f6020601f8301049050919050565b5f82821b905092915050565b5f600883026101927fffffffffffffffffffffffffffffffffffffffffffffffffffffffffffffffff82610157565b61019c8683610157565b95508019841693508086168417925050509392505050565b5f819050919050565b5f819050919050565b5f6101e06101db6101d6846101b4565b6101bd565b6101b4565b9050919050565b5f819050919050565b6101f9836101c6565b61020d610205826101e7565b848454610163565b825550505050565b5f5f905090565b610224610215565b61022f8184846101f0565b505050565b5b81811015610252576102475f8261021c565b600181019050610235565b5050565b601f8211156102975761026881610136565b61027184610148565b81016020851015610280578190505b61029461028c85610148565b830182610234565b50505b505050565b5f82821c905092915050565b5f6102b75f198460080261029c565b1980831691505092915050565b5f6102cf83836102a8565b9150826002028217905092915050565b6102e8826100a2565b67ffffffffffffffff811115610301576103006100ac565b5b61030b8254610106565b610316828285610256565b5f60209050601f831160018114610347575f8415610335578287015190505b61033f85826102c4565b8655506103a6565b601f19841661035586610136565b5f5b8281101561037c57848901518255600182019150602085019450602081019050610357565b868310156103995784890151610395601f8916826102a8565b8355505b6001600288020188555050505b505050505050565b61212a806103bb5f395ff3fe608060405234801561000f575f5ffd5b5060043610610114575f3560e01c806374e4fe36116100a0578063a22cb4651161006f578063a22cb465146102ee578063b88d4fde1461030a578063c87b56dd14610326578063e73a914c14610356578063e985e9c51461037257610114565b806374e4fe361461027a57806375794a3c146102965780637e9d2ac1146102b457806395d89b41146102d057610114565b806323b872dd116100e757806323b872dd146101b25780633de419e9146101ce57806342842e0e146101fe5780636352211e1461021a57806370a082311461024a57610114565b806301ffc9a71461011857806306fdde0314610148578063081812fc14610166578063095ea7b314610196575b5f5ffd5b610132600480360381019061012d9190611899565b6103a2565b60405161013f91906118de565b60405180910390f35b610150610483565b60405161015d9190611967565b60405180910390f35b610180600480360381019061017b91906119ba565b610512565b60405161018d9190611a24565b60405180910390f35b6101b060048036038101906101ab9190611a67565b61052d565b005b6101cc60048036038101906101c79190611aa5565b610568565b005b6101e860048036038101906101e39190611a67565b6105a3565b6040516101f59190611b04565b60405180910390f35b61021860048036038101906102139190611aa5565b6105ce565b005b610234600480360381019061022f91906119ba565b6105ed565b6040516102419190611a24565b60405180910390f35b610264600480360381019061025f9190611b1d565b6105fe565b6040516102719190611b04565b60405180910390f35b610294600480360381019061028f9190611b1d565b6106b4565b005b61029e61078d565b6040516102ab9190611b04565b60405180910390f35b6102ce60048036038101906102c99190611b1d565b610793565b005b6102d8610989565b6040516102e59190611967565b60405180910390f35b61030860048036038101906103039190611b72565b610a19565b005b610324600480360381019061031f9190611cdc565b610a54565b005b610340600480360381019061033b91906119ba565b610a8f565b60405161034d9190611967565b60405180910390f35b610370600480360381019061036b9190611b1d565b610af5565b005b61038c60048036038101906103879190611d5c565b610af8565b60405161039991906118de565b60405180910390f35b5f7f80ac58cd000000000000000000000000000000000000000000000000000000007bffffffffffffffffffffffffffffffffffffffffffffffffffffffff1916827bffffffffffffffffffffffffffffffffffffffffffffffffffffffff1916148061046c57507f5b5e139f000000000000000000000000000000000000000000000000000000007bffffffffffffffffffffffffffffffffffffffffffffffffffffffff1916827bffffffffffffffffffffffffffffffffffffffffffffffffffffffff1916145b8061047c575061047b82610b86565b5b9050919050565b60605f805461049190611dc7565b80601f01602080910402602001604051908101604052809291908181526020018280546104bd90611dc7565b80156105085780601f106104df57610100808354040283529160200191610508565b820191905f5260205f20905b8154815290600101906020018083116104eb57829003601f168201915b5050505050905090565b5f61051c82610bef565b5061052682610c75565b9050919050565b6040517f08c379a000000000000000000000000000000000000000000000000000000000815260040161055f90611e41565b60405180910390fd5b6040517f08c379a000000000000000000000000000000000000000000000000000000000815260040161059a90611ea9565b60405180910390fd5b6007602052815f5260405f2081815481106105bc575f80fd5b905f5260205f20015f91509150505481565b6105e883838360405180602001604052805f815250610a54565b505050565b5f6105f782610bef565b9050919050565b5f5f73ffffffffffffffffffffffffffffffffffffffff168273ffffffffffffffffffffffffffffffffffffffff160361066f575f6040517f89c62b640000000000000000000000000000000000000000000000000000000081526004016106669190611a24565b60405180910390fd5b60035f8373ffffffffffffffffffffffffffffffffffffffff1673ffffffffffffffffffffffffffffffffffffffff1681526020019081526020015f20549050919050565b60065f8154809291906106c690611ef4565b919050555060075f8273ffffffffffffffffffffffffffffffffffffffff1673ffffffffffffffffffffffffffffffffffffffff1681526020019081526020015f20600654908060018154018082558091505060019003905f5260205f20015f909190919091505561073a81600654610cae565b8073ffffffffffffffffffffffffffffffffffffffff167f0d65fb4d41a77a88bb0c82a8d3f7ab4927ade82fec6b4e64235bad34cea9649c6006546040516107829190611b04565b60405180910390a250565b60065481565b5f60075f8373ffffffffffffffffffffffffffffffffffffffff1673ffffffffffffffffffffffffffffffffffffffff1681526020019081526020015f20805490501115610986575f60075f8373ffffffffffffffffffffffffffffffffffffffff1673ffffffffffffffffffffffffffffffffffffffff1681526020019081526020015f2080548060200260200160405190810160405280929190818152602001828054801561086157602002820191905f5260205f20905b81548152602001906001019080831161084d575b505050505090505f5f90505b81518110156108a65761089982828151811061088c5761088b611f3b565b5b6020026020010151610ccb565b808060010191505061086d565b505f67ffffffffffffffff8111156108c1576108c0611bb8565b5b6040519080825280602002602001820160405280156108ef5781602001602082028036833780820191505090505b5060075f8473ffffffffffffffffffffffffffffffffffffffff1673ffffffffffffffffffffffffffffffffffffffff1681526020019081526020015f2090805190602001906109409291906117cd565b508173ffffffffffffffffffffffffffffffffffffffff167f7a3b3d0286bee110786eea9eab883615bd7d566cd5e711d4c9e8d0aed455fec560405160405180910390a2505b50565b60606001805461099890611dc7565b80601f01602080910402602001604051908101604052809291908181526020018280546109c490611dc7565b8015610a0f5780601f106109e657610100808354040283529160200191610a0f565b820191905f5260205f20905b8154815290600101906020018083116109f257829003601f168201915b5050505050905090565b6040517f08c379a0000000000000000000000000000000000000000000000000000000008152600401610a4b90611e41565b60405180910390fd5b6040517f08c379a0000000000000000000000000000000000000000000000000000000008152600401610a8690611ea9565b60405180910390fd5b6060610a9a82610bef565b505f610aa4610d4d565b90505f815111610ac25760405180602001604052805f815250610aed565b80610acc84610d63565b604051602001610add929190611fa2565b6040516020818303038152906040525b915050919050565b50565b5f60055f8473ffffffffffffffffffffffffffffffffffffffff1673ffffffffffffffffffffffffffffffffffffffff1681526020019081526020015f205f8373ffffffffffffffffffffffffffffffffffffffff1673ffffffffffffffffffffffffffffffffffffffff1681526020019081526020015f205f9054906101000a900460ff16905092915050565b5f7f01ffc9a7000000000000000000000000000000000000000000000000000000007bffffffffffffffffffffffffffffffffffffffffffffffffffffffff1916827bffffffffffffffffffffffffffffffffffffffffffffffffffffffff1916149050919050565b5f5f610bfa83610e2d565b90505f73ffffffffffffffffffffffffffffffffffffffff168173ffffffffffffffffffffffffffffffffffffffff1603610c6c57826040517f7e273289000000000000000000000000000000000000000000000000000000008152600401610c639190611b04565b60405180910390fd5b80915050919050565b5f60045f8381526020019081526020015f205f9054906101000a900473ffffffffffffffffffffffffffffffffffffffff169050919050565b610cc7828260405180602001604052805f815250610e66565b5050565b5f610cd75f835f610e89565b90505f73ffffffffffffffffffffffffffffffffffffffff168173ffffffffffffffffffffffffffffffffffffffff1603610d4957816040517f7e273289000000000000000000000000000000000000000000000000000000008152600401610d409190611b04565b60405180910390fd5b5050565b606060405180602001604052805f815250905090565b60605f6001610d7184611094565b0190505f8167ffffffffffffffff811115610d8f57610d8e611bb8565b5b6040519080825280601f01601f191660200182016040528015610dc15781602001600182028036833780820191505090505b5090505f82602001820190505b600115610e22578080600190039150507f3031323334353637383961626364656600000000000000000000000000000000600a86061a8153600a8581610e1757610e16611fc5565b5b0494505f8503610dce575b819350505050919050565b5f60025f8381526020019081526020015f205f9054906101000a900473ffffffffffffffffffffffffffffffffffffffff169050919050565b610e7083836111e5565b610e84610e7b6112d8565b5f8585856112df565b505050565b5f5f610e9484610e2d565b90505f73ffffffffffffffffffffffffffffffffffffffff168373ffffffffffffffffffffffffffffffffffffffff1614610ed557610ed481848661148b565b5b5f73ffffffffffffffffffffffffffffffffffffffff168173ffffffffffffffffffffffffffffffffffffffff1614610f6057610f145f855f5f61154e565b600160035f8373ffffffffffffffffffffffffffffffffffffffff1673ffffffffffffffffffffffffffffffffffffffff1681526020019081526020015f205f82825403925050819055505b5f73ffffffffffffffffffffffffffffffffffffffff168573ffffffffffffffffffffffffffffffffffffffff1614610fdf57600160035f8773ffffffffffffffffffffffffffffffffffffffff1673ffffffffffffffffffffffffffffffffffffffff1681526020019081526020015f205f82825401925050819055505b8460025f8681526020019081526020015f205f6101000a81548173ffffffffffffffffffffffffffffffffffffffff021916908373ffffffffffffffffffffffffffffffffffffffff160217905550838573ffffffffffffffffffffffffffffffffffffffff168273ffffffffffffffffffffffffffffffffffffffff167fddf252ad1be2c89b69c2b068fc378daa952ba7f163c4a11628f55a4df523b3ef60405160405180910390a4809150509392505050565b5f5f5f90507a184f03e93ff9f4daa797ed6e38ed64bf6a1f01000000000000000083106110f0577a184f03e93ff9f4daa797ed6e38ed64bf6a1f01000000000000000083816110e6576110e5611fc5565b5b0492506040810190505b6d04ee2d6d415b85acef8100000000831061112d576d04ee2d6d415b85acef8100000000838161112357611122611fc5565b5b0492506020810190505b662386f26fc10000831061115c57662386f26fc10000838161115257611151611fc5565b5b0492506010810190505b6305f5e1008310611185576305f5e100838161117b5761117a611fc5565b5b0492506008810190505b61271083106111aa5761271083816111a05761119f611fc5565b5b0492506004810190505b606483106111cd57606483816111c3576111c2611fc5565b5b0492506002810190505b600a83106111dc576001810190505b80915050919050565b5f73ffffffffffffffffffffffffffffffffffffffff168273ffffffffffffffffffffffffffffffffffffffff1603611255575f6040517f64a0ae9200000000000000000000000000000000000000000000000000000000815260040161124c9190611a24565b60405180910390fd5b5f61126183835f610e89565b90505f73ffffffffffffffffffffffffffffffffffffffff168173ffffffffffffffffffffffffffffffffffffffff16146112d3575f6040517f73c6ac6e0000000000000000000000000000000000000000000000000000000081526004016112ca9190611a24565b60405180910390fd5b505050565b5f33905090565b5f8373ffffffffffffffffffffffffffffffffffffffff163b1115611484578273ffffffffffffffffffffffffffffffffffffffff1663150b7a02868685856040518563ffffffff1660e01b815260040161133d9493929190612044565b6020604051808303815f875af192505050801561137857506040513d601f19601f8201168201806040525081019061137591906120a2565b60015b6113f9573d805f81146113a6576040519150601f19603f3d011682016040523d82523d5f602084013e6113ab565b606091505b505f8151036113f157836040517f64a0ae920000000000000000000000000000000000000000000000000000000081526004016113e89190611a24565b60405180910390fd5b805181602001fd5b63150b7a0260e01b7bffffffffffffffffffffffffffffffffffffffffffffffffffffffff1916817bffffffffffffffffffffffffffffffffffffffffffffffffffffffff19161461148257836040517f64a0ae920000000000000000000000000000000000000000000000000000000081526004016114799190611a24565b60405180910390fd5b505b5050505050565b61149683838361170d565b611549575f73ffffffffffffffffffffffffffffffffffffffff168373ffffffffffffffffffffffffffffffffffffffff160361150a57806040517f7e2732890000000000000000000000000000000000000000000000000000000081526004016115019190611b04565b60405180910390fd5b81816040517f177e802f0000000000000000000000000000000000000000000000000000000081526004016115409291906120cd565b60405180910390fd5b505050565b808061158657505f73ffffffffffffffffffffffffffffffffffffffff168273ffffffffffffffffffffffffffffffffffffffff1614155b156116b8575f61159584610bef565b90505f73ffffffffffffffffffffffffffffffffffffffff168373ffffffffffffffffffffffffffffffffffffffff16141580156115ff57508273ffffffffffffffffffffffffffffffffffffffff168173ffffffffffffffffffffffffffffffffffffffff1614155b801561161257506116108184610af8565b155b1561165457826040517fa9fbf51f00000000000000000000000000000000000000000000000000000000815260040161164b9190611a24565b60405180910390fd5b81156116b657838573ffffffffffffffffffffffffffffffffffffffff168273ffffffffffffffffffffffffffffffffffffffff167f8c5be1e5ebec7d5bd14f71427d1e84f3dd0314c0f7b2291e5b200ac8c7c3b92560405160405180910390a45b505b8360045f8581526020019081526020015f205f6101000a81548173ffffffffffffffffffffffffffffffffffffffff021916908373ffffffffffffffffffffffffffffffffffffffff16021790555050505050565b5f5f73ffffffffffffffffffffffffffffffffffffffff168373ffffffffffffffffffffffffffffffffffffffff16141580156117c457508273ffffffffffffffffffffffffffffffffffffffff168473ffffffffffffffffffffffffffffffffffffffff16148061178557506117848484610af8565b5b806117c357508273ffffffffffffffffffffffffffffffffffffffff166117ab83610c75565b73ffffffffffffffffffffffffffffffffffffffff16145b5b90509392505050565b828054828255905f5260205f20908101928215611807579160200282015b828111156118065782518255916020019190600101906117eb565b5b5090506118149190611818565b5090565b5b8082111561182f575f815f905550600101611819565b5090565b5f604051905090565b5f5ffd5b5f5ffd5b5f7fffffffff0000000000000000000000000000000000000000000000000000000082169050919050565b61187881611844565b8114611882575f5ffd5b50565b5f813590506118938161186f565b92915050565b5f602082840312156118ae576118ad61183c565b5b5f6118bb84828501611885565b91505092915050565b5f8115159050919050565b6118d8816118c4565b82525050565b5f6020820190506118f15f8301846118cf565b92915050565b5f81519050919050565b5f82825260208201905092915050565b8281835e5f83830152505050565b5f601f19601f8301169050919050565b5f611939826118f7565b6119438185611901565b9350611953818560208601611911565b61195c8161191f565b840191505092915050565b5f6020820190508181035f83015261197f818461192f565b905092915050565b5f819050919050565b61199981611987565b81146119a3575f5ffd5b50565b5f813590506119b481611990565b92915050565b5f602082840312156119cf576119ce61183c565b5b5f6119dc848285016119a6565b91505092915050565b5f73ffffffffffffffffffffffffffffffffffffffff82169050919050565b5f611a0e826119e5565b9050919050565b611a1e81611a04565b82525050565b5f602082019050611a375f830184611a15565b92915050565b611a4681611a04565b8114611a50575f5ffd5b50565b5f81359050611a6181611a3d565b92915050565b5f5f60408385031215611a7d57611a7c61183c565b5b5f611a8a85828601611a53565b9250506020611a9b858286016119a6565b9150509250929050565b5f5f5f60608486031215611abc57611abb61183c565b5b5f611ac986828701611a53565b9350506020611ada86828701611a53565b9250506040611aeb868287016119a6565b9150509250925092565b611afe81611987565b82525050565b5f602082019050611b175f830184611af5565b92915050565b5f60208284031215611b3257611b3161183c565b5b5f611b3f84828501611a53565b91505092915050565b611b51816118c4565b8114611b5b575f5ffd5b50565b5f81359050611b6c81611b48565b92915050565b5f5f60408385031215611b8857611b8761183c565b5b5f611b9585828601611a53565b9250506020611ba685828601611b5e565b9150509250929050565b5f5ffd5b5f5ffd5b7f4e487b71000000000000000000000000000000000000000000000000000000005f52604160045260245ffd5b611bee8261191f565b810181811067ffffffffffffffff82111715611c0d57611c0c611bb8565b5b80604052505050565b5f611c1f611833565b9050611c2b8282611be5565b919050565b5f67ffffffffffffffff821115611c4a57611c49611bb8565b5b611c538261191f565b9050602081019050919050565b828183375f83830152505050565b5f611c80611c7b84611c30565b611c16565b905082815260208101848484011115611c9c57611c9b611bb4565b5b611ca7848285611c60565b509392505050565b5f82601f830112611cc357611cc2611bb0565b5b8135611cd3848260208601611c6e565b91505092915050565b5f5f5f5f60808587031215611cf457611cf361183c565b5b5f611d0187828801611a53565b9450506020611d1287828801611a53565b9350506040611d23878288016119a6565b925050606085013567ffffffffffffffff811115611d4457611d43611840565b5b611d5087828801611caf565b91505092959194509250565b5f5f60408385031215611d7257611d7161183c565b5b5f611d7f85828601611a53565b9250506020611d9085828601611a53565b9150509250929050565b7f4e487b71000000000000000000000000000000000000000000000000000000005f52602260045260245ffd5b5f6002820490506001821680611dde57607f821691505b602082108103611df157611df0611d9a565b5b50919050565b7f436f6f6c4e46542063616e6e6f7420626520617070726f7665640000000000005f82015250565b5f611e2b601a83611901565b9150611e3682611df7565b602082019050919050565b5f6020820190508181035f830152611e5881611e1f565b9050919050565b7f436f6f6c4e46542063616e6e6f74206265207472616e736665727265640000005f82015250565b5f611e93601d83611901565b9150611e9e82611e5f565b602082019050919050565b5f6020820190508181035f830152611ec081611e87565b9050919050565b7f4e487b71000000000000000000000000000000000000000000000000000000005f52601160045260245ffd5b5f611efe82611987565b91507fffffffffffffffffffffffffffffffffffffffffffffffffffffffffffffffff8203611f3057611f2f611ec7565b5b600182019050919050565b7f4e487b71000000000000000000000000000000000000000000000000000000005f52603260045260245ffd5b5f81905092915050565b5f611f7c826118f7565b611f868185611f68565b9350611f96818560208601611911565b80840191505092915050565b5f611fad8285611f72565b9150611fb98284611f72565b91508190509392505050565b7f4e487b71000000000000000000000000000000000000000000000000000000005f52601260045260245ffd5b5f81519050919050565b5f82825260208201905092915050565b5f61201682611ff2565b6120208185611ffc565b9350612030818560208601611911565b6120398161191f565b840191505092915050565b5f6080820190506120575f830187611a15565b6120646020830186611a15565b6120716040830185611af5565b8181036060830152612083818461200c565b905095945050505050565b5f8151905061209c8161186f565b92915050565b5f602082840312156120b7576120b661183c565b5b5f6120c48482850161208e565b91505092915050565b5f6040820190506120e05f830185611a15565b6120ed6020830184611af5565b939250505056fea2646970667358221220553b2e2eedc9dab6b57c18c831bef05545a350ed5f706658b4c3f9b8ed44c71b64736f6c634300081e0033","linkReferences":{}},"methodIdentifiers":{"approve(address,uint256)":"095ea7b3","balanceOf(address)":"70a08231","burnAll(address)":"7e9d2ac1","getApproved(uint256)":"081812fc","isApprovedForAll(address,address)":"e985e9c5","mintCoolNFT(address)":"74e4fe36","name()":"06fdde03","nextTokenId()":"75794a3c","ownerOf(uint256)":"6352211e","safeTransferFrom(address,address,uint256)":"42842e0e","safeTransferFrom(address,address,uint256,bytes)":"b88d4fde","setApprovalForAll(address,bool)":"a22cb465","setDAO(address)":"e73a914c","supportsInterface(bytes4)":"01ffc9a7","symbol()":"95d89b41","tokenIds(address,uint256)":"3de419e9","tokenURI(uint256)":"c87b56dd","transferFrom(address,address,uint256)":"23b872dd"},"id":52}