{"abi":[{"type":"constructor","inputs":[{"name":"magicWord","type":"string","internalType":"string"},{"name":"nftAddress","type":"address","internalType":"address"},{"name":"fptAddress","type":"address","internalType":"address"}],"stateMutability":"nonpayable"},{"type":"function","name":"CONTROL_ROLE","inputs":[],"outputs":[{"name":"","type":"bytes32","internalType":"bytes32"}],"stateMutability":"view"},{"type":"function","name":"COOL_NFT_CONTRACT","inputs":[],"outputs":[{"name":"","type":"address","internalType":"contract IFP_CoolNFT"}],"stateMutability":"view"},{"type":"function","name":"DEFAULT_ADMIN_ROLE","inputs":[],"outputs":[{"name":"","type":"bytes32","internalType":"bytes32"}],"stateMutability":"view"},{"type":"function","name":"DEFAULT_DISPUTE_QUORUM","inputs":[],"outputs":[{"name":"","type":"uint256","internalType":"uint256"}],"stateMutability":"view"},{"type":"function","name":"DEFAULT_PROPOSAL_QUORUM","inputs":[],"outputs":[{"name":"","type":"uint256","internalType":"uint256"}],"stateMutability":"view"},{"type":"function","name":"FPT_CONTRACT","inputs":[],"outputs":[{"name":"","type":"address","internalType":"contract IERC20"}],"stateMutability":"view"},{"type":"function","name":"PROPOSAL_EXECUTION_DELAY","inputs":[],"outputs":[{"name":"","type":"uint256","internalType":"uint256"}],"stateMutability":"view"},{"type":"function","name":"PROPOSAL_REVIEW_TIME","inputs":[],"outputs":[{"name":"","type":"uint256","internalType":"uint256"}],"stateMutability":"view"},{"type":"function","name":"PROPOSAL_VOTING_TIME","inputs":[],"outputs":[{"name":"","type":"uint256","internalType":"uint256"}],"stateMutability":"view"},{"type":"function","name":"THRESHOLD","inputs":[],"outputs":[{"name":"","type":"uint256","internalType":"uint256"}],"stateMutability":"view"},{"type":"function","name":"cancelDispute","inputs":[{"name":"disputeId","type":"uint256","internalType":"uint256"}],"outputs":[],"stateMutability":"nonpayable"},{"type":"function","name":"cancelProposal","inputs":[{"name":"proposalId","type":"uint256","internalType":"uint256"},{"name":"magicWord","type":"string","internalType":"string"}],"outputs":[],"stateMutability":"nonpayable"},{"type":"function","name":"cancelProposalByCreator","inputs":[{"name":"proposalId","type":"uint256","internalType":"uint256"}],"outputs":[],"stateMutability":"nonpayable"},{"type":"function","name":"castVoteOnProposal","inputs":[{"name":"proposalId","type":"uint256","internalType":"uint256"},{"name":"vote","type":"bool","internalType":"bool"}],"outputs":[],"stateMutability":"nonpayable"},{"type":"function","name":"checkLottery","inputs":[{"name":"disputeId","type":"uint256","internalType":"uint256"}],"outputs":[],"stateMutability":"nonpayable"},{"type":"function","name":"commitVoteOnDispute","inputs":[{"name":"disputeId","type":"uint256","internalType":"uint256"},{"name":"commit","type":"bytes32","internalType":"bytes32"}],"outputs":[],"stateMutability":"nonpayable"},{"type":"function","name":"commitsOnDisputes","inputs":[{"name":"","type":"uint256","internalType":"uint256"},{"name":"","type":"address","internalType":"address"}],"outputs":[{"name":"","type":"bytes32","internalType":"bytes32"}],"stateMutability":"view"},{"type":"function","name":"disputeQuorum","inputs":[],"outputs":[{"name":"","type":"uint256","internalType":"uint256"}],"stateMutability":"view"},{"type":"function","name":"disputeResult","inputs":[{"name":"","type":"uint256","internalType":"uint256"}],"outputs":[{"name":"","type":"uint8","internalType":"enum FP_DAO.Vote"}],"stateMutability":"view"},{"type":"function","name":"disputes","inputs":[{"name":"","type":"uint256","internalType":"uint256"}],"outputs":[{"name":"itemId","type":"uint256","internalType":"uint256"},{"name":"buyerReasoning","type":"string","internalType":"string"},{"name":"sellerReasoning","type":"string","internalType":"string"},{"name":"votesFor","type":"uint256","internalType":"uint256"},{"name":"votesAgainst","type":"uint256","internalType":"uint256"},{"name":"totalVoters","type":"uint256","internalType":"uint256"},{"name":"committingStartingTime","type":"uint256","internalType":"uint256"},{"name":"revealingStartingTime","type":"uint256","internalType":"uint256"},{"name":"state","type":"uint8","internalType":"enum FP_DAO.DisputeState"}],"stateMutability":"view"},{"type":"function","name":"endDispute","inputs":[{"name":"disputeId","type":"uint256","internalType":"uint256"}],"outputs":[],"stateMutability":"nonpayable"},{"type":"function","name":"executePassedProposal","inputs":[{"name":"proposalId","type":"uint256","internalType":"uint256"}],"outputs":[],"stateMutability":"nonpayable"},{"type":"function","name":"getRoleAdmin","inputs":[{"name":"role","type":"bytes32","internalType":"bytes32"}],"outputs":[{"name":"","type":"bytes32","internalType":"bytes32"}],"stateMutability":"view"},{"type":"function","name":"grantRole","inputs":[{"name":"role","type":"bytes32","internalType":"bytes32"},{"name":"account","type":"address","internalType":"address"}],"outputs":[],"stateMutability":"nonpayable"},{"type":"function","name":"hasCheckedLottery","inputs":[{"name":"","type":"address","internalType":"address"},{"name":"","type":"uint256","internalType":"uint256"}],"outputs":[{"name":"","type":"bool","internalType":"bool"}],"stateMutability":"view"},{"type":"function","name":"hasRole","inputs":[{"name":"role","type":"bytes32","internalType":"bytes32"},{"name":"account","type":"address","internalType":"address"}],"outputs":[{"name":"","type":"bool","internalType":"bool"}],"stateMutability":"view"},{"type":"function","name":"hasVotedOnDispute","inputs":[{"name":"","type":"address","internalType":"address"},{"name":"","type":"uint256","internalType":"uint256"}],"outputs":[{"name":"","type":"uint8","internalType":"enum FP_DAO.Vote"}],"stateMutability":"view"},{"type":"function","name":"hasVotedOnUpgradeProposal","inputs":[{"name":"","type":"address","internalType":"address"},{"name":"","type":"uint256","internalType":"uint256"}],"outputs":[{"name":"","type":"uint8","internalType":"enum FP_DAO.Vote"}],"stateMutability":"view"},{"type":"function","name":"newDispute","inputs":[{"name":"itemId","type":"uint256","internalType":"uint256"},{"name":"buyerReasoning","type":"string","internalType":"string"},{"name":"sellerReasoning","type":"string","internalType":"string"}],"outputs":[{"name":"","type":"uint256","internalType":"uint256"}],"stateMutability":"nonpayable"},{"type":"function","name":"newUpgradeProposal","inputs":[{"name":"addrNewShop","type":"address","internalType":"address"}],"outputs":[{"name":"","type":"uint256","internalType":"uint256"}],"stateMutability":"nonpayable"},{"type":"function","name":"nextDisputeId","inputs":[],"outputs":[{"name":"","type":"uint256","internalType":"uint256"}],"stateMutability":"view"},{"type":"function","name":"nextUpgradeProposalId","inputs":[],"outputs":[{"name":"","type":"uint256","internalType":"uint256"}],"stateMutability":"view"},{"type":"function","name":"proposalQuorum","inputs":[],"outputs":[{"name":"","type":"uint256","internalType":"uint256"}],"stateMutability":"view"},{"type":"function","name":"queryDispute","inputs":[{"name":"disputeId","type":"uint256","internalType":"uint256"}],"outputs":[{"name":"","type":"tuple","internalType":"struct FP_DAO.Dispute","components":[{"name":"itemId","type":"uint256","internalType":"uint256"},{"name":"buyerReasoning","type":"string","internalType":"string"},{"name":"sellerReasoning","type":"string","internalType":"string"},{"name":"votesFor","type":"uint256","internalType":"uint256"},{"name":"votesAgainst","type":"uint256","internalType":"uint256"},{"name":"totalVoters","type":"uint256","internalType":"uint256"},{"name":"committingStartingTime","type":"uint256","internalType":"uint256"},{"name":"revealingStartingTime","type":"uint256","internalType":"uint256"},{"name":"state","type":"uint8","internalType":"enum FP_DAO.DisputeState"}]}],"stateMutability":"view"},{"type":"function","name":"queryDisputeResult","inputs":[{"name":"disputeId","type":"uint256","internalType":"uint256"}],"outputs":[{"name":"","type":"uint8","internalType":"enum FP_DAO.Vote"}],"stateMutability":"view"},{"type":"function","name":"queryUpgradeProposal","inputs":[{"name":"upgradeProposalId","type":"uint256","internalType":"uint256"}],"outputs":[{"name":"","type":"tuple","internalType":"struct FP_DAO.UpgradeProposal","components":[{"name":"creator","type":"address","internalType":"address"},{"name":"id","type":"uint256","internalType":"uint256"},{"name":"creationTimestamp","type":"uint256","internalType":"uint256"},{"name":"approvalTimestamp","type":"uint256","internalType":"uint256"},{"name":"newShop","type":"address","internalType":"address"},{"name":"votesFor","type":"uint256","internalType":"uint256"},{"name":"votesAgainst","type":"uint256","internalType":"uint256"},{"name":"totalVoters","type":"uint256","internalType":"uint256"},{"name":"state","type":"uint8","internalType":"enum FP_DAO.ProposalState"}]}],"stateMutability":"view"},{"type":"function","name":"queryUpgradeProposalResult","inputs":[{"name":"upgradeProposalId","type":"uint256","internalType":"uint256"}],"outputs":[{"name":"","type":"uint8","internalType":"enum FP_DAO.Vote"}],"stateMutability":"view"},{"type":"function","name":"renounceRole","inputs":[{"name":"role","type":"bytes32","internalType":"bytes32"},{"name":"callerConfirmation","type":"address","internalType":"address"}],"outputs":[],"stateMutability":"nonpayable"},{"type":"function","name":"resolveUpgradeProposal","inputs":[{"name":"proposalId","type":"uint256","internalType":"uint256"}],"outputs":[],"stateMutability":"nonpayable"},{"type":"function","name":"revealDisputeVote","inputs":[{"name":"disputeId","type":"uint256","internalType":"uint256"},{"name":"vote","type":"bool","internalType":"bool"},{"name":"secret","type":"string","internalType":"string"}],"outputs":[],"stateMutability":"nonpayable"},{"type":"function","name":"revokeRole","inputs":[{"name":"role","type":"bytes32","internalType":"bytes32"},{"name":"account","type":"address","internalType":"address"}],"outputs":[],"stateMutability":"nonpayable"},{"type":"function","name":"setShop","inputs":[{"name":"shop","type":"address","internalType":"address"}],"outputs":[],"stateMutability":"nonpayable"},{"type":"function","name":"shopAddress","inputs":[],"outputs":[{"name":"","type":"address","internalType":"address"}],"stateMutability":"view"},{"type":"function","name":"supportsInterface","inputs":[{"name":"interfaceId","type":"bytes4","internalType":"bytes4"}],"outputs":[{"name":"","type":"bool","internalType":"bool"}],"stateMutability":"view"},{"type":"function","name":"upgradeProposalResult","inputs":[{"name":"","type":"uint256","internalType":"uint256"}],"outputs":[{"name":"","type":"uint8","internalType":"enum FP_DAO.Vote"}],"stateMutability":"view"},{"type":"function","name":"upgradeProposals","inputs":[{"name":"","type":"uint256","internalType":"uint256"}],"outputs":[{"name":"creator","type":"address","internalType":"address"},{"name":"id","type":"uint256","internalType":"uint256"},{"name":"creationTimestamp","type":"uint256","internalType":"uint256"},{"name":"approvalTimestamp","type":"uint256","internalType":"uint256"},{"name":"newShop","type":"address","internalType":"address"},{"name":"votesFor","type":"uint256","internalType":"uint256"},{"name":"votesAgainst","type":"uint256","internalType":"uint256"},{"name":"totalVoters","type":"uint256","internalType":"uint256"},{"name":"state","type":"uint8","internalType":"enum FP_DAO.ProposalState"}],"stateMutability":"view"},{"type":"event","name":"AwardNFT","inputs":[{"name":"user","type":"address","indexed":false,"internalType":"address"}],"anonymous":false},{"type":"event","name":"DisputeVoteCasted","inputs":[{"name":"disputeId","type":"uint256","indexed":false,"internalType":"uint256"},{"name":"user","type":"address","indexed":false,"internalType":"address"}],"anonymous":false},{"type":"event","name":"DisputeVoteCommitted","inputs":[{"name":"disputeId","type":"uint256","indexed":false,"internalType":"uint256"},{"name":"user","type":"address","indexed":false,"internalType":"address"}],"anonymous":false},{"type":"event","name":"EndDispute","inputs":[{"name":"disputeId","type":"uint256","indexed":false,"internalType":"uint256"},{"name":"itemId","type":"uint256","indexed":false,"internalType":"uint256"}],"anonymous":false},{"type":"event","name":"NewConfig","inputs":[{"name":"shop","type":"address","indexed":false,"internalType":"address"},{"name":"nft","type":"address","indexed":false,"internalType":"address"}],"anonymous":false},{"type":"event","name":"NewDispute","inputs":[{"name":"disputeId","type":"uint256","indexed":false,"internalType":"uint256"},{"name":"itemId","type":"uint256","indexed":false,"internalType":"uint256"}],"anonymous":false},{"type":"event","name":"NewUpgradeProposal","inputs":[{"name":"id","type":"uint256","indexed":false,"internalType":"uint256"},{"name":"creationTimestamp","type":"uint256","indexed":false,"internalType":"uint256"},{"name":"newShop","type":"address","indexed":false,"internalType":"address"}],"anonymous":false},{"type":"event","name":"ProposalCanceled","inputs":[{"name":"proposalId","type":"uint256","indexed":false,"internalType":"uint256"}],"anonymous":false},{"type":"event","name":"ProposalExecuted","inputs":[{"name":"proposalId","type":"uint256","indexed":false,"internalType":"uint256"},{"name":"newShop","type":"address","indexed":false,"internalType":"address"}],"anonymous":false},{"type":"event","name":"ProposalNotPassed","inputs":[{"name":"proposalId","type":"uint256","indexed":false,"internalType":"uint256"},{"name":"newShop","type":"address","indexed":false,"internalType":"address"}],"anonymous":false},{"type":"event","name":"ProposalPassed","inputs":[{"name":"proposalId","type":"uint256","indexed":false,"internalType":"uint256"},{"name":"newShop","type":"address","indexed":false,"internalType":"address"},{"name":"approvalTimestamp","type":"uint256","indexed":false,"internalType":"uint256"}],"anonymous":false},{"type":"event","name":"ProposalVoteCasted","inputs":[{"name":"proposalId","type":"uint256","indexed":false,"internalType":"uint256"},{"name":"user","type":"address","indexed":false,"internalType":"address"}],"anonymous":false},{"type":"event","name":"RoleAdminChanged","inputs":[{"name":"role","type":"bytes32","indexed":true,"internalType":"bytes32"},{"name":"previousAdminRole","type":"bytes32","indexed":true,"internalType":"bytes32"},{"name":"newAdminRole","type":"bytes32","indexed":true,"internalType":"bytes32"}],"anonymous":false},{"type":"event","name":"RoleGranted","inputs":[{"name":"role","type":"bytes32","indexed":true,"internalType":"bytes32"},{"name":"account","type":"address","indexed":true,"internalType":"address"},{"name":"sender","type":"address","indexed":true,"internalType":"address"}],"anonymous":false},{"type":"event","name":"RoleRevoked","inputs":[{"name":"role","type":"bytes32","indexed":true,"internalType":"bytes32"},{"name":"account","type":"address","indexed":true,"internalType":"address"},{"name":"sender","type":"address","indexed":true,"internalType":"address"}],"anonymous":false},{"type":"error","name":"AccessControlBadConfirmation","inputs":[]},{"type":"error","name":"AccessControlUnauthorizedAccount","inputs":[{"name":"account","type":"address","internalType":"address"},{"name":"neededRole","type":"bytes32","internalType":"bytes32"}]},{"type":"error","name":"ZeroAddress","inputs":[]}],"bytecode":{"object":"0x60c06040525f60015f6101000a81548160ff0219169083151502179055506101f4600d5534801561002e575f5ffd5b506040516160f03803806160f083398181016040528101906100509190610407565b82600e908161005f9190610683565b506100907f126c7c8716c8f1c7c73a7370c820c7d73a9b4ed0ad633cfce1092f9ff47c85743361010160201b60201c565b508173ffffffffffffffffffffffffffffffffffffffff1660808173ffffffffffffffffffffffffffffffffffffffff16815250508073ffffffffffffffffffffffffffffffffffffffff1660a08173ffffffffffffffffffffffffffffffffffffffff1681525050505050610752565b5f61011283836101f660201b60201c565b6101ec5760015f5f8581526020019081526020015f205f015f8473ffffffffffffffffffffffffffffffffffffffff1673ffffffffffffffffffffffffffffffffffffffff1681526020019081526020015f205f6101000a81548160ff02191690831515021790555061018961025960201b60201c565b73ffffffffffffffffffffffffffffffffffffffff168273ffffffffffffffffffffffffffffffffffffffff16847f2f8788117e7eff1d82e926ec794901d17c78024a50270940304540a733656f0d60405160405180910390a4600190506101f0565b5f90505b92915050565b5f5f5f8481526020019081526020015f205f015f8373ffffffffffffffffffffffffffffffffffffffff1673ffffffffffffffffffffffffffffffffffffffff1681526020019081526020015f205f9054906101000a900460ff16905092915050565b5f33905090565b5f604051905090565b5f5ffd5b5f5ffd5b5f5ffd5b5f5ffd5b5f601f19601f8301169050919050565b7f4e487b71000000000000000000000000000000000000000000000000000000005f52604160045260245ffd5b6102bf82610279565b810181811067ffffffffffffffff821117156102de576102dd610289565b5b80604052505050565b5f6102f0610260565b90506102fc82826102b6565b919050565b5f67ffffffffffffffff82111561031b5761031a610289565b5b61032482610279565b9050602081019050919050565b8281835e5f83830152505050565b5f61035161034c84610301565b6102e7565b90508281526020810184848401111561036d5761036c610275565b5b610378848285610331565b509392505050565b5f82601f83011261039457610393610271565b5b81516103a484826020860161033f565b91505092915050565b5f73ffffffffffffffffffffffffffffffffffffffff82169050919050565b5f6103d6826103ad565b9050919050565b6103e6816103cc565b81146103f0575f5ffd5b50565b5f81519050610401816103dd565b92915050565b5f5f5f6060848603121561041e5761041d610269565b5b5f84015167ffffffffffffffff81111561043b5761043a61026d565b5b61044786828701610380565b9350506020610458868287016103f3565b9250506040610469868287016103f3565b9150509250925092565b5f81519050919050565b7f4e487b71000000000000000000000000000000000000000000000000000000005f52602260045260245ffd5b5f60028204905060018216806104c157607f821691505b6020821081036104d4576104d361047d565b5b50919050565b5f819050815f5260205f209050919050565b5f6020601f8301049050919050565b5f82821b905092915050565b5f600883026105367fffffffffffffffffffffffffffffffffffffffffffffffffffffffffffffffff826104fb565b61054086836104fb565b95508019841693508086168417925050509392505050565b5f819050919050565b5f819050919050565b5f61058461057f61057a84610558565b610561565b610558565b9050919050565b5f819050919050565b61059d8361056a565b6105b16105a98261058b565b848454610507565b825550505050565b5f5f905090565b6105c86105b9565b6105d3818484610594565b505050565b5b818110156105f6576105eb5f826105c0565b6001810190506105d9565b5050565b601f82111561063b5761060c816104da565b610615846104ec565b81016020851015610624578190505b610638610630856104ec565b8301826105d8565b50505b505050565b5f82821c905092915050565b5f61065b5f1984600802610640565b1980831691505092915050565b5f610673838361064c565b9150826002028217905092915050565b61068c82610473565b67ffffffffffffffff8111156106a5576106a4610289565b5b6106af82546104aa565b6106ba8282856105fa565b5f60209050601f8311600181146106eb575f84156106d9578287015190505b6106e38582610668565b86555061074a565b601f1984166106f9866104da565b5f5b82811015610720578489015182556001820191506020850194506020810190506106fb565b8683101561073d5784890151610739601f89168261064c565b8355505b6001600288020188555050505b505050505050565b60805160a05161596f6107815f395f818161184f015261321d01525f8181610d63015261387c015261596f5ff3fe608060405234801561000f575f5ffd5b5060043610610288575f3560e01c806391d148541161015a578063c35574dd116100cc578063e02af6a911610085578063e02af6a914610844578063e17e458c14610860578063e53b6ab71461087c578063f43acb521461089a578063fdd1f754146108b6578063fe253de2146108e657610288565b8063c35574dd14610796578063ce965f6a146107b4578063d547741f146107d0578063d7a1e6ab146107ec578063dae4739a1461080a578063df02935c1461082857610288565b8063a217fddf1161011e578063a217fddf146106e8578063a351f61514610706578063a9ded81c14610722578063b0c7d70d14610740578063bac570981461075c578063c1eab3411461077a57610288565b806391d14854146106165780639a0b6f9b146106465780639fa42769146106645780639fb3d4891461069c578063a0f36f97146106b857610288565b8063262876f0116101fe5780635187b7a0116101b75780635187b7a01461054a578063563a511214610566578063564a565d1461058457806365e62fa4146105bc578063785ffb37146105da5780638a1ea3c8146105f857610288565b8063262876f01461045257806328c5a8bb146104825780632f2ff15d146104b257806336568abe146104ce57806339704092146104ea5780633c1d543e1461051a57610288565b8063116a0db011610250578063116a0db0146103445780631658407b14610374578063181bfa9d146103a457806322446fb8146103d4578063248a9ca3146103f257806324ffa4111461042257610288565b806301ffc9a71461028c57806306032bf7146102bc57806309288797146102ec5780630a574929146103085780630db3993414610326575b5f5ffd5b6102a660048036038101906102a19190613b1a565b610916565b6040516102b39190613b5f565b60405180910390f35b6102d660048036038101906102d19190613c05565b61098f565b6040516102e39190613cb6565b60405180910390f35b61030660048036038101906103019190613cf9565b6109b9565b005b610310610d61565b60405161031d9190613d92565b60405180910390f35b61032e610d85565b60405161033b9190613dba565b60405180910390f35b61035e60048036038101906103599190613c05565b610d8b565b60405161036b9190613b5f565b60405180910390f35b61038e60048036038101906103899190613dd3565b610db5565b60405161039b9190613cb6565b60405180910390f35b6103be60048036038101906103b99190613dd3565b610ddb565b6040516103cb9190613cb6565b60405180910390f35b6103dc610df8565b6040516103e99190613e0d565b60405180910390f35b61040c60048036038101906104079190613e59565b610e1d565b6040516104199190613e93565b60405180910390f35b61043c60048036038101906104379190613f0d565b610e39565b6040516104499190613dba565b60405180910390f35b61046c60048036038101906104679190613dd3565b61104d565b60405161047991906140b7565b60405180910390f35b61049c600480360381019061049791906140d1565b611198565b6040516104a99190613dba565b60405180910390f35b6104cc60048036038101906104c791906140fc565b611410565b005b6104e860048036038101906104e391906140fc565b611432565b005b61050460048036038101906104ff919061413a565b6114ad565b6040516105119190613e93565b60405180910390f35b610534600480360381019061052f9190613dd3565b6114cd565b6040516105419190613cb6565b60405180910390f35b610564600480360381019061055f9190613dd3565b6114f3565b005b61056e61184d565b60405161057b9190614198565b60405180910390f35b61059e60048036038101906105999190613dd3565b611871565b6040516105b399989796959493929190614267565b60405180910390f35b6105c46119d3565b6040516105d19190613dba565b60405180910390f35b6105e26119da565b6040516105ef9190613dba565b60405180910390f35b6106006119df565b60405161060d9190613dba565b60405180910390f35b610630600480360381019061062b91906140fc565b6119e4565b60405161063d9190613b5f565b60405180910390f35b61064e611a47565b60405161065b9190613dba565b60405180910390f35b61067e60048036038101906106799190613dd3565b611a4d565b6040516106939998979695949392919061430f565b60405180910390f35b6106b660048036038101906106b19190613dd3565b611ae1565b005b6106d260048036038101906106cd9190613c05565b611c14565b6040516106df9190613cb6565b60405180910390f35b6106f0611c3e565b6040516106fd9190613e93565b60405180910390f35b610720600480360381019061071b919061439a565b611c44565b005b61072a611d6e565b6040516107379190613dba565b60405180910390f35b61075a600480360381019061075591906143f7565b611d74565b005b610764612196565b6040516107719190613dba565b60405180910390f35b610794600480360381019061078f9190613dd3565b61219c565b005b61079e6124ed565b6040516107ab9190613dba565b60405180910390f35b6107ce60048036038101906107c991906140d1565b6124f3565b005b6107ea60048036038101906107e591906140fc565b612615565b005b6107f4612637565b6040516108019190613e93565b60405180910390f35b61081261265b565b60405161081f9190613dba565b60405180910390f35b610842600480360381019061083d9190613dd3565b612662565b005b61085e60048036038101906108599190613dd3565b61274f565b005b61087a60048036038101906108759190614468565b612ada565b005b610884612d21565b6040516108919190613dba565b60405180910390f35b6108b460048036038101906108af9190613dd3565b612d28565b005b6108d060048036038101906108cb9190613dd3565b612fd3565b6040516108dd9190613cb6565b60405180910390f35b61090060048036038101906108fb9190613dd3565b612ff0565b60405161090d91906145c6565b60405180910390f35b5f7f7965db0b000000000000000000000000000000000000000000000000000000007bffffffffffffffffffffffffffffffffffffffffffffffffffffffff1916827bffffffffffffffffffffffffffffffffffffffffffffffffffffffff191614806109885750610987826131b1565b5b9050919050565b6005602052815f5260405f20602052805f5260405f205f915091509054906101000a900460ff1681565b600160028111156109cd576109cc613c43565b5b60095f8481526020019081526020015f206008015f9054906101000a900460ff166002811115610a00576109ff613c43565b5b14610a40576040517f08c379a0000000000000000000000000000000000000000000000000000000008152600401610a3790614630565b60405180910390fd5b426201518060095f8581526020019081526020015f2060020154610a64919061467b565b10610aa4576040517f08c379a0000000000000000000000000000000000000000000000000000000008152600401610a9b9061471e565b60405180910390fd5b5f6003811115610ab757610ab6613c43565b5b600b5f3373ffffffffffffffffffffffffffffffffffffffff1673ffffffffffffffffffffffffffffffffffffffff1681526020019081526020015f205f8481526020019081526020015f205f9054906101000a900460ff166003811115610b2257610b21613c43565b5b14610b62576040517f08c379a0000000000000000000000000000000000000000000000000000000008152600401610b5990614786565b60405180910390fd5b5f610b6c3361321a565b90505f8111610bb0576040517f08c379a0000000000000000000000000000000000000000000000000000000008152600401610ba7906147ee565b60405180910390fd5b8115610c59578060095f8581526020019081526020015f206005015f828254610bd9919061467b565b925050819055506002600b5f3373ffffffffffffffffffffffffffffffffffffffff1673ffffffffffffffffffffffffffffffffffffffff1681526020019081526020015f205f8581526020019081526020015f205f6101000a81548160ff02191690836003811115610c4f57610c4e613c43565b5b0217905550610cf8565b8060095f8581526020019081526020015f206006015f828254610c7c919061467b565b925050819055506003600b5f3373ffffffffffffffffffffffffffffffffffffffff1673ffffffffffffffffffffffffffffffffffffffff1681526020019081526020015f205f8581526020019081526020015f205f6101000a81548160ff02191690836003811115610cf257610cf1613c43565b5b02179055505b600160095f8581526020019081526020015f206007015f828254610d1c919061467b565b925050819055507ff25c99c527e41d615897c7eaf1a69499a93c929059b2268acc4f773fdfdbb8cc8333604051610d5492919061480c565b60405180910390a1505050565b7f000000000000000000000000000000000000000000000000000000000000000081565b60035481565b6007602052815f5260405f20602052805f5260405f205f915091509054906101000a900460ff1681565b5f600c5f8381526020019081526020015f205f9054906101000a900460ff169050919050565b600c602052805f5260405f205f915054906101000a900460ff1681565b600f5f9054906101000a900473ffffffffffffffffffffffffffffffffffffffff1681565b5f5f5f8381526020019081526020015f20600101549050919050565b5f7f126c7c8716c8f1c7c73a7370c820c7d73a9b4ed0ad633cfce1092f9ff47c8574610e64816132ba565b5f6003549050600160035f828254610e7c919061467b565b9250508190555060405180610120016040528089815260200188888080601f0160208091040260200160405190810160405280939291908181526020018383808284375f81840152601f19601f82011690508083019250505050505050815260200186868080601f0160208091040260200160405190810160405280939291908181526020018383808284375f81840152601f19601f8201169050808301925050505050505081526020015f81526020015f81526020015f81526020014281526020015f815260200160016002811115610f5957610f58613c43565b5b81525060025f8381526020019081526020015f205f820151815f01556020820151816001019081610f8a9190614a54565b506040820151816002019081610fa09190614a54565b50606082015181600301556080820151816004015560a0820151816005015560c0820151816006015560e08201518160070155610100820151816008015f6101000a81548160ff02191690836002811115610ffe57610ffd613c43565b5b02179055509050507f98d85359d4c56c7eaf2486712c329156c582a48e60b4188ba13a7afa45cfff328189604051611037929190614b23565b60405180910390a1809250505095945050505050565b61105561398d565b60095f8381526020019081526020015f20604051806101200160405290815f82015f9054906101000a900473ffffffffffffffffffffffffffffffffffffffff1673ffffffffffffffffffffffffffffffffffffffff1673ffffffffffffffffffffffffffffffffffffffff168152602001600182015481526020016002820154815260200160038201548152602001600482015f9054906101000a900473ffffffffffffffffffffffffffffffffffffffff1673ffffffffffffffffffffffffffffffffffffffff1673ffffffffffffffffffffffffffffffffffffffff168152602001600582015481526020016006820154815260200160078201548152602001600882015f9054906101000a900460ff16600281111561117b5761117a613c43565b5b600281111561118d5761118c613c43565b5b815250509050919050565b5f81806111ca576040517fd92e233d000000000000000000000000000000000000000000000000000000008152600481fd5b5f8373ffffffffffffffffffffffffffffffffffffffff163b11611223576040517f08c379a000000000000000000000000000000000000000000000000000000000815260040161121a90614b94565b60405180910390fd5b5f600a5490506001600a5f82825461123b919061467b565b925050819055506040518061012001604052803373ffffffffffffffffffffffffffffffffffffffff1681526020018281526020014281526020015f81526020018573ffffffffffffffffffffffffffffffffffffffff1681526020015f81526020015f81526020015f8152602001600160028111156112be576112bd613c43565b5b81525060095f8381526020019081526020015f205f820151815f015f6101000a81548173ffffffffffffffffffffffffffffffffffffffff021916908373ffffffffffffffffffffffffffffffffffffffff1602179055506020820151816001015560408201518160020155606082015181600301556080820151816004015f6101000a81548173ffffffffffffffffffffffffffffffffffffffff021916908373ffffffffffffffffffffffffffffffffffffffff16021790555060a0820151816005015560c0820151816006015560e08201518160070155610100820151816008015f6101000a81548160ff021916908360028111156113c3576113c2613c43565b5b02179055509050507f33b5297f9614deaf76d94639de9bd0b538d687334f1d3aff0ccad24bb0fbb9ba8142866040516113fe93929190614bb2565b60405180910390a18092505050919050565b61141982610e1d565b611422816132ba565b61142c83836132ce565b50505050565b61143a6133b7565b73ffffffffffffffffffffffffffffffffffffffff168173ffffffffffffffffffffffffffffffffffffffff161461149e576040517f6697b23200000000000000000000000000000000000000000000000000000000815260040160405180910390fd5b6114a882826133be565b505050565b6004602052815f5260405f20602052805f5260405f205f91509150505481565b5f60065f8381526020019081526020015f205f9054906101000a900460ff169050919050565b60028081111561150657611505613c43565b5b60025f8381526020019081526020015f206008015f9054906101000a900460ff16600281111561153957611538613c43565b5b14611579576040517f08c379a000000000000000000000000000000000000000000000000000000000815260040161157090614c57565b60405180910390fd5b426201518060025f8481526020019081526020015f206007015461159d919061467b565b11156115de576040517f08c379a00000000000000000000000000000000000000000000000000000000081526004016115d590614ce5565b60405180910390fd5b60085460025f8381526020019081526020015f206005015411806116245750426203f48060025f8481526020019081526020015f2060070154611621919061467b565b11155b611663576040517f08c379a000000000000000000000000000000000000000000000000000000000815260040161165a90614d73565b60405180910390fd5b5f60025f8381526020019081526020015f205f0154905060025f8381526020019081526020015f206004015460025f8481526020019081526020015f2060030154111561175f5760025f8381526020019081526020015f205f5f82015f9055600182015f6116d19190613a0e565b600282015f6116e09190613a0e565b600382015f9055600482015f9055600582015f9055600682015f9055600782015f9055600882015f6101000a81549060ff02191690555050600260065f8481526020019081526020015f205f6101000a81548160ff0219169083600381111561174c5761174b613c43565b5b021790555061175a816134a7565b611810565b60025f8381526020019081526020015f205f5f82015f9055600182015f6117869190613a0e565b600282015f6117959190613a0e565b600382015f9055600482015f9055600582015f9055600682015f9055600782015f9055600882015f6101000a81549060ff02191690555050600360065f8481526020019081526020015f205f6101000a81548160ff0219169083600381111561180157611800613c43565b5b021790555061180f81613601565b5b7f5f65ba4221e242e33b7e6330ca9b57400e8d026cf0fd6d7761b8f1be8fbf29388282604051611841929190614b23565b60405180910390a15050565b7f000000000000000000000000000000000000000000000000000000000000000081565b6002602052805f5260405f205f91509050805f0154908060010180546118969061488d565b80601f01602080910402602001604051908101604052809291908181526020018280546118c29061488d565b801561190d5780601f106118e45761010080835404028352916020019161190d565b820191905f5260205f20905b8154815290600101906020018083116118f057829003601f168201915b5050505050908060020180546119229061488d565b80601f016020809104026020016040519081016040528092919081815260200182805461194e9061488d565b80156119995780601f1061197057610100808354040283529160200191611999565b820191905f5260205f20905b81548152906001019060200180831161197c57829003601f168201915b505050505090806003015490806004015490806005015490806006015490806007015490806008015f9054906101000a900460ff16905089565b6201518081565b600a81565b606481565b5f5f5f8481526020019081526020015f205f015f8373ffffffffffffffffffffffffffffffffffffffff1673ffffffffffffffffffffffffffffffffffffffff1681526020019081526020015f205f9054906101000a900460ff16905092915050565b600d5481565b6009602052805f5260405f205f91509050805f015f9054906101000a900473ffffffffffffffffffffffffffffffffffffffff1690806001015490806002015490806003015490806004015f9054906101000a900473ffffffffffffffffffffffffffffffffffffffff1690806005015490806006015490806007015490806008015f9054906101000a900460ff16905089565b60016002811115611af557611af4613c43565b5b60095f8381526020019081526020015f206008015f9054906101000a900460ff166002811115611b2857611b27613c43565b5b14611b68576040517f08c379a0000000000000000000000000000000000000000000000000000000008152600401611b5f90614630565b60405180910390fd5b3373ffffffffffffffffffffffffffffffffffffffff1660095f8381526020019081526020015f205f015f9054906101000a900473ffffffffffffffffffffffffffffffffffffffff1673ffffffffffffffffffffffffffffffffffffffff1614611c08576040517f08c379a0000000000000000000000000000000000000000000000000000000008152600401611bff90614e01565b60405180910390fd5b611c118161375b565b50565b600b602052815f5260405f20602052805f5260405f205f915091509054906101000a900460ff1681565b5f5f1b81565b8181600e604051602001611c589190614ea9565b604051602081830303815290604052805190602001208282604051602001611c81929190614ef1565b6040516020818303038152906040528051906020012014611cd7576040517f08c379a0000000000000000000000000000000000000000000000000000000008152600401611cce90614f53565b60405180910390fd5b60016002811115611ceb57611cea613c43565b5b60095f8781526020019081526020015f206008015f9054906101000a900460ff166002811115611d1e57611d1d613c43565b5b14611d5e576040517f08c379a0000000000000000000000000000000000000000000000000000000008152600401611d5590614630565b60405180910390fd5b611d678561375b565b5050505050565b60085481565b600280811115611d8757611d86613c43565b5b60025f8681526020019081526020015f206008015f9054906101000a900460ff166002811115611dba57611db9613c43565b5b14611ecf5760016002811115611dd357611dd2613c43565b5b60025f8681526020019081526020015f206008015f9054906101000a900460ff166002811115611e0657611e05613c43565b5b148015611e355750426203f48060025f8781526020019081526020015f2060060154611e32919061467b565b11155b15611e93576002805f8681526020019081526020015f206008015f6101000a81548160ff02191690836002811115611e7057611e6f613c43565b5b02179055504260025f8681526020019081526020015f2060070181905550611ece565b6040517f08c379a0000000000000000000000000000000000000000000000000000000008152600401611ec590614fe1565b60405180910390fd5b5b60016003811115611ee357611ee2613c43565b5b60055f3373ffffffffffffffffffffffffffffffffffffffff1673ffffffffffffffffffffffffffffffffffffffff1681526020019081526020015f205f8681526020019081526020015f205f9054906101000a900460ff166003811115611f4e57611f4d613c43565b5b14611f8e576040517f08c379a0000000000000000000000000000000000000000000000000000000008152600401611f859061506f565b60405180910390fd5b5f838383604051602001611fa4939291906150d2565b6040516020818303038152906040528051906020012090508060045f8781526020019081526020015f205f3373ffffffffffffffffffffffffffffffffffffffff1673ffffffffffffffffffffffffffffffffffffffff1681526020019081526020015f20541461204a576040517f08c379a000000000000000000000000000000000000000000000000000000000815260040161204190615145565b60405180910390fd5b5f6120543361321a565b9050600160025f8881526020019081526020015f206005015f82825461207a919061467b565b92505081905550841561212a578060025f8881526020019081526020015f206003015f8282546120aa919061467b565b92505081905550600260055f3373ffffffffffffffffffffffffffffffffffffffff1673ffffffffffffffffffffffffffffffffffffffff1681526020019081526020015f205f8881526020019081526020015f205f6101000a81548160ff021916908360038111156121205761211f613c43565b5b0217905550612155565b8060025f8881526020019081526020015f206004015f82825461214d919061467b565b925050819055505b7f3d360ccf242c6e6640f1d15b88f9e836f5e528d14e0ba332eccff4e83c705897863360405161218692919061480c565b60405180910390a1505050505050565b600a5481565b6002808111156121af576121ae613c43565b5b60095f8381526020019081526020015f206008015f9054906101000a900460ff1660028111156121e2576121e1613c43565b5b14612222576040517f08c379a0000000000000000000000000000000000000000000000000000000008152600401612219906151ad565b60405180910390fd5b426201518060095f8481526020019081526020015f2060030154612246919061467b565b10612286576040517f08c379a000000000000000000000000000000000000000000000000000000000815260040161227d9061523b565b60405180910390fd5b5f60095f8381526020019081526020015f206004015f9054906101000a900473ffffffffffffffffffffffffffffffffffffffff16905060095f8381526020019081526020015f205f5f82015f6101000a81549073ffffffffffffffffffffffffffffffffffffffff0219169055600182015f9055600282015f9055600382015f9055600482015f6101000a81549073ffffffffffffffffffffffffffffffffffffffff0219169055600582015f9055600682015f9055600782015f9055600882015f6101000a81549060ff021916905550505f600f5f9054906101000a900473ffffffffffffffffffffffffffffffffffffffff1673ffffffffffffffffffffffffffffffffffffffff16826040516024016123a3919061527c565b6040516020818303038152906040527f4f1ef286000000000000000000000000000000000000000000000000000000007bffffffffffffffffffffffffffffffffffffffffffffffffffffffff19166020820180517bffffffffffffffffffffffffffffffffffffffffffffffffffffffff838183161783525050505060405161242d91906152ec565b5f604051808303815f865af19150503d805f8114612466576040519150601f19603f3d011682016040523d82523d5f602084013e61246b565b606091505b50509050806124af576040517f08c379a00000000000000000000000000000000000000000000000000000000081526004016124a690615372565b60405180910390fd5b7f9c85b616f29fca57a17eafe71cf9ff82ffef41766e2cf01ea7f8f7878dd3ec2483836040516124e092919061480c565b60405180910390a1505050565b6101f481565b7f126c7c8716c8f1c7c73a7370c820c7d73a9b4ed0ad633cfce1092f9ff47c857461251d816132ba565b60015f9054906101000a900460ff161561256c576040517f08c379a0000000000000000000000000000000000000000000000000000000008152600401612563906153da565b60405180910390fd5b6001805f6101000a81548160ff02191690831515021790555081600f5f6101000a81548173ffffffffffffffffffffffffffffffffffffffff021916908373ffffffffffffffffffffffffffffffffffffffff1602179055506126107f126c7c8716c8f1c7c73a7370c820c7d73a9b4ed0ad633cfce1092f9ff47c8574600f5f9054906101000a900473ffffffffffffffffffffffffffffffffffffffff166132ce565b505050565b61261e82610e1d565b612627816132ba565b61263183836133be565b50505050565b7f126c7c8716c8f1c7c73a7370c820c7d73a9b4ed0ad633cfce1092f9ff47c857481565b6201518081565b7f126c7c8716c8f1c7c73a7370c820c7d73a9b4ed0ad633cfce1092f9ff47c857461268c816132ba565b5f60025f8481526020019081526020015f205f0154905060025f8481526020019081526020015f205f5f82015f9055600182015f6126ca9190613a0e565b600282015f6126d99190613a0e565b600382015f9055600482015f9055600582015f9055600682015f9055600782015f9055600882015f6101000a81549060ff021916905550507f5f65ba4221e242e33b7e6330ca9b57400e8d026cf0fd6d7761b8f1be8fbf29388382604051612742929190614b23565b60405180910390a1505050565b6001600281111561276357612762613c43565b5b60095f8381526020019081526020015f206008015f9054906101000a900460ff16600281111561279657612795613c43565b5b146127d6576040517f08c379a00000000000000000000000000000000000000000000000000000000081526004016127cd90614630565b60405180910390fd5b426203f48060095f8481526020019081526020015f20600201546127fa919061467b565b1061283a576040517f08c379a000000000000000000000000000000000000000000000000000000000815260040161283190615468565b60405180910390fd5b600d5460095f8381526020019081526020015f206007015411612892576040517f08c379a0000000000000000000000000000000000000000000000000000000008152600401612889906154d0565b60405180910390fd5b5f60095f8381526020019081526020015f206004015f9054906101000a900473ffffffffffffffffffffffffffffffffffffffff16905060095f8381526020019081526020015f206006015460095f8481526020019081526020015f206005015411156129c7576002600c5f8481526020019081526020015f205f6101000a81548160ff0219169083600381111561292d5761292c613c43565b5b0217905550600260095f8481526020019081526020015f206008015f6101000a81548160ff0219169083600281111561296957612968613c43565b5b02179055504260095f8481526020019081526020015f20600301819055507fd3c21af5ef5c287063d752a7b40fd9bdb1259c5c110871df98096fe3157153e98282426040516129ba939291906154ee565b60405180910390a1612ad6565b60095f8381526020019081526020015f205f5f82015f6101000a81549073ffffffffffffffffffffffffffffffffffffffff0219169055600182015f9055600282015f9055600382015f9055600482015f6101000a81549073ffffffffffffffffffffffffffffffffffffffff0219169055600582015f9055600682015f9055600782015f9055600882015f6101000a81549060ff021916905550506003600c5f8481526020019081526020015f205f6101000a81548160ff02191690836003811115612a9757612a96613c43565b5b02179055507fd0d7ba8ba064e1cb0f146d6b7fdfe15f979ab360b7f658f7a25af8c6a390a1ce8282604051612acd92919061480c565b60405180910390a15b5050565b60016002811115612aee57612aed613c43565b5b60025f8481526020019081526020015f206008015f9054906101000a900460ff166002811115612b2157612b20613c43565b5b14612b61576040517f08c379a0000000000000000000000000000000000000000000000000000000008152600401612b5890615593565b60405180910390fd5b5f6003811115612b7457612b73613c43565b5b60055f3373ffffffffffffffffffffffffffffffffffffffff1673ffffffffffffffffffffffffffffffffffffffff1681526020019081526020015f205f8481526020019081526020015f205f9054906101000a900460ff166003811115612bdf57612bde613c43565b5b14612c1f576040517f08c379a0000000000000000000000000000000000000000000000000000000008152600401612c1690614786565b60405180910390fd5b600160055f3373ffffffffffffffffffffffffffffffffffffffff1673ffffffffffffffffffffffffffffffffffffffff1681526020019081526020015f205f8481526020019081526020015f205f6101000a81548160ff02191690836003811115612c8e57612c8d613c43565b5b02179055508060045f8481526020019081526020015f205f3373ffffffffffffffffffffffffffffffffffffffff1673ffffffffffffffffffffffffffffffffffffffff1681526020019081526020015f20819055507f6dbf5694b1cc7d094d6a20621e226f4018245353015fad1092790e2dfe8aaca98233604051612d1592919061480c565b60405180910390a15050565b6203f48081565b338160075f8373ffffffffffffffffffffffffffffffffffffffff1673ffffffffffffffffffffffffffffffffffffffff1681526020019081526020015f205f8281526020019081526020015f205f9054906101000a900460ff1615612dc3576040517f08c379a0000000000000000000000000000000000000000000000000000000008152600401612dba90615621565b60405180910390fd5b5f6003811115612dd657612dd5613c43565b5b60055f3373ffffffffffffffffffffffffffffffffffffffff1673ffffffffffffffffffffffffffffffffffffffff1681526020019081526020015f205f8581526020019081526020015f205f9054906101000a900460ff166003811115612e4157612e40613c43565b5b03612e81576040517f08c379a0000000000000000000000000000000000000000000000000000000008152600401612e7890615689565b60405180910390fd5b600160075f3373ffffffffffffffffffffffffffffffffffffffff1673ffffffffffffffffffffffffffffffffffffffff1681526020019081526020015f205f8581526020019081526020015f205f6101000a81548160ff02191690831515021790555060055f3373ffffffffffffffffffffffffffffffffffffffff1673ffffffffffffffffffffffffffffffffffffffff1681526020019081526020015f205f8481526020019081526020015f205f9054906101000a900460ff166003811115612f5057612f4f613c43565b5b60065f8581526020019081526020015f205f9054906101000a900460ff166003811115612f8057612f7f613c43565b5b03612f9357612f8e33613831565b612fce565b6040517f08c379a0000000000000000000000000000000000000000000000000000000008152600401612fc5906156f1565b60405180910390fd5b505050565b6006602052805f5260405f205f915054906101000a900460ff1681565b612ff8613a4b565b60025f8381526020019081526020015f20604051806101200160405290815f820154815260200160018201805461302e9061488d565b80601f016020809104026020016040519081016040528092919081815260200182805461305a9061488d565b80156130a55780601f1061307c576101008083540402835291602001916130a5565b820191905f5260205f20905b81548152906001019060200180831161308857829003601f168201915b505050505081526020016002820180546130be9061488d565b80601f01602080910402602001604051908101604052809291908181526020018280546130ea9061488d565b80156131355780601f1061310c57610100808354040283529160200191613135565b820191905f5260205f20905b81548152906001019060200180831161311857829003601f168201915b505050505081526020016003820154815260200160048201548152602001600582015481526020016006820154815260200160078201548152602001600882015f9054906101000a900460ff16600281111561319457613193613c43565b5b60028111156131a6576131a5613c43565b5b815250509050919050565b5f7f01ffc9a7000000000000000000000000000000000000000000000000000000007bffffffffffffffffffffffffffffffffffffffffffffffffffffffff1916827bffffffffffffffffffffffffffffffffffffffffffffffffffffffff1916149050919050565b5f7f000000000000000000000000000000000000000000000000000000000000000073ffffffffffffffffffffffffffffffffffffffff166370a08231836040518263ffffffff1660e01b81526004016132749190613e0d565b602060405180830381865afa15801561328f573d5f5f3e3d5ffd5b505050506040513d601f19601f820116820180604052508101906132b39190615723565b9050919050565b6132cb816132c66133b7565b61393c565b50565b5f6132d983836119e4565b6133ad5760015f5f8581526020019081526020015f205f015f8473ffffffffffffffffffffffffffffffffffffffff1673ffffffffffffffffffffffffffffffffffffffff1681526020019081526020015f205f6101000a81548160ff02191690831515021790555061334a6133b7565b73ffffffffffffffffffffffffffffffffffffffff168273ffffffffffffffffffffffffffffffffffffffff16847f2f8788117e7eff1d82e926ec794901d17c78024a50270940304540a733656f0d60405160405180910390a4600190506133b1565b5f90505b92915050565b5f33905090565b5f6133c983836119e4565b1561349d575f5f5f8581526020019081526020015f205f015f8473ffffffffffffffffffffffffffffffffffffffff1673ffffffffffffffffffffffffffffffffffffffff1681526020019081526020015f205f6101000a81548160ff02191690831515021790555061343a6133b7565b73ffffffffffffffffffffffffffffffffffffffff168273ffffffffffffffffffffffffffffffffffffffff16847ff6391f5c32d9c69d2a47ea670b442974b53935d1edc7fd64eb21e047a839171b60405160405180910390a4600190506134a1565b5f90505b92915050565b5f600f5f9054906101000a900473ffffffffffffffffffffffffffffffffffffffff1673ffffffffffffffffffffffffffffffffffffffff16826040516024016134f19190613dba565b6040516020818303038152906040527f223ed1dd000000000000000000000000000000000000000000000000000000007bffffffffffffffffffffffffffffffffffffffffffffffffffffffff19166020820180517bffffffffffffffffffffffffffffffffffffffffffffffffffffffff838183161783525050505060405161357b91906152ec565b5f604051808303815f865af19150503d805f81146135b4576040519150601f19603f3d011682016040523d82523d5f602084013e6135b9565b606091505b50509050806135fd576040517f08c379a00000000000000000000000000000000000000000000000000000000081526004016135f490615798565b60405180910390fd5b5050565b5f600f5f9054906101000a900473ffffffffffffffffffffffffffffffffffffffff1673ffffffffffffffffffffffffffffffffffffffff168260405160240161364b9190613dba565b6040516020818303038152906040527f5187b7a0000000000000000000000000000000000000000000000000000000007bffffffffffffffffffffffffffffffffffffffffffffffffffffffff19166020820180517bffffffffffffffffffffffffffffffffffffffffffffffffffffffff83818316178352505050506040516136d591906152ec565b5f604051808303815f865af19150503d805f811461370e576040519150601f19603f3d011682016040523d82523d5f602084013e613713565b606091505b5050905080613757576040517f08c379a000000000000000000000000000000000000000000000000000000000815260040161374e90615800565b60405180910390fd5b5050565b60095f8281526020019081526020015f205f5f82015f6101000a81549073ffffffffffffffffffffffffffffffffffffffff0219169055600182015f9055600282015f9055600382015f9055600482015f6101000a81549073ffffffffffffffffffffffffffffffffffffffff0219169055600582015f9055600682015f9055600782015f9055600882015f6101000a81549060ff021916905550507f789cf55be980739dad1d0699b93b58e806b51c9d96619bfa8fe0a28abaa7b30c816040516138269190613dba565b60405180910390a150565b5f60014361383f919061581e565b404283604051602001613854939291906158d6565b604051602081830303815290604052805190602001205f1c60ff169050600a811015613901577f000000000000000000000000000000000000000000000000000000000000000073ffffffffffffffffffffffffffffffffffffffff166374e4fe36836040518263ffffffff1660e01b81526004016138d39190613e0d565b5f604051808303815f87803b1580156138ea575f5ffd5b505af11580156138fc573d5f5f3e3d5ffd5b505050505b7f50a76bf3b663b76d774ece1923da131b8e960e3ca9442ab303d45428b87743a1826040516139309190613e0d565b60405180910390a15050565b61394682826119e4565b6139895780826040517fe2517d3f000000000000000000000000000000000000000000000000000000008152600401613980929190615912565b60405180910390fd5b5050565b6040518061012001604052805f73ffffffffffffffffffffffffffffffffffffffff1681526020015f81526020015f81526020015f81526020015f73ffffffffffffffffffffffffffffffffffffffff1681526020015f81526020015f81526020015f81526020015f6002811115613a0857613a07613c43565b5b81525090565b508054613a1a9061488d565b5f825580601f10613a2b5750613a48565b601f0160209004905f5260205f2090810190613a479190613aa2565b5b50565b6040518061012001604052805f815260200160608152602001606081526020015f81526020015f81526020015f81526020015f81526020015f81526020015f6002811115613a9c57613a9b613c43565b5b81525090565b5b80821115613ab9575f815f905550600101613aa3565b5090565b5f5ffd5b5f5ffd5b5f7fffffffff0000000000000000000000000000000000000000000000000000000082169050919050565b613af981613ac5565b8114613b03575f5ffd5b50565b5f81359050613b1481613af0565b92915050565b5f60208284031215613b2f57613b2e613abd565b5b5f613b3c84828501613b06565b91505092915050565b5f8115159050919050565b613b5981613b45565b82525050565b5f602082019050613b725f830184613b50565b92915050565b5f73ffffffffffffffffffffffffffffffffffffffff82169050919050565b5f613ba182613b78565b9050919050565b613bb181613b97565b8114613bbb575f5ffd5b50565b5f81359050613bcc81613ba8565b92915050565b5f819050919050565b613be481613bd2565b8114613bee575f5ffd5b50565b5f81359050613bff81613bdb565b92915050565b5f5f60408385031215613c1b57613c1a613abd565b5b5f613c2885828601613bbe565b9250506020613c3985828601613bf1565b9150509250929050565b7f4e487b71000000000000000000000000000000000000000000000000000000005f52602160045260245ffd5b60048110613c8157613c80613c43565b5b50565b5f819050613c9182613c70565b919050565b5f613ca082613c84565b9050919050565b613cb081613c96565b82525050565b5f602082019050613cc95f830184613ca7565b92915050565b613cd881613b45565b8114613ce2575f5ffd5b50565b5f81359050613cf381613ccf565b92915050565b5f5f60408385031215613d0f57613d0e613abd565b5b5f613d1c85828601613bf1565b9250506020613d2d85828601613ce5565b9150509250929050565b5f819050919050565b5f613d5a613d55613d5084613b78565b613d37565b613b78565b9050919050565b5f613d6b82613d40565b9050919050565b5f613d7c82613d61565b9050919050565b613d8c81613d72565b82525050565b5f602082019050613da55f830184613d83565b92915050565b613db481613bd2565b82525050565b5f602082019050613dcd5f830184613dab565b92915050565b5f60208284031215613de857613de7613abd565b5b5f613df584828501613bf1565b91505092915050565b613e0781613b97565b82525050565b5f602082019050613e205f830184613dfe565b92915050565b5f819050919050565b613e3881613e26565b8114613e42575f5ffd5b50565b5f81359050613e5381613e2f565b92915050565b5f60208284031215613e6e57613e6d613abd565b5b5f613e7b84828501613e45565b91505092915050565b613e8d81613e26565b82525050565b5f602082019050613ea65f830184613e84565b92915050565b5f5ffd5b5f5ffd5b5f5ffd5b5f5f83601f840112613ecd57613ecc613eac565b5b8235905067ffffffffffffffff811115613eea57613ee9613eb0565b5b602083019150836001820283011115613f0657613f05613eb4565b5b9250929050565b5f5f5f5f5f60608688031215613f2657613f25613abd565b5b5f613f3388828901613bf1565b955050602086013567ffffffffffffffff811115613f5457613f53613ac1565b5b613f6088828901613eb8565b9450945050604086013567ffffffffffffffff811115613f8357613f82613ac1565b5b613f8f88828901613eb8565b92509250509295509295909350565b613fa781613b97565b82525050565b613fb681613bd2565b82525050565b60038110613fcd57613fcc613c43565b5b50565b5f819050613fdd82613fbc565b919050565b5f613fec82613fd0565b9050919050565b613ffc81613fe2565b82525050565b61012082015f8201516140175f850182613f9e565b50602082015161402a6020850182613fad565b50604082015161403d6040850182613fad565b5060608201516140506060850182613fad565b5060808201516140636080850182613f9e565b5060a082015161407660a0850182613fad565b5060c082015161408960c0850182613fad565b5060e082015161409c60e0850182613fad565b506101008201516140b1610100850182613ff3565b50505050565b5f610120820190506140cb5f830184614002565b92915050565b5f602082840312156140e6576140e5613abd565b5b5f6140f384828501613bbe565b91505092915050565b5f5f6040838503121561411257614111613abd565b5b5f61411f85828601613e45565b925050602061413085828601613bbe565b9150509250929050565b5f5f604083850312156141505761414f613abd565b5b5f61415d85828601613bf1565b925050602061416e85828601613bbe565b9150509250929050565b5f61418282613d61565b9050919050565b61419281614178565b82525050565b5f6020820190506141ab5f830184614189565b92915050565b5f81519050919050565b5f82825260208201905092915050565b8281835e5f83830152505050565b5f601f19601f8301169050919050565b5f6141f3826141b1565b6141fd81856141bb565b935061420d8185602086016141cb565b614216816141d9565b840191505092915050565b6003811061423257614231613c43565b5b50565b5f81905061424282614221565b919050565b5f61425182614235565b9050919050565b61426181614247565b82525050565b5f6101208201905061427b5f83018c613dab565b818103602083015261428d818b6141e9565b905081810360408301526142a1818a6141e9565b90506142b06060830189613dab565b6142bd6080830188613dab565b6142ca60a0830187613dab565b6142d760c0830186613dab565b6142e460e0830185613dab565b6142f2610100830184614258565b9a9950505050505050505050565b61430981613fe2565b82525050565b5f610120820190506143235f83018c613dfe565b614330602083018b613dab565b61433d604083018a613dab565b61434a6060830189613dab565b6143576080830188613dfe565b61436460a0830187613dab565b61437160c0830186613dab565b61437e60e0830185613dab565b61438c610100830184614300565b9a9950505050505050505050565b5f5f5f604084860312156143b1576143b0613abd565b5b5f6143be86828701613bf1565b935050602084013567ffffffffffffffff8111156143df576143de613ac1565b5b6143eb86828701613eb8565b92509250509250925092565b5f5f5f5f6060858703121561440f5761440e613abd565b5b5f61441c87828801613bf1565b945050602061442d87828801613ce5565b935050604085013567ffffffffffffffff81111561444e5761444d613ac1565b5b61445a87828801613eb8565b925092505092959194509250565b5f5f6040838503121561447e5761447d613abd565b5b5f61448b85828601613bf1565b925050602061449c85828601613e45565b9150509250929050565b5f82825260208201905092915050565b5f6144c0826141b1565b6144ca81856144a6565b93506144da8185602086016141cb565b6144e3816141d9565b840191505092915050565b6144f781614247565b82525050565b5f61012083015f8301516145135f860182613fad565b506020830151848203602086015261452b82826144b6565b9150506040830151848203604086015261454582826144b6565b915050606083015161455a6060860182613fad565b50608083015161456d6080860182613fad565b5060a083015161458060a0860182613fad565b5060c083015161459360c0860182613fad565b5060e08301516145a660e0860182613fad565b506101008301516145bb6101008601826144ee565b508091505092915050565b5f6020820190508181035f8301526145de81846144fd565b905092915050565b7f50726f706f73616c206973206e6f7420616374697665000000000000000000005f82015250565b5f61461a6016836141bb565b9150614625826145e6565b602082019050919050565b5f6020820190508181035f8301526146478161460e565b9050919050565b7f4e487b71000000000000000000000000000000000000000000000000000000005f52601160045260245ffd5b5f61468582613bd2565b915061469083613bd2565b92508282019050808211156146a8576146a761464e565b5b92915050565b7f50726f706f73616c206973206e6f7420726561647920746f20626520766f74655f8201527f6400000000000000000000000000000000000000000000000000000000000000602082015250565b5f6147086021836141bb565b9150614713826146ae565b604082019050919050565b5f6020820190508181035f830152614735816146fc565b9050919050565b7f596f75206861766520616c726561647920766f746564000000000000000000005f82015250565b5f6147706016836141bb565b915061477b8261473c565b602082019050919050565b5f6020820190508181035f83015261479d81614764565b9050919050565b7f596f752068617665206e6f20766f74696e6720706f77657200000000000000005f82015250565b5f6147d86018836141bb565b91506147e3826147a4565b602082019050919050565b5f6020820190508181035f830152614805816147cc565b9050919050565b5f60408201905061481f5f830185613dab565b61482c6020830184613dfe565b9392505050565b7f4e487b71000000000000000000000000000000000000000000000000000000005f52604160045260245ffd5b7f4e487b71000000000000000000000000000000000000000000000000000000005f52602260045260245ffd5b5f60028204905060018216806148a457607f821691505b6020821081036148b7576148b6614860565b5b50919050565b5f819050815f5260205f209050919050565b5f6020601f8301049050919050565b5f82821b905092915050565b5f600883026149197fffffffffffffffffffffffffffffffffffffffffffffffffffffffffffffffff826148de565b61492386836148de565b95508019841693508086168417925050509392505050565b5f61495561495061494b84613bd2565b613d37565b613bd2565b9050919050565b5f819050919050565b61496e8361493b565b61498261497a8261495c565b8484546148ea565b825550505050565b5f5f905090565b61499961498a565b6149a4818484614965565b505050565b5b818110156149c7576149bc5f82614991565b6001810190506149aa565b5050565b601f821115614a0c576149dd816148bd565b6149e6846148cf565b810160208510156149f5578190505b614a09614a01856148cf565b8301826149a9565b50505b505050565b5f82821c905092915050565b5f614a2c5f1984600802614a11565b1980831691505092915050565b5f614a448383614a1d565b9150826002028217905092915050565b614a5d826141b1565b67ffffffffffffffff811115614a7657614a75614833565b5b614a80825461488d565b614a8b8282856149cb565b5f60209050601f831160018114614abc575f8415614aaa578287015190505b614ab48582614a39565b865550614b1b565b601f198416614aca866148bd565b5f5b82811015614af157848901518255600182019150602085019450602081019050614acc565b86831015614b0e5784890151614b0a601f891682614a1d565b8355505b6001600288020188555050505b505050505050565b5f604082019050614b365f830185613dab565b614b436020830184613dab565b9392505050565b7f546865206e65772073686f70206164647265737320697320696e76616c6964005f82015250565b5f614b7e601f836141bb565b9150614b8982614b4a565b602082019050919050565b5f6020820190508181035f830152614bab81614b72565b9050919050565b5f606082019050614bc55f830186613dab565b614bd26020830185613dab565b614bdf6040830184613dfe565b949350505050565b7f44697370757465206973206e6f7420696e2072657665616c696e6720706861735f8201527f6500000000000000000000000000000000000000000000000000000000000000602082015250565b5f614c416021836141bb565b9150614c4c82614be7565b604082019050919050565b5f6020820190508181035f830152614c6e81614c35565b9050919050565b7f4d696e696d756d2072657665616c696e672074696d65206861736e277420656c5f8201527f6170736564000000000000000000000000000000000000000000000000000000602082015250565b5f614ccf6025836141bb565b9150614cda82614c75565b604082019050919050565b5f6020820190508181035f830152614cfc81614cc3565b9050919050565b7f436f6e646974696f6e7320666f7220656e64696e6720646973707574652061725f8201527f65206e6f74206d65740000000000000000000000000000000000000000000000602082015250565b5f614d5d6029836141bb565b9150614d6882614d03565b604082019050919050565b5f6020820190508181035f830152614d8a81614d51565b9050919050565b7f596f7520617265206e6f74207468652063726561746f72206f662074686520705f8201527f726f706f73616c00000000000000000000000000000000000000000000000000602082015250565b5f614deb6027836141bb565b9150614df682614d91565b604082019050919050565b5f6020820190508181035f830152614e1881614ddf565b9050919050565b5f81905092915050565b5f8154614e358161488d565b614e3f8186614e1f565b9450600182165f8114614e595760018114614e6e57614ea0565b60ff1983168652811515820286019350614ea0565b614e77856148bd565b5f5b83811015614e9857815481890152600182019150602081019050614e79565b838801955050505b50505092915050565b5f614eb48284614e29565b915081905092915050565b828183375f83830152505050565b5f614ed88385614e1f565b9350614ee5838584614ebf565b82840190509392505050565b5f614efd828486614ecd565b91508190509392505050565b7f556e617574686f72697a656400000000000000000000000000000000000000005f82015250565b5f614f3d600c836141bb565b9150614f4882614f09565b602082019050919050565b5f6020820190508181035f830152614f6a81614f31565b9050919050565b7f436f6e646974696f6e7320666f7220616476616e63696e6720746f20726576655f8201527f616c696e6720706861736520617265206e6f74206d6574000000000000000000602082015250565b5f614fcb6037836141bb565b9150614fd682614f71565b604082019050919050565b5f6020820190508181035f830152614ff881614fbf565b9050919050565b7f596f752063757272656e746c792068617665206e6f20766f746520746f2072655f8201527f7665616c00000000000000000000000000000000000000000000000000000000602082015250565b5f6150596024836141bb565b915061506482614fff565b604082019050919050565b5f6020820190508181035f8301526150868161504d565b9050919050565b5f8160f81b9050919050565b5f6150a38261508d565b9050919050565b5f6150b482615099565b9050919050565b6150cc6150c782613b45565b6150aa565b82525050565b5f6150dd82866150bb565b6001820191506150ee828486614ecd565b9150819050949350505050565b7f496e76616c696420766f746520686173680000000000000000000000000000005f82015250565b5f61512f6011836141bb565b915061513a826150fb565b602082019050919050565b5f6020820190508181035f83015261515c81615123565b9050919050565b7f50726f706f73616c206973206e6f7420706173736564000000000000000000005f82015250565b5f6151976016836141bb565b91506151a282615163565b602082019050919050565b5f6020820190508181035f8301526151c48161518b565b9050919050565b7f50726f706f73616c206973206e6f7420726561647920746f20626520657865635f8201527f7574656400000000000000000000000000000000000000000000000000000000602082015250565b5f6152256024836141bb565b9150615230826151cb565b604082019050919050565b5f6020820190508181035f83015261525281615219565b9050919050565b50565b5f6152675f836141bb565b915061527282615259565b5f82019050919050565b5f60408201905061528f5f830184613dfe565b81810360208301526152a08161525c565b905092915050565b5f81519050919050565b5f81905092915050565b5f6152c6826152a8565b6152d081856152b2565b93506152e08185602086016141cb565b80840191505092915050565b5f6152f782846152bc565b915081905092915050565b7f75706772616465546f416e6443616c6c28616464726573732c627974657329205f8201527f63616c6c206661696c6564000000000000000000000000000000000000000000602082015250565b5f61535c602b836141bb565b915061536782615302565b604082019050919050565b5f6020820190508181035f83015261538981615350565b9050919050565b7f53686f70206164647265737320616c72656164792073657400000000000000005f82015250565b5f6153c46018836141bb565b91506153cf82615390565b602082019050919050565b5f6020820190508181035f8301526153f1816153b8565b9050919050565b7f50726f706f73616c206973206e6f7420726561647920746f206265207265736f5f8201527f6c76656400000000000000000000000000000000000000000000000000000000602082015250565b5f6154526024836141bb565b915061545d826153f8565b604082019050919050565b5f6020820190508181035f83015261547f81615446565b9050919050565b7f4e6f7420656e6f75676820766f746572730000000000000000000000000000005f82015250565b5f6154ba6011836141bb565b91506154c582615486565b602082019050919050565b5f6020820190508181035f8301526154e7816154ae565b9050919050565b5f6060820190506155015f830186613dab565b61550e6020830185613dfe565b61551b6040830184613dab565b949350505050565b7f44697370757465206973206e6f7420696e20636f6d6d697474696e67207068615f8201527f7365000000000000000000000000000000000000000000000000000000000000602082015250565b5f61557d6022836141bb565b915061558882615523565b604082019050919050565b5f6020820190508181035f8301526155aa81615571565b9050919050565b7f557365722063616e6e6f7420636865636b20746865206c6f7474657279206d6f5f8201527f7265207468616e20312074696d65207065722064697370757465000000000000602082015250565b5f61560b603a836141bb565b9150615616826155b1565b604082019050919050565b5f6020820190508181035f830152615638816155ff565b9050919050565b7f55736572206469646e277420766f7465000000000000000000000000000000005f82015250565b5f6156736010836141bb565b915061567e8261563f565b602082019050919050565b5f6020820190508181035f8301526156a081615667565b9050919050565b7f5573657220766f74656420666f72207468652077726f6e6720736964650000005f82015250565b5f6156db601d836141bb565b91506156e6826156a7565b602082019050919050565b5f6020820190508181035f830152615708816156cf565b9050919050565b5f8151905061571d81613bdb565b92915050565b5f6020828403121561573857615737613abd565b5b5f6157458482850161570f565b91505092915050565b7f72657475726e4974656d2875696e74323536292063616c6c206661696c6564005f82015250565b5f615782601f836141bb565b915061578d8261574e565b602082019050919050565b5f6020820190508181035f8301526157af81615776565b9050919050565b7f656e64446973707574652875696e74323536292063616c6c206661696c6564005f82015250565b5f6157ea601f836141bb565b91506157f5826157b6565b602082019050919050565b5f6020820190508181035f830152615817816157de565b9050919050565b5f61582882613bd2565b915061583383613bd2565b925082820390508181111561584b5761584a61464e565b5b92915050565b5f819050919050565b61586b61586682613e26565b615851565b82525050565b5f819050919050565b61588b61588682613bd2565b615871565b82525050565b5f8160601b9050919050565b5f6158a782615891565b9050919050565b5f6158b88261589d565b9050919050565b6158d06158cb82613b97565b6158ae565b82525050565b5f6158e1828661585a565b6020820191506158f1828561587a565b60208201915061590182846158bf565b601482019150819050949350505050565b5f6040820190506159255f830185613dfe565b6159326020830184613e84565b939250505056fea2646970667358221220ce15eb37651b292488736622d3931d5a1f1fb001188c534cb6134737553221fe64736f6c634300081e0033","linkReferences":{}},"methodIdentifiers":{"CONTROL_ROLE()":"d7a1e6ab","COOL_NFT_CONTRACT()":"0a574929","DEFAULT_ADMIN_ROLE()":"a217fddf","DEFAULT_DISPUTE_QUORUM()":"8a1ea3c8","DEFAULT_PROPOSAL_QUORUM()":"c35574dd","FPT_CONTRACT()":"563a5112","PROPOSAL_EXECUTION_DELAY()":"65e62fa4","PROPOSAL_REVIEW_TIME()":"dae4739a","PROPOSAL_VOTING_TIME()":"e53b6ab7","THRESHOLD()":"785ffb37","cancelDispute(uint256)":"df02935c","cancelProposal(uint256,string)":"a351f615","cancelProposalByCreator(uint256)":"9fb3d489","castVoteOnProposal(uint256,bool)":"09288797","checkLottery(uint256)":"f43acb52","commitVoteOnDispute(uint256,bytes32)":"e17e458c","commitsOnDisputes(uint256,address)":"39704092","disputeQuorum()":"a9ded81c","disputeResult(uint256)":"fdd1f754","disputes(uint256)":"564a565d","endDispute(uint256)":"5187b7a0","executePassedProposal(uint256)":"c1eab341","getRoleAdmin(bytes32)":"248a9ca3","grantRole(bytes32,address)":"2f2ff15d","hasCheckedLottery(address,uint256)":"116a0db0","hasRole(bytes32,address)":"91d14854","hasVotedOnDispute(address,uint256)":"06032bf7","hasVotedOnUpgradeProposal(address,uint256)":"a0f36f97","newDispute(uint256,string,string)":"24ffa411","newUpgradeProposal(address)":"28c5a8bb","nextDisputeId()":"0db39934","nextUpgradeProposalId()":"bac57098","proposalQuorum()":"9a0b6f9b","queryDispute(uint256)":"fe253de2","queryDisputeResult(uint256)":"3c1d543e","queryUpgradeProposal(uint256)":"262876f0","queryUpgradeProposalResult(uint256)":"1658407b","renounceRole(bytes32,address)":"36568abe","resolveUpgradeProposal(uint256)":"e02af6a9","revealDisputeVote(uint256,bool,string)":"b0c7d70d","revokeRole(bytes32,address)":"d547741f","setShop(address)":"ce965f6a","shopAddress()":"22446fb8","supportsInterface(bytes4)":"01ffc9a7","upgradeProposalResult(uint256)":"181bfa9d","upgradeProposals(uint256)":"9fa42769"},"id":53}