{"abi":[{"type":"constructor","inputs":[],"stateMutability":"nonpayable"},{"type":"function","name":"CONTROL_ROLE","inputs":[],"outputs":[{"name":"","type":"bytes32","internalType":"bytes32"}],"stateMutability":"view"},{"type":"function","name":"DEFAULT_ADMIN_ROLE","inputs":[],"outputs":[{"name":"","type":"bytes32","internalType":"bytes32"}],"stateMutability":"view"},{"type":"function","name":"approve","inputs":[{"name":"","type":"address","internalType":"address"},{"name":"","type":"uint256","internalType":"uint256"}],"outputs":[],"stateMutability":"nonpayable"},{"type":"function","name":"balanceOf","inputs":[{"name":"owner","type":"address","internalType":"address"}],"outputs":[{"name":"","type":"uint256","internalType":"uint256"}],"stateMutability":"view"},{"type":"function","name":"checkPrivilege","inputs":[{"name":"user","type":"address","internalType":"address"}],"outputs":[{"name":"","type":"bool","internalType":"bool"}],"stateMutability":"view"},{"type":"function","name":"getApproved","inputs":[{"name":"tokenId","type":"uint256","internalType":"uint256"}],"outputs":[{"name":"","type":"address","internalType":"address"}],"stateMutability":"view"},{"type":"function","name":"getRoleAdmin","inputs":[{"name":"role","type":"bytes32","internalType":"bytes32"}],"outputs":[{"name":"","type":"bytes32","internalType":"bytes32"}],"stateMutability":"view"},{"type":"function","name":"grantRole","inputs":[{"name":"role","type":"bytes32","internalType":"bytes32"},{"name":"account","type":"address","internalType":"address"}],"outputs":[],"stateMutability":"nonpayable"},{"type":"function","name":"hasRole","inputs":[{"name":"role","type":"bytes32","internalType":"bytes32"},{"name":"account","type":"address","internalType":"address"}],"outputs":[{"name":"","type":"bool","internalType":"bool"}],"stateMutability":"view"},{"type":"function","name":"isApprovedForAll","inputs":[{"name":"owner","type":"address","internalType":"address"},{"name":"operator","type":"address","internalType":"address"}],"outputs":[{"name":"","type":"bool","internalType":"bool"}],"stateMutability":"view"},{"type":"function","name":"name","inputs":[],"outputs":[{"name":"","type":"string","internalType":"string"}],"stateMutability":"view"},{"type":"function","name":"nextTokenId","inputs":[],"outputs":[{"name":"","type":"uint256","internalType":"uint256"}],"stateMutability":"view"},{"type":"function","name":"ownerOf","inputs":[{"name":"tokenId","type":"uint256","internalType":"uint256"}],"outputs":[{"name":"","type":"address","internalType":"address"}],"stateMutability":"view"},{"type":"function","name":"removePowersellerNFT","inputs":[{"name":"user","type":"address","internalType":"address"}],"outputs":[],"stateMutability":"nonpayable"},{"type":"function","name":"renounceRole","inputs":[{"name":"role","type":"bytes32","internalType":"bytes32"},{"name":"callerConfirmation","type":"address","internalType":"address"}],"outputs":[],"stateMutability":"nonpayable"},{"type":"function","name":"revokeRole","inputs":[{"name":"role","type":"bytes32","internalType":"bytes32"},{"name":"account","type":"address","internalType":"address"}],"outputs":[],"stateMutability":"nonpayable"},{"type":"function","name":"safeMint","inputs":[{"name":"to","type":"address","internalType":"address"}],"outputs":[],"stateMutability":"nonpayable"},{"type":"function","name":"safeTransferFrom","inputs":[{"name":"from","type":"address","internalType":"address"},{"name":"to","type":"address","internalType":"address"},{"name":"tokenId","type":"uint256","internalType":"uint256"}],"outputs":[],"stateMutability":"nonpayable"},{"type":"function","name":"safeTransferFrom","inputs":[{"name":"","type":"address","internalType":"address"},{"name":"","type":"address","internalType":"address"},{"name":"","type":"uint256","internalType":"uint256"},{"name":"","type":"bytes","internalType":"bytes"}],"outputs":[],"stateMutability":"nonpayable"},{"type":"function","name":"setApprovalForAll","inputs":[{"name":"","type":"address","internalType":"address"},{"name":"","type":"bool","internalType":"bool"}],"outputs":[],"stateMutability":"nonpayable"},{"type":"function","name":"setShop","inputs":[{"name":"shopAddress","type":"address","internalType":"address"}],"outputs":[],"stateMutability":"nonpayable"},{"type":"function","name":"supportsInterface","inputs":[{"name":"interfaceId","type":"bytes4","internalType":"bytes4"}],"outputs":[{"name":"","type":"bool","internalType":"bool"}],"stateMutability":"view"},{"type":"function","name":"symbol","inputs":[],"outputs":[{"name":"","type":"string","internalType":"string"}],"stateMutability":"view"},{"type":"function","name":"tokenIds","inputs":[{"name":"","type":"address","internalType":"address"}],"outputs":[{"name":"","type":"uint256","internalType":"uint256"}],"stateMutability":"view"},{"type":"function","name":"tokenURI","inputs":[{"name":"tokenId","type":"uint256","internalType":"uint256"}],"outputs":[{"name":"","type":"string","internalType":"string"}],"stateMutability":"view"},{"type":"function","name":"totalPowersellers","inputs":[],"outputs":[{"name":"","type":"uint256","internalType":"uint256"}],"stateMutability":"view"},{"type":"function","name":"transferFrom","inputs":[{"name":"","type":"address","internalType":"address"},{"name":"","type":"address","internalType":"address"},{"name":"","type":"uint256","internalType":"uint256"}],"outputs":[],"stateMutability":"nonpayable"},{"type":"event","name":"Approval","inputs":[{"name":"owner","type":"address","indexed":true,"internalType":"address"},{"name":"approved","type":"address","indexed":true,"internalType":"address"},{"name":"tokenId","type":"uint256","indexed":true,"internalType":"uint256"}],"anonymous":false},{"type":"event","name":"ApprovalForAll","inputs":[{"name":"owner","type":"address","indexed":true,"internalType":"address"},{"name":"operator","type":"address","indexed":true,"internalType":"address"},{"name":"approved","type":"bool","indexed":false,"internalType":"bool"}],"anonymous":false},{"type":"event","name":"PowersellerNFT_Minted","inputs":[{"name":"owner","type":"address","indexed":true,"internalType":"address"},{"name":"tokenId","type":"uint256","indexed":false,"internalType":"uint256"}],"anonymous":false},{"type":"event","name":"PowersellerNFT_Removed","inputs":[{"name":"owner","type":"address","indexed":true,"internalType":"address"},{"name":"tokenId","type":"uint256","indexed":false,"internalType":"uint256"}],"anonymous":false},{"type":"event","name":"RoleAdminChanged","inputs":[{"name":"role","type":"bytes32","indexed":true,"internalType":"bytes32"},{"name":"previousAdminRole","type":"bytes32","indexed":true,"internalType":"bytes32"},{"name":"newAdminRole","type":"bytes32","indexed":true,"internalType":"bytes32"}],"anonymous":false},{"type":"event","name":"RoleGranted","inputs":[{"name":"role","type":"bytes32","indexed":true,"internalType":"bytes32"},{"name":"account","type":"address","indexed":true,"internalType":"address"},{"name":"sender","type":"address","indexed":true,"internalType":"address"}],"anonymous":false},{"type":"event","name":"RoleRevoked","inputs":[{"name":"role","type":"bytes32","indexed":true,"internalType":"bytes32"},{"name":"account","type":"address","indexed":true,"internalType":"address"},{"name":"sender","type":"address","indexed":true,"internalType":"address"}],"anonymous":false},{"type":"event","name":"Transfer","inputs":[{"name":"from","type":"address","indexed":true,"internalType":"address"},{"name":"to","type":"address","indexed":true,"internalType":"address"},{"name":"tokenId","type":"uint256","indexed":true,"internalType":"uint256"}],"anonymous":false},{"type":"error","name":"AccessControlBadConfirmation","inputs":[]},{"type":"error","name":"AccessControlUnauthorizedAccount","inputs":[{"name":"account","type":"address","internalType":"address"},{"name":"neededRole","type":"bytes32","internalType":"bytes32"}]},{"type":"error","name":"ERC721IncorrectOwner","inputs":[{"name":"sender","type":"address","internalType":"address"},{"name":"tokenId","type":"uint256","internalType":"uint256"},{"name":"owner","type":"address","internalType":"address"}]},{"type":"error","name":"ERC721InsufficientApproval","inputs":[{"name":"operator","type":"address","internalType":"address"},{"name":"tokenId","type":"uint256","internalType":"uint256"}]},{"type":"error","name":"ERC721InvalidApprover","inputs":[{"name":"approver","type":"address","internalType":"address"}]},{"type":"error","name":"ERC721InvalidOperator","inputs":[{"name":"operator","type":"address","internalType":"address"}]},{"type":"error","name":"ERC721InvalidOwner","inputs":[{"name":"owner","type":"address","internalType":"address"}]},{"type":"error","name":"ERC721InvalidReceiver","inputs":[{"name":"receiver","type":"address","internalType":"address"}]},{"type":"error","name":"ERC721InvalidSender","inputs":[{"name":"sender","type":"address","internalType":"address"}]},{"type":"error","name":"ERC721NonexistentToken","inputs":[{"name":"tokenId","type":"uint256","internalType":"uint256"}]}],"bytecode":{"object":"0x60806040525f60075f6101000a81548160ff021916908315150217905550348015610028575f5ffd5b506040518060400160405280601981526020017f4661696c6c61706f7020506f77657273656c6c6572204e4654000000000000008152506040518060400160405280600681526020017f4650534e46540000000000000000000000000000000000000000000000000000815250815f90816100a3919061048a565b5080600190816100b3919061048a565b5050506100e67f126c7c8716c8f1c7c73a7370c820c7d73a9b4ed0ad633cfce1092f9ff47c8574336100ec60201b60201c565b50610559565b5f6100fd83836101e260201b60201c565b6101d857600160065f8581526020019081526020015f205f015f8473ffffffffffffffffffffffffffffffffffffffff1673ffffffffffffffffffffffffffffffffffffffff1681526020019081526020015f205f6101000a81548160ff02191690831515021790555061017561024660201b60201c565b73ffffffffffffffffffffffffffffffffffffffff168273ffffffffffffffffffffffffffffffffffffffff16847f2f8788117e7eff1d82e926ec794901d17c78024a50270940304540a733656f0d60405160405180910390a4600190506101dc565b5f90505b92915050565b5f60065f8481526020019081526020015f205f015f8373ffffffffffffffffffffffffffffffffffffffff1673ffffffffffffffffffffffffffffffffffffffff1681526020019081526020015f205f9054906101000a900460ff16905092915050565b5f33905090565b5f81519050919050565b7f4e487b71000000000000000000000000000000000000000000000000000000005f52604160045260245ffd5b7f4e487b71000000000000000000000000000000000000000000000000000000005f52602260045260245ffd5b5f60028204905060018216806102c857607f821691505b6020821081036102db576102da610284565b5b50919050565b5f819050815f5260205f209050919050565b5f6020601f8301049050919050565b5f82821b905092915050565b5f6008830261033d7fffffffffffffffffffffffffffffffffffffffffffffffffffffffffffffffff82610302565b6103478683610302565b95508019841693508086168417925050509392505050565b5f819050919050565b5f819050919050565b5f61038b6103866103818461035f565b610368565b61035f565b9050919050565b5f819050919050565b6103a483610371565b6103b86103b082610392565b84845461030e565b825550505050565b5f5f905090565b6103cf6103c0565b6103da81848461039b565b505050565b5b818110156103fd576103f25f826103c7565b6001810190506103e0565b5050565b601f82111561044257610413816102e1565b61041c846102f3565b8101602085101561042b578190505b61043f610437856102f3565b8301826103df565b50505b505050565b5f82821c905092915050565b5f6104625f1984600802610447565b1980831691505092915050565b5f61047a8383610453565b9150826002028217905092915050565b6104938261024d565b67ffffffffffffffff8111156104ac576104ab610257565b5b6104b682546102b1565b6104c1828285610401565b5f60209050601f8311600181146104f2575f84156104e0578287015190505b6104ea858261046f565b865550610551565b601f198416610500866102e1565b5f5b8281101561052757848901518255600182019150602085019450602081019050610502565b868310156105445784890151610540601f891682610453565b8355505b6001600288020188555050505b505050505050565b612aa7806105665f395ff3fe608060405234801561000f575f5ffd5b50600436106101a7575f3560e01c806375c97027116100f7578063b88d4fde11610095578063d547741f1161006f578063d547741f146104d9578063d7a1e6ab146104f5578063e985e9c514610513578063fc97a30314610543576101a7565b8063b88d4fde14610471578063c87b56dd1461048d578063ce965f6a146104bd576101a7565b806395d89b41116100d157806395d89b41146103e95780639d886a6814610407578063a217fddf14610437578063a22cb46514610455576101a7565b806375c970271461037f57806385aa2e1b1461039b57806391d14854146103b9576101a7565b80632f2ff15d1161016457806342842e0e1161013e57806342842e0e146102e55780636352211e1461030157806370a082311461033157806375794a3c14610361576101a7565b80632f2ff15d1461029157806336568abe146102ad57806340d097c3146102c9576101a7565b806301ffc9a7146101ab57806306fdde03146101db578063081812fc146101f9578063095ea7b31461022957806323b872dd14610245578063248a9ca314610261575b5f5ffd5b6101c560048036038101906101c09190611f87565b610573565b6040516101d29190611fcc565b60405180910390f35b6101e3610594565b6040516101f09190612055565b60405180910390f35b610213600480360381019061020e91906120a8565b610623565b6040516102209190612112565b60405180910390f35b610243600480360381019061023e9190612155565b61063e565b005b61025f600480360381019061025a9190612193565b610679565b005b61027b60048036038101906102769190612216565b6106b4565b6040516102889190612250565b60405180910390f35b6102ab60048036038101906102a69190612269565b6106d1565b005b6102c760048036038101906102c29190612269565b6106f3565b005b6102e360048036038101906102de91906122a7565b61076e565b005b6102ff60048036038101906102fa9190612193565b6108e9565b005b61031b600480360381019061031691906120a8565b610908565b6040516103289190612112565b60405180910390f35b61034b600480360381019061034691906122a7565b610919565b60405161035891906122e1565b60405180910390f35b6103696109cf565b60405161037691906122e1565b60405180910390f35b610399600480360381019061039491906122a7565b6109d5565b005b6103a3610b74565b6040516103b091906122e1565b60405180910390f35b6103d360048036038101906103ce9190612269565b610b7d565b6040516103e09190611fcc565b60405180910390f35b6103f1610be1565b6040516103fe9190612055565b60405180910390f35b610421600480360381019061041c91906122a7565b610c71565b60405161042e9190611fcc565b60405180910390f35b61043f610cba565b60405161044c9190612250565b60405180910390f35b61046f600480360381019061046a9190612324565b610cc0565b005b61048b6004803603810190610486919061248e565b610cfb565b005b6104a760048036038101906104a291906120a8565b610d36565b6040516104b49190612055565b60405180910390f35b6104d760048036038101906104d291906122a7565b610d9c565b005b6104f360048036038101906104ee9190612269565b610e5e565b005b6104fd610e80565b60405161050a9190612250565b60405180910390f35b61052d6004803603810190610528919061250e565b610ea4565b60405161053a9190611fcc565b60405180910390f35b61055d600480360381019061055891906122a7565b610f32565b60405161056a91906122e1565b60405180910390f35b5f61057d82610f47565b8061058d575061058c82611028565b5b9050919050565b60605f80546105a290612579565b80601f01602080910402602001604051908101604052809291908181526020018280546105ce90612579565b80156106195780601f106105f057610100808354040283529160200191610619565b820191905f5260205f20905b8154815290600101906020018083116105fc57829003601f168201915b5050505050905090565b5f61062d826110a1565b5061063782611127565b9050919050565b6040517f08c379a000000000000000000000000000000000000000000000000000000000815260040161067090612619565b60405180910390fd5b6040517f08c379a00000000000000000000000000000000000000000000000000000000081526004016106ab906126a7565b60405180910390fd5b5f60065f8381526020019081526020015f20600101549050919050565b6106da826106b4565b6106e381611160565b6106ed8383611174565b50505050565b6106fb61125e565b73ffffffffffffffffffffffffffffffffffffffff168173ffffffffffffffffffffffffffffffffffffffff161461075f576040517f6697b23200000000000000000000000000000000000000000000000000000000815260040160405180910390fd5b6107698282611265565b505050565b7f126c7c8716c8f1c7c73a7370c820c7d73a9b4ed0ad633cfce1092f9ff47c857461079881611160565b5f600a5f8473ffffffffffffffffffffffffffffffffffffffff1673ffffffffffffffffffffffffffffffffffffffff1681526020019081526020015f205414610817576040517f08c379a000000000000000000000000000000000000000000000000000000000815260040161080e90612735565b60405180910390fd5b60085f81548092919061082990612780565b919050555060095f81548092919061084090612780565b9190505550600854600a5f8473ffffffffffffffffffffffffffffffffffffffff1673ffffffffffffffffffffffffffffffffffffffff1681526020019081526020015f20819055506108958260085461134f565b3373ffffffffffffffffffffffffffffffffffffffff167f2de7df0e7effa33b41d553f74a5f2d88223852a2b12783c4067fe3200c0e26f26008546040516108dd91906122e1565b60405180910390a25050565b61090383838360405180602001604052805f815250610cfb565b505050565b5f610912826110a1565b9050919050565b5f5f73ffffffffffffffffffffffffffffffffffffffff168273ffffffffffffffffffffffffffffffffffffffff160361098a575f6040517f89c62b640000000000000000000000000000000000000000000000000000000081526004016109819190612112565b60405180910390fd5b60035f8373ffffffffffffffffffffffffffffffffffffffff1673ffffffffffffffffffffffffffffffffffffffff1681526020019081526020015f20549050919050565b60085481565b7f126c7c8716c8f1c7c73a7370c820c7d73a9b4ed0ad633cfce1092f9ff47c85746109ff81611160565b5f600a5f8473ffffffffffffffffffffffffffffffffffffffff1673ffffffffffffffffffffffffffffffffffffffff1681526020019081526020015f205403610a7e576040517f08c379a0000000000000000000000000000000000000000000000000000000008152600401610a7590612811565b60405180910390fd5b5f600a5f8473ffffffffffffffffffffffffffffffffffffffff1673ffffffffffffffffffffffffffffffffffffffff1681526020019081526020015f205490505f600a5f8573ffffffffffffffffffffffffffffffffffffffff1673ffffffffffffffffffffffffffffffffffffffff1681526020019081526020015f208190555060095f815480929190610b139061282f565b9190505550610b218161136c565b3373ffffffffffffffffffffffffffffffffffffffff167fc47bf5ffa551c8046bb3fe8da6df981fd96f48df8fbc75eb95ba4ccb96d8766682604051610b6791906122e1565b60405180910390a2505050565b5f600954905090565b5f60065f8481526020019081526020015f205f015f8373ffffffffffffffffffffffffffffffffffffffff1673ffffffffffffffffffffffffffffffffffffffff1681526020019081526020015f205f9054906101000a900460ff16905092915050565b606060018054610bf090612579565b80601f0160208091040260200160405190810160405280929190818152602001828054610c1c90612579565b8015610c675780601f10610c3e57610100808354040283529160200191610c67565b820191905f5260205f20905b815481529060010190602001808311610c4a57829003601f168201915b5050505050905090565b5f5f600a5f8473ffffffffffffffffffffffffffffffffffffffff1673ffffffffffffffffffffffffffffffffffffffff1681526020019081526020015f205414159050919050565b5f5f1b81565b6040517f08c379a0000000000000000000000000000000000000000000000000000000008152600401610cf290612619565b60405180910390fd5b6040517f08c379a0000000000000000000000000000000000000000000000000000000008152600401610d2d906126a7565b60405180910390fd5b6060610d41826110a1565b505f610d4b6113ee565b90505f815111610d695760405180602001604052805f815250610d94565b80610d7384611404565b604051602001610d84929190612890565b6040516020818303038152906040525b915050919050565b7f126c7c8716c8f1c7c73a7370c820c7d73a9b4ed0ad633cfce1092f9ff47c8574610dc681611160565b60075f9054906101000a900460ff1615610e15576040517f08c379a0000000000000000000000000000000000000000000000000000000008152600401610e0c906128fd565b60405180910390fd5b600160075f6101000a81548160ff021916908315150217905550610e597f126c7c8716c8f1c7c73a7370c820c7d73a9b4ed0ad633cfce1092f9ff47c857483611174565b505050565b610e67826106b4565b610e7081611160565b610e7a8383611265565b50505050565b7f126c7c8716c8f1c7c73a7370c820c7d73a9b4ed0ad633cfce1092f9ff47c857481565b5f60055f8473ffffffffffffffffffffffffffffffffffffffff1673ffffffffffffffffffffffffffffffffffffffff1681526020019081526020015f205f8373ffffffffffffffffffffffffffffffffffffffff1673ffffffffffffffffffffffffffffffffffffffff1681526020019081526020015f205f9054906101000a900460ff16905092915050565b600a602052805f5260405f205f915090505481565b5f7f80ac58cd000000000000000000000000000000000000000000000000000000007bffffffffffffffffffffffffffffffffffffffffffffffffffffffff1916827bffffffffffffffffffffffffffffffffffffffffffffffffffffffff1916148061101157507f5b5e139f000000000000000000000000000000000000000000000000000000007bffffffffffffffffffffffffffffffffffffffffffffffffffffffff1916827bffffffffffffffffffffffffffffffffffffffffffffffffffffffff1916145b806110215750611020826114ce565b5b9050919050565b5f7f7965db0b000000000000000000000000000000000000000000000000000000007bffffffffffffffffffffffffffffffffffffffffffffffffffffffff1916827bffffffffffffffffffffffffffffffffffffffffffffffffffffffff1916148061109a575061109982610f47565b5b9050919050565b5f5f6110ac83611537565b90505f73ffffffffffffffffffffffffffffffffffffffff168173ffffffffffffffffffffffffffffffffffffffff160361111e57826040517f7e27328900000000000000000000000000000000000000000000000000000000815260040161111591906122e1565b60405180910390fd5b80915050919050565b5f60045f8381526020019081526020015f205f9054906101000a900473ffffffffffffffffffffffffffffffffffffffff169050919050565b6111718161116c61125e565b611570565b50565b5f61117f8383610b7d565b61125457600160065f8581526020019081526020015f205f015f8473ffffffffffffffffffffffffffffffffffffffff1673ffffffffffffffffffffffffffffffffffffffff1681526020019081526020015f205f6101000a81548160ff0219169083151502179055506111f161125e565b73ffffffffffffffffffffffffffffffffffffffff168273ffffffffffffffffffffffffffffffffffffffff16847f2f8788117e7eff1d82e926ec794901d17c78024a50270940304540a733656f0d60405160405180910390a460019050611258565b5f90505b92915050565b5f33905090565b5f6112708383610b7d565b15611345575f60065f8581526020019081526020015f205f015f8473ffffffffffffffffffffffffffffffffffffffff1673ffffffffffffffffffffffffffffffffffffffff1681526020019081526020015f205f6101000a81548160ff0219169083151502179055506112e261125e565b73ffffffffffffffffffffffffffffffffffffffff168273ffffffffffffffffffffffffffffffffffffffff16847ff6391f5c32d9c69d2a47ea670b442974b53935d1edc7fd64eb21e047a839171b60405160405180910390a460019050611349565b5f90505b92915050565b611368828260405180602001604052805f8152506115c1565b5050565b5f6113785f835f6115e4565b90505f73ffffffffffffffffffffffffffffffffffffffff168173ffffffffffffffffffffffffffffffffffffffff16036113ea57816040517f7e2732890000000000000000000000000000000000000000000000000000000081526004016113e191906122e1565b60405180910390fd5b5050565b606060405180602001604052805f815250905090565b60605f6001611412846117ef565b0190505f8167ffffffffffffffff8111156114305761142f61236a565b5b6040519080825280601f01601f1916602001820160405280156114625781602001600182028036833780820191505090505b5090505f82602001820190505b6001156114c3578080600190039150507f3031323334353637383961626364656600000000000000000000000000000000600a86061a8153600a85816114b8576114b761291b565b5b0494505f850361146f575b819350505050919050565b5f7f01ffc9a7000000000000000000000000000000000000000000000000000000007bffffffffffffffffffffffffffffffffffffffffffffffffffffffff1916827bffffffffffffffffffffffffffffffffffffffffffffffffffffffff1916149050919050565b5f60025f8381526020019081526020015f205f9054906101000a900473ffffffffffffffffffffffffffffffffffffffff169050919050565b61157a8282610b7d565b6115bd5780826040517fe2517d3f0000000000000000000000000000000000000000000000000000000081526004016115b4929190612948565b60405180910390fd5b5050565b6115cb8383611940565b6115df6115d661125e565b5f858585611a33565b505050565b5f5f6115ef84611537565b90505f73ffffffffffffffffffffffffffffffffffffffff168373ffffffffffffffffffffffffffffffffffffffff16146116305761162f818486611bdf565b5b5f73ffffffffffffffffffffffffffffffffffffffff168173ffffffffffffffffffffffffffffffffffffffff16146116bb5761166f5f855f5f611ca2565b600160035f8373ffffffffffffffffffffffffffffffffffffffff1673ffffffffffffffffffffffffffffffffffffffff1681526020019081526020015f205f82825403925050819055505b5f73ffffffffffffffffffffffffffffffffffffffff168573ffffffffffffffffffffffffffffffffffffffff161461173a57600160035f8773ffffffffffffffffffffffffffffffffffffffff1673ffffffffffffffffffffffffffffffffffffffff1681526020019081526020015f205f82825401925050819055505b8460025f8681526020019081526020015f205f6101000a81548173ffffffffffffffffffffffffffffffffffffffff021916908373ffffffffffffffffffffffffffffffffffffffff160217905550838573ffffffffffffffffffffffffffffffffffffffff168273ffffffffffffffffffffffffffffffffffffffff167fddf252ad1be2c89b69c2b068fc378daa952ba7f163c4a11628f55a4df523b3ef60405160405180910390a4809150509392505050565b5f5f5f90507a184f03e93ff9f4daa797ed6e38ed64bf6a1f010000000000000000831061184b577a184f03e93ff9f4daa797ed6e38ed64bf6a1f01000000000000000083816118415761184061291b565b5b0492506040810190505b6d04ee2d6d415b85acef81000000008310611888576d04ee2d6d415b85acef8100000000838161187e5761187d61291b565b5b0492506020810190505b662386f26fc1000083106118b757662386f26fc1000083816118ad576118ac61291b565b5b0492506010810190505b6305f5e10083106118e0576305f5e10083816118d6576118d561291b565b5b0492506008810190505b61271083106119055761271083816118fb576118fa61291b565b5b0492506004810190505b60648310611928576064838161191e5761191d61291b565b5b0492506002810190505b600a8310611937576001810190505b80915050919050565b5f73ffffffffffffffffffffffffffffffffffffffff168273ffffffffffffffffffffffffffffffffffffffff16036119b0575f6040517f64a0ae920000000000000000000000000000000000000000000000000000000081526004016119a79190612112565b60405180910390fd5b5f6119bc83835f6115e4565b90505f73ffffffffffffffffffffffffffffffffffffffff168173ffffffffffffffffffffffffffffffffffffffff1614611a2e575f6040517f73c6ac6e000000000000000000000000000000000000000000000000000000008152600401611a259190612112565b60405180910390fd5b505050565b5f8373ffffffffffffffffffffffffffffffffffffffff163b1115611bd8578273ffffffffffffffffffffffffffffffffffffffff1663150b7a02868685856040518563ffffffff1660e01b8152600401611a9194939291906129c1565b6020604051808303815f875af1925050508015611acc57506040513d601f19601f82011682018060405250810190611ac99190612a1f565b60015b611b4d573d805f8114611afa576040519150601f19603f3d011682016040523d82523d5f602084013e611aff565b606091505b505f815103611b4557836040517f64a0ae92000000000000000000000000000000000000000000000000000000008152600401611b3c9190612112565b60405180910390fd5b805181602001fd5b63150b7a0260e01b7bffffffffffffffffffffffffffffffffffffffffffffffffffffffff1916817bffffffffffffffffffffffffffffffffffffffffffffffffffffffff191614611bd657836040517f64a0ae92000000000000000000000000000000000000000000000000000000008152600401611bcd9190612112565b60405180910390fd5b505b5050505050565b611bea838383611e61565b611c9d575f73ffffffffffffffffffffffffffffffffffffffff168373ffffffffffffffffffffffffffffffffffffffff1603611c5e57806040517f7e273289000000000000000000000000000000000000000000000000000000008152600401611c5591906122e1565b60405180910390fd5b81816040517f177e802f000000000000000000000000000000000000000000000000000000008152600401611c94929190612a4a565b60405180910390fd5b505050565b8080611cda57505f73ffffffffffffffffffffffffffffffffffffffff168273ffffffffffffffffffffffffffffffffffffffff1614155b15611e0c575f611ce9846110a1565b90505f73ffffffffffffffffffffffffffffffffffffffff168373ffffffffffffffffffffffffffffffffffffffff1614158015611d5357508273ffffffffffffffffffffffffffffffffffffffff168173ffffffffffffffffffffffffffffffffffffffff1614155b8015611d665750611d648184610ea4565b155b15611da857826040517fa9fbf51f000000000000000000000000000000000000000000000000000000008152600401611d9f9190612112565b60405180910390fd5b8115611e0a57838573ffffffffffffffffffffffffffffffffffffffff168273ffffffffffffffffffffffffffffffffffffffff167f8c5be1e5ebec7d5bd14f71427d1e84f3dd0314c0f7b2291e5b200ac8c7c3b92560405160405180910390a45b505b8360045f8581526020019081526020015f205f6101000a81548173ffffffffffffffffffffffffffffffffffffffff021916908373ffffffffffffffffffffffffffffffffffffffff16021790555050505050565b5f5f73ffffffffffffffffffffffffffffffffffffffff168373ffffffffffffffffffffffffffffffffffffffff1614158015611f1857508273ffffffffffffffffffffffffffffffffffffffff168473ffffffffffffffffffffffffffffffffffffffff161480611ed95750611ed88484610ea4565b5b80611f1757508273ffffffffffffffffffffffffffffffffffffffff16611eff83611127565b73ffffffffffffffffffffffffffffffffffffffff16145b5b90509392505050565b5f604051905090565b5f5ffd5b5f5ffd5b5f7fffffffff0000000000000000000000000000000000000000000000000000000082169050919050565b611f6681611f32565b8114611f70575f5ffd5b50565b5f81359050611f8181611f5d565b92915050565b5f60208284031215611f9c57611f9b611f2a565b5b5f611fa984828501611f73565b91505092915050565b5f8115159050919050565b611fc681611fb2565b82525050565b5f602082019050611fdf5f830184611fbd565b92915050565b5f81519050919050565b5f82825260208201905092915050565b8281835e5f83830152505050565b5f601f19601f8301169050919050565b5f61202782611fe5565b6120318185611fef565b9350612041818560208601611fff565b61204a8161200d565b840191505092915050565b5f6020820190508181035f83015261206d818461201d565b905092915050565b5f819050919050565b61208781612075565b8114612091575f5ffd5b50565b5f813590506120a28161207e565b92915050565b5f602082840312156120bd576120bc611f2a565b5b5f6120ca84828501612094565b91505092915050565b5f73ffffffffffffffffffffffffffffffffffffffff82169050919050565b5f6120fc826120d3565b9050919050565b61210c816120f2565b82525050565b5f6020820190506121255f830184612103565b92915050565b612134816120f2565b811461213e575f5ffd5b50565b5f8135905061214f8161212b565b92915050565b5f5f6040838503121561216b5761216a611f2a565b5b5f61217885828601612141565b925050602061218985828601612094565b9150509250929050565b5f5f5f606084860312156121aa576121a9611f2a565b5b5f6121b786828701612141565b93505060206121c886828701612141565b92505060406121d986828701612094565b9150509250925092565b5f819050919050565b6121f5816121e3565b81146121ff575f5ffd5b50565b5f81359050612210816121ec565b92915050565b5f6020828403121561222b5761222a611f2a565b5b5f61223884828501612202565b91505092915050565b61224a816121e3565b82525050565b5f6020820190506122635f830184612241565b92915050565b5f5f6040838503121561227f5761227e611f2a565b5b5f61228c85828601612202565b925050602061229d85828601612141565b9150509250929050565b5f602082840312156122bc576122bb611f2a565b5b5f6122c984828501612141565b91505092915050565b6122db81612075565b82525050565b5f6020820190506122f45f8301846122d2565b92915050565b61230381611fb2565b811461230d575f5ffd5b50565b5f8135905061231e816122fa565b92915050565b5f5f6040838503121561233a57612339611f2a565b5b5f61234785828601612141565b925050602061235885828601612310565b9150509250929050565b5f5ffd5b5f5ffd5b7f4e487b71000000000000000000000000000000000000000000000000000000005f52604160045260245ffd5b6123a08261200d565b810181811067ffffffffffffffff821117156123bf576123be61236a565b5b80604052505050565b5f6123d1611f21565b90506123dd8282612397565b919050565b5f67ffffffffffffffff8211156123fc576123fb61236a565b5b6124058261200d565b9050602081019050919050565b828183375f83830152505050565b5f61243261242d846123e2565b6123c8565b90508281526020810184848401111561244e5761244d612366565b5b612459848285612412565b509392505050565b5f82601f83011261247557612474612362565b5b8135612485848260208601612420565b91505092915050565b5f5f5f5f608085870312156124a6576124a5611f2a565b5b5f6124b387828801612141565b94505060206124c487828801612141565b93505060406124d587828801612094565b925050606085013567ffffffffffffffff8111156124f6576124f5611f2e565b5b61250287828801612461565b91505092959194509250565b5f5f6040838503121561252457612523611f2a565b5b5f61253185828601612141565b925050602061254285828601612141565b9150509250929050565b7f4e487b71000000000000000000000000000000000000000000000000000000005f52602260045260245ffd5b5f600282049050600182168061259057607f821691505b6020821081036125a3576125a261254c565b5b50919050565b7f506f77657273656c6c65724e46542063616e6e6f7420626520617070726f76655f8201527f6400000000000000000000000000000000000000000000000000000000000000602082015250565b5f612603602183611fef565b915061260e826125a9565b604082019050919050565b5f6020820190508181035f830152612630816125f7565b9050919050565b7f506f77657273656c6c65724e46542063616e6e6f74206265207472616e7366655f8201527f7272656400000000000000000000000000000000000000000000000000000000602082015250565b5f612691602483611fef565b915061269c82612637565b604082019050919050565b5f6020820190508181035f8301526126be81612685565b9050919050565b7f54686973207573657220697320616c7265616479206120506f77657273656c6c5f8201527f6572000000000000000000000000000000000000000000000000000000000000602082015250565b5f61271f602283611fef565b915061272a826126c5565b604082019050919050565b5f6020820190508181035f83015261274c81612713565b9050919050565b7f4e487b71000000000000000000000000000000000000000000000000000000005f52601160045260245ffd5b5f61278a82612075565b91507fffffffffffffffffffffffffffffffffffffffffffffffffffffffffffffffff82036127bc576127bb612753565b5b600182019050919050565b7f546869732075736572206973206e6f74206120506f77657273656c6c657200005f82015250565b5f6127fb601e83611fef565b9150612806826127c7565b602082019050919050565b5f6020820190508181035f830152612828816127ef565b9050919050565b5f61283982612075565b91505f820361284b5761284a612753565b5b600182039050919050565b5f81905092915050565b5f61286a82611fe5565b6128748185612856565b9350612884818560208601611fff565b80840191505092915050565b5f61289b8285612860565b91506128a78284612860565b91508190509392505050565b7f53686f70206164647265737320616c72656164792073657400000000000000005f82015250565b5f6128e7601883611fef565b91506128f2826128b3565b602082019050919050565b5f6020820190508181035f830152612914816128db565b9050919050565b7f4e487b71000000000000000000000000000000000000000000000000000000005f52601260045260245ffd5b5f60408201905061295b5f830185612103565b6129686020830184612241565b9392505050565b5f81519050919050565b5f82825260208201905092915050565b5f6129938261296f565b61299d8185612979565b93506129ad818560208601611fff565b6129b68161200d565b840191505092915050565b5f6080820190506129d45f830187612103565b6129e16020830186612103565b6129ee60408301856122d2565b8181036060830152612a008184612989565b905095945050505050565b5f81519050612a1981611f5d565b92915050565b5f60208284031215612a3457612a33611f2a565b5b5f612a4184828501612a0b565b91505092915050565b5f604082019050612a5d5f830185612103565b612a6a60208301846122d2565b939250505056fea2646970667358221220e25aa62699046d358a2d0bb3ac27c990d4549e917967936b5a9be2e0fcf5277164736f6c634300081e0033","linkReferences":{}},"methodIdentifiers":{"CONTROL_ROLE()":"d7a1e6ab","DEFAULT_ADMIN_ROLE()":"a217fddf","approve(address,uint256)":"095ea7b3","balanceOf(address)":"70a08231","checkPrivilege(address)":"9d886a68","getApproved(uint256)":"081812fc","getRoleAdmin(bytes32)":"248a9ca3","grantRole(bytes32,address)":"2f2ff15d","hasRole(bytes32,address)":"91d14854","isApprovedForAll(address,address)":"e985e9c5","name()":"06fdde03","nextTokenId()":"75794a3c","ownerOf(uint256)":"6352211e","removePowersellerNFT(address)":"75c97027","renounceRole(bytes32,address)":"36568abe","revokeRole(bytes32,address)":"d547741f","safeMint(address)":"40d097c3","safeTransferFrom(address,address,uint256)":"42842e0e","safeTransferFrom(address,address,uint256,bytes)":"b88d4fde","setApprovalForAll(address,bool)":"a22cb465","setShop(address)":"ce965f6a","supportsInterface(bytes4)":"01ffc9a7","symbol()":"95d89b41","tokenIds(address)":"fc97a303","tokenURI(uint256)":"c87b56dd","totalPowersellers()":"85aa2e1b","transferFrom(address,address,uint256)":"23b872dd"},"id":55}