{"abi":[{"type":"function","name":"ADMIN_ROLE","inputs":[],"outputs":[{"name":"","type":"bytes32","internalType":"bytes32"}],"stateMutability":"view"},{"type":"function","name":"BLACKLISTED_ROLE","inputs":[],"outputs":[{"name":"","type":"bytes32","internalType":"bytes32"}],"stateMutability":"view"},{"type":"function","name":"DAO_ROLE","inputs":[],"outputs":[{"name":"","type":"bytes32","internalType":"bytes32"}],"stateMutability":"view"},{"type":"function","name":"DEFAULT_ADMIN_ROLE","inputs":[],"outputs":[{"name":"","type":"bytes32","internalType":"bytes32"}],"stateMutability":"view"},{"type":"function","name":"MAX_DISPUTE_WAITING_FOR_REPLY","inputs":[],"outputs":[{"name":"","type":"uint256","internalType":"uint256"}],"stateMutability":"view"},{"type":"function","name":"MAX_PENDING_TIME","inputs":[],"outputs":[{"name":"","type":"uint256","internalType":"uint256"}],"stateMutability":"view"},{"type":"function","name":"blacklistedSellers","inputs":[{"name":"","type":"uint256","internalType":"uint256"}],"outputs":[{"name":"","type":"address","internalType":"address"}],"stateMutability":"view"},{"type":"function","name":"cancelActiveSale","inputs":[{"name":"itemId","type":"uint256","internalType":"uint256"}],"outputs":[],"stateMutability":"nonpayable"},{"type":"function","name":"claimPowersellerBadge","inputs":[],"outputs":[],"stateMutability":"nonpayable"},{"type":"function","name":"closeSale","inputs":[{"name":"itemId","type":"uint256","internalType":"uint256"},{"name":"reimburseBuyer","type":"bool","internalType":"bool"},{"name":"paySeller","type":"bool","internalType":"bool"},{"name":"releaseSellerStake","type":"bool","internalType":"bool"}],"outputs":[],"stateMutability":"nonpayable"},{"type":"function","name":"coolNFTContract","inputs":[],"outputs":[{"name":"","type":"address","internalType":"contract IFP_CoolNFT"}],"stateMutability":"view"},{"type":"function","name":"daoContract","inputs":[],"outputs":[{"name":"","type":"address","internalType":"contract IFP_DAO"}],"stateMutability":"view"},{"type":"function","name":"disputeSale","inputs":[{"name":"itemId","type":"uint256","internalType":"uint256"},{"name":"buyerReasoning","type":"string","internalType":"string"}],"outputs":[],"stateMutability":"nonpayable"},{"type":"function","name":"disputedItems","inputs":[{"name":"","type":"uint256","internalType":"uint256"}],"outputs":[{"name":"disputeId","type":"uint256","internalType":"uint256"},{"name":"disputeTimestamp","type":"uint256","internalType":"uint256"},{"name":"buyerReasoning","type":"string","internalType":"string"},{"name":"sellerReasoning","type":"string","internalType":"string"}],"stateMutability":"view"},{"type":"function","name":"disputedSaleReply","inputs":[{"name":"itemId","type":"uint256","internalType":"uint256"},{"name":"sellerReasoning","type":"string","internalType":"string"}],"outputs":[],"stateMutability":"nonpayable"},{"type":"function","name":"doBuy","inputs":[{"name":"itemId","type":"uint256","internalType":"uint256"}],"outputs":[],"stateMutability":"payable"},{"type":"function","name":"endDispute","inputs":[{"name":"itemId","type":"uint256","internalType":"uint256"}],"outputs":[],"stateMutability":"nonpayable"},{"type":"function","name":"firstValidSaleTimestamp","inputs":[{"name":"","type":"address","internalType":"address"}],"outputs":[{"name":"","type":"uint256","internalType":"uint256"}],"stateMutability":"view"},{"type":"function","name":"getRoleAdmin","inputs":[{"name":"role","type":"bytes32","internalType":"bytes32"}],"outputs":[{"name":"","type":"bytes32","internalType":"bytes32"}],"stateMutability":"view"},{"type":"function","name":"grantRole","inputs":[{"name":"role","type":"bytes32","internalType":"bytes32"},{"name":"account","type":"address","internalType":"address"}],"outputs":[],"stateMutability":"nonpayable"},{"type":"function","name":"hasRole","inputs":[{"name":"role","type":"bytes32","internalType":"bytes32"},{"name":"account","type":"address","internalType":"address"}],"outputs":[{"name":"","type":"bool","internalType":"bool"}],"stateMutability":"view"},{"type":"function","name":"initialize","inputs":[{"name":"daoAddress","type":"address","internalType":"address"},{"name":"vaultAddress","type":"address","internalType":"address"},{"name":"powersellerNFTAddress","type":"address","internalType":"address"},{"name":"coolNFTAddress","type":"address","internalType":"address"}],"outputs":[],"stateMutability":"nonpayable"},{"type":"function","name":"itemReceived","inputs":[{"name":"itemId","type":"uint256","internalType":"uint256"}],"outputs":[],"stateMutability":"nonpayable"},{"type":"function","name":"modifySale","inputs":[{"name":"itemId","type":"uint256","internalType":"uint256"},{"name":"newTitle","type":"string","internalType":"string"},{"name":"newDesc","type":"string","internalType":"string"},{"name":"newPrice","type":"uint256","internalType":"uint256"}],"outputs":[],"stateMutability":"nonpayable"},{"type":"function","name":"newSale","inputs":[{"name":"title","type":"string","internalType":"string"},{"name":"description","type":"string","internalType":"string"},{"name":"price","type":"uint256","internalType":"uint256"}],"outputs":[],"stateMutability":"nonpayable"},{"type":"function","name":"numValidSales","inputs":[{"name":"","type":"address","internalType":"address"}],"outputs":[{"name":"","type":"uint256","internalType":"uint256"}],"stateMutability":"view"},{"type":"function","name":"offerIndex","inputs":[],"outputs":[{"name":"","type":"uint256","internalType":"uint256"}],"stateMutability":"view"},{"type":"function","name":"offeredItems","inputs":[{"name":"","type":"uint256","internalType":"uint256"}],"outputs":[{"name":"seller","type":"address","internalType":"address"},{"name":"buyer","type":"address","internalType":"address"},{"name":"title","type":"string","internalType":"string"},{"name":"description","type":"string","internalType":"string"},{"name":"price","type":"uint256","internalType":"uint256"},{"name":"state","type":"uint8","internalType":"enum FP_Shop.State"},{"name":"buyTimestamp","type":"uint256","internalType":"uint256"}],"stateMutability":"view"},{"type":"function","name":"powersellerContract","inputs":[],"outputs":[{"name":"","type":"address","internalType":"contract IFP_PowersellerNFT"}],"stateMutability":"view"},{"type":"function","name":"queryDispute","inputs":[{"name":"itemId","type":"uint256","internalType":"uint256"}],"outputs":[{"name":"","type":"tuple","internalType":"struct FP_Shop.Dispute","components":[{"name":"disputeId","type":"uint256","internalType":"uint256"},{"name":"disputeTimestamp","type":"uint256","internalType":"uint256"},{"name":"buyerReasoning","type":"string","internalType":"string"},{"name":"sellerReasoning","type":"string","internalType":"string"}]}],"stateMutability":"view"},{"type":"function","name":"queryNumValidSales","inputs":[{"name":"seller","type":"address","internalType":"address"}],"outputs":[{"name":"","type":"uint256","internalType":"uint256"}],"stateMutability":"view"},{"type":"function","name":"querySale","inputs":[{"name":"itemId","type":"uint256","internalType":"uint256"}],"outputs":[{"name":"","type":"tuple","internalType":"struct FP_Shop.Sale","components":[{"name":"seller","type":"address","internalType":"address"},{"name":"buyer","type":"address","internalType":"address"},{"name":"title","type":"string","internalType":"string"},{"name":"description","type":"string","internalType":"string"},{"name":"price","type":"uint256","internalType":"uint256"},{"name":"state","type":"uint8","internalType":"enum FP_Shop.State"},{"name":"buyTimestamp","type":"uint256","internalType":"uint256"}]}],"stateMutability":"view"},{"type":"function","name":"removeMaliciousSale","inputs":[{"name":"itemId","type":"uint256","internalType":"uint256"}],"outputs":[],"stateMutability":"nonpayable"},{"type":"function","name":"renounceRole","inputs":[{"name":"role","type":"bytes32","internalType":"bytes32"},{"name":"callerConfirmation","type":"address","internalType":"address"}],"outputs":[],"stateMutability":"nonpayable"},{"type":"function","name":"returnItem","inputs":[{"name":"itemId","type":"uint256","internalType":"uint256"}],"outputs":[],"stateMutability":"nonpayable"},{"type":"function","name":"revokeRole","inputs":[{"name":"role","type":"bytes32","internalType":"bytes32"},{"name":"account","type":"address","internalType":"address"}],"outputs":[],"stateMutability":"nonpayable"},{"type":"function","name":"setVacationMode","inputs":[{"name":"vacationMode","type":"bool","internalType":"bool"}],"outputs":[],"stateMutability":"nonpayable"},{"type":"function","name":"supportsInterface","inputs":[{"name":"interfaceId","type":"bytes4","internalType":"bytes4"}],"outputs":[{"name":"","type":"bool","internalType":"bool"}],"stateMutability":"view"},{"type":"function","name":"vaultContract","inputs":[],"outputs":[{"name":"","type":"address","internalType":"contract IFP_Vault"}],"stateMutability":"view"},{"type":"event","name":"AwardNFT","inputs":[{"name":"user","type":"address","indexed":false,"internalType":"address"}],"anonymous":false},{"type":"event","name":"BlacklistSeller","inputs":[{"name":"seller","type":"address","indexed":false,"internalType":"address"}],"anonymous":false},{"type":"event","name":"Buy","inputs":[{"name":"user","type":"address","indexed":false,"internalType":"address"},{"name":"item","type":"uint256","indexed":false,"internalType":"uint256"}],"anonymous":false},{"type":"event","name":"Initialized","inputs":[{"name":"version","type":"uint64","indexed":false,"internalType":"uint64"}],"anonymous":false},{"type":"event","name":"ModifyItem","inputs":[{"name":"id","type":"uint256","indexed":false,"internalType":"uint256"},{"name":"title","type":"string","indexed":false,"internalType":"string"}],"anonymous":false},{"type":"event","name":"NewItem","inputs":[{"name":"id","type":"uint256","indexed":false,"internalType":"uint256"},{"name":"title","type":"string","indexed":false,"internalType":"string"}],"anonymous":false},{"type":"event","name":"OpenDispute","inputs":[{"name":"user","type":"address","indexed":false,"internalType":"address"},{"name":"item","type":"uint256","indexed":false,"internalType":"uint256"}],"anonymous":false},{"type":"event","name":"Reimburse","inputs":[{"name":"user","type":"address","indexed":false,"internalType":"address"},{"name":"amount","type":"uint256","indexed":false,"internalType":"uint256"}],"anonymous":false},{"type":"event","name":"RoleAdminChanged","inputs":[{"name":"role","type":"bytes32","indexed":true,"internalType":"bytes32"},{"name":"previousAdminRole","type":"bytes32","indexed":true,"internalType":"bytes32"},{"name":"newAdminRole","type":"bytes32","indexed":true,"internalType":"bytes32"}],"anonymous":false},{"type":"event","name":"RoleGranted","inputs":[{"name":"role","type":"bytes32","indexed":true,"internalType":"bytes32"},{"name":"account","type":"address","indexed":true,"internalType":"address"},{"name":"sender","type":"address","indexed":true,"internalType":"address"}],"anonymous":false},{"type":"event","name":"RoleRevoked","inputs":[{"name":"role","type":"bytes32","indexed":true,"internalType":"bytes32"},{"name":"account","type":"address","indexed":true,"internalType":"address"},{"name":"sender","type":"address","indexed":true,"internalType":"address"}],"anonymous":false},{"type":"error","name":"AccessControlBadConfirmation","inputs":[]},{"type":"error","name":"AccessControlUnauthorizedAccount","inputs":[{"name":"account","type":"address","internalType":"address"},{"name":"neededRole","type":"bytes32","internalType":"bytes32"}]},{"type":"error","name":"InvalidInitialization","inputs":[]},{"type":"error","name":"NotInitializing","inputs":[]}],"bytecode":{"object":"0x608060405262278d005f553480156014575f5ffd5b506159d4806100225f395ff3fe60806040526004361061022f575f3560e01c806372af5ba31161012d578063a610c298116100aa578063d9209de81161006e578063d9209de814610856578063e9c265181461087e578063f8c8765e146108a8578063fb7c0a3f146108d0578063fe253de2146108ec5761022f565b8063a610c29814610766578063a6766e951461078e578063ab0378be146107ca578063c2b9cf8d146107f2578063d547741f1461082e5761022f565b806391eedc62116100f157806391eedc621461068657806398f52bd1146106ae5780639cef900e146106ea578063a217fddf14610714578063a55dd46b1461073e5761022f565b806372af5ba31461059e57806375b238fc146105c85780637b5e7e93146105f25780638409ae491461063457806391d148541461064a5761022f565b8063237e3feb116101bb578063424f7eda1161017f578063424f7eda146104bb5780634a7ffcbc146104fa5780635187b7a0146105245780635937204e1461054c57806362b199c5146105745761022f565b8063237e3feb146103c9578063248a9ca3146103f35780632f2ff15d1461042f57806336568abe146104575780633b75b6911461047f5761022f565b80631d24e299116102025780631d24e299146102fd5780631f22b6771461032557806320ca2d271461034f578063223ed1dd146103775780632274346b1461039f5761022f565b806301ffc9a7146102335780630fa3d7d61461026f578063113b8f491461029757806315248bf9146102c1575b5f5ffd5b34801561023e575f5ffd5b5061025960048036038101906102549190613f75565b610928565b6040516102669190613fba565b60405180910390f35b34801561027a575f5ffd5b5061029560048036038101906102909190614067565b6109a1565b005b3480156102a2575f5ffd5b506102ab610b1d565b6040516102b891906140d3565b60405180910390f35b3480156102cc575f5ffd5b506102e760048036038101906102e29190614146565b610b24565b6040516102f491906140d3565b60405180910390f35b348015610308575f5ffd5b50610323600480360381019061031e9190614171565b610b39565b005b348015610330575f5ffd5b50610339610c70565b60405161034691906140d3565b60405180910390f35b34801561035a575f5ffd5b5061037560048036038101906103709190614067565b610c76565b005b348015610382575f5ffd5b5061039d60048036038101906103989190614171565b610ea8565b005b3480156103aa575f5ffd5b506103b3610faa565b6040516103c091906141f7565b60405180910390f35b3480156103d4575f5ffd5b506103dd610fcf565b6040516103ea9190614230565b60405180910390f35b3480156103fe575f5ffd5b506104196004803603810190610414919061427c565b610ff4565b60405161042691906142b6565b60405180910390f35b34801561043a575f5ffd5b50610455600480360381019061045091906142cf565b61101e565b005b348015610462575f5ffd5b5061047d600480360381019061047891906142cf565b611040565b005b34801561048a575f5ffd5b506104a560048036038101906104a09190614146565b6110bb565b6040516104b291906140d3565b60405180910390f35b3480156104c6575f5ffd5b506104e160048036038101906104dc9190614171565b6110d0565b6040516104f1949392919061437d565b60405180910390f35b348015610505575f5ffd5b5061050e611208565b60405161051b91906143ee565b60405180910390f35b34801561052f575f5ffd5b5061054a60048036038101906105459190614171565b61122d565b005b348015610557575f5ffd5b50610572600480360381019061056d9190614407565b611541565b005b34801561057f575f5ffd5b5061058861196c565b60405161059591906142b6565b60405180910390f35b3480156105a9575f5ffd5b506105b2611990565b6040516105bf91906140d3565b60405180910390f35b3480156105d3575f5ffd5b506105dc611995565b6040516105e991906142b6565b60405180910390f35b3480156105fd575f5ffd5b5061061860048036038101906106139190614171565b6119b9565b60405161062b979695949392919061451a565b60405180910390f35b34801561063f575f5ffd5b50610648611b4d565b005b348015610655575f5ffd5b50610670600480360381019061066b91906142cf565b611ce5565b60405161067d9190613fba565b60405180910390f35b348015610691575f5ffd5b506106ac60048036038101906106a791906145bf565b611d56565b005b3480156106b9575f5ffd5b506106d460048036038101906106cf9190614171565b612185565b6040516106e19190614738565b60405180910390f35b3480156106f5575f5ffd5b506106fe6123c7565b60405161070b9190614778565b60405180910390f35b34801561071f575f5ffd5b506107286123ec565b60405161073591906142b6565b60405180910390f35b348015610749575f5ffd5b50610764600480360381019061075f9190614171565b6123f2565b005b348015610771575f5ffd5b5061078c60048036038101906107879190614171565b6125ad565b005b348015610799575f5ffd5b506107b460048036038101906107af9190614146565b61276e565b6040516107c191906140d3565b60405180910390f35b3480156107d5575f5ffd5b506107f060048036038101906107eb9190614791565b6127b4565b005b3480156107fd575f5ffd5b5061081860048036038101906108139190614171565b612be2565b6040516108259190614834565b60405180910390f35b348015610839575f5ffd5b50610854600480360381019061084f91906142cf565b612c1d565b005b348015610861575f5ffd5b5061087c6004803603810190610877919061484d565b612c3f565b005b348015610889575f5ffd5b50610892612def565b60405161089f91906142b6565b60405180910390f35b3480156108b3575f5ffd5b506108ce60048036038101906108c99190614878565b612e13565b005b6108ea60048036038101906108e59190614171565b6130ec565b005b3480156108f7575f5ffd5b50610912600480360381019061090d9190614171565b6133e9565b60405161091f9190614943565b60405180910390f35b5f7f7965db0b000000000000000000000000000000000000000000000000000000007bffffffffffffffffffffffffffffffffffffffffffffffffffffffff1916827bffffffffffffffffffffffffffffffffffffffffffffffffffffffff1916148061099a575061099982613547565b5b9050919050565b600360058111156109b5576109b46144a7565b5b60015f8581526020019081526020015f206005015f9054906101000a900460ff1660058111156109e8576109e76144a7565b5b14610a28576040517f08c379a0000000000000000000000000000000000000000000000000000000008152600401610a1f906149ad565b60405180910390fd5b3373ffffffffffffffffffffffffffffffffffffffff1660015f8581526020019081526020015f205f015f9054906101000a900473ffffffffffffffffffffffffffffffffffffffff1673ffffffffffffffffffffffffffffffffffffffff1614610ac8576040517f08c379a0000000000000000000000000000000000000000000000000000000008152600401610abf90614a15565b60405180910390fd5b5f8282905011610b0d576040517f08c379a0000000000000000000000000000000000000000000000000000000008152600401610b0490614aa3565b60405180910390fd5b610b188383836135b0565b505050565b6213c68081565b6004602052805f5260405f205f915090505481565b60016005811115610b4d57610b4c6144a7565b5b60015f8381526020019081526020015f206005015f9054906101000a900460ff166005811115610b8057610b7f6144a7565b5b14610bc0576040517f08c379a0000000000000000000000000000000000000000000000000000000008152600401610bb790614b0b565b60405180910390fd5b3373ffffffffffffffffffffffffffffffffffffffff1660015f8381526020019081526020015f205f015f9054906101000a900473ffffffffffffffffffffffffffffffffffffffff1673ffffffffffffffffffffffffffffffffffffffff1614610c60576040517f08c379a0000000000000000000000000000000000000000000000000000000008152600401610c5790614b99565b60405180910390fd5b610c6d815f5f6001611d56565b50565b60025481565b60026005811115610c8a57610c896144a7565b5b60015f8581526020019081526020015f206005015f9054906101000a900460ff166005811115610cbd57610cbc6144a7565b5b14610cfd576040517f08c379a0000000000000000000000000000000000000000000000000000000008152600401610cf490614c01565b60405180910390fd5b3373ffffffffffffffffffffffffffffffffffffffff1660015f8581526020019081526020015f206001015f9054906101000a900473ffffffffffffffffffffffffffffffffffffffff1673ffffffffffffffffffffffffffffffffffffffff1614610d9e576040517f08c379a0000000000000000000000000000000000000000000000000000000008152600401610d9590614c69565b60405180910390fd5b600360015f8581526020019081526020015f206005015f6101000a81548160ff02191690836005811115610dd557610dd46144a7565b5b02179055505f60405180608001604052805f815260200142815260200184848080601f0160208091040260200160405190810160405280939291908181526020018383808284375f81840152601f19601f82011690508083019250505050505050815260200160405180602001604052805f81525081525090508060055f8681526020019081526020015f205f820151815f0155602082015181600101556040820151816002019081610e889190614ea8565b506060820151816003019081610e9e9190614ea8565b5090505050505050565b7f3b5d4cc60d3ec3516ee8ae083bd60934f6eb2a6c54b1229985c41bfb092b2603610ed2816136fa565b60036005811115610ee657610ee56144a7565b5b60015f8481526020019081526020015f206005015f9054906101000a900460ff166005811115610f1957610f186144a7565b5b14610f59576040517f08c379a0000000000000000000000000000000000000000000000000000000008152600401610f50906149ad565b60405180910390fd5b60055f8381526020019081526020015f205f5f82015f9055600182015f9055600282015f610f879190613e24565b600382015f610f969190613e24565b5050610fa68260015f6001611d56565b5050565b60095f9054906101000a900473ffffffffffffffffffffffffffffffffffffffff1681565b60085f9054906101000a900473ffffffffffffffffffffffffffffffffffffffff1681565b5f5f610ffe61370e565b9050805f015f8481526020019081526020015f2060010154915050919050565b61102782610ff4565b611030816136fa565b61103a8383613735565b50505050565b61104861382d565b73ffffffffffffffffffffffffffffffffffffffff168173ffffffffffffffffffffffffffffffffffffffff16146110ac576040517f6697b23200000000000000000000000000000000000000000000000000000000815260040160405180910390fd5b6110b68282613834565b505050565b6003602052805f5260405f205f915090505481565b6005602052805f5260405f205f91509050805f0154908060010154908060020180546110fb90614ce1565b80601f016020809104026020016040519081016040528092919081815260200182805461112790614ce1565b80156111725780601f1061114957610100808354040283529160200191611172565b820191905f5260205f20905b81548152906001019060200180831161115557829003601f168201915b50505050509080600301805461118790614ce1565b80601f01602080910402602001604051908101604052809291908181526020018280546111b390614ce1565b80156111fe5780601f106111d5576101008083540402835291602001916111fe565b820191905f5260205f20905b8154815290600101906020018083116111e157829003601f168201915b5050505050905084565b600a5f9054906101000a900473ffffffffffffffffffffffffffffffffffffffff1681565b60036005811115611241576112406144a7565b5b60015f8381526020019081526020015f206005015f9054906101000a900460ff166005811115611274576112736144a7565b5b146112b4576040517f08c379a00000000000000000000000000000000000000000000000000000000081526004016112ab90614fc1565b60405180910390fd5b60015f8281526020019081526020015f206001015f9054906101000a900473ffffffffffffffffffffffffffffffffffffffff1673ffffffffffffffffffffffffffffffffffffffff163373ffffffffffffffffffffffffffffffffffffffff160361148c575f60055f8381526020019081526020015f20600301805461133a90614ce1565b905003611434576213c68060055f8381526020019081526020015f206001015442611365919061500c565b10156113a6576040517f08c379a000000000000000000000000000000000000000000000000000000000815260040161139d90615089565b60405180910390fd5b60055f8281526020019081526020015f205f5f82015f9055600182015f9055600282015f6113d49190613e24565b600382015f6113e39190613e24565b5050600460015f8381526020019081526020015f206005015f6101000a81548160ff0219169083600581111561141c5761141b6144a7565b5b021790555061142f8160015f6001611d56565b611487565b61143d8161392c565b600460015f8381526020019081526020015f206005015f6101000a81548160ff02191690836005811115611474576114736144a7565b5b0217905550611486815f600180611d56565b5b61153e565b6114b57f3b5d4cc60d3ec3516ee8ae083bd60934f6eb2a6c54b1229985c41bfb092b26036136fa565b60055f8281526020019081526020015f205f5f82015f9055600182015f9055600282015f6114e39190613e24565b600382015f6114f29190613e24565b5050600460015f8381526020019081526020015f206005015f6101000a81548160ff0219169083600581111561152b5761152a6144a7565b5b021790555061153d815f600180611d56565b5b50565b61156b7f548c7f0307ab2a7ea894e5c7e8c5353cc750bb9385ee2e945f189a9a83daa8ed33611ce5565b156115ab576040517f08c379a00000000000000000000000000000000000000000000000000000000081526004016115a2906150f1565b60405180910390fd5b5f81116115ed576040517f08c379a00000000000000000000000000000000000000000000000000000000081526004016115e490615159565b60405180910390fd5b5f8585905011611632576040517f08c379a0000000000000000000000000000000000000000000000000000000008152600401611629906151c1565b60405180910390fd5b5f8383905011611677576040517f08c379a000000000000000000000000000000000000000000000000000000000815260040161166e90615229565b60405180910390fd5b5f60025490505f6040518060e001604052803373ffffffffffffffffffffffffffffffffffffffff1681526020015f73ffffffffffffffffffffffffffffffffffffffff16815260200188888080601f0160208091040260200160405190810160405280939291908181526020018383808284375f81840152601f19601f82011690508083019250505050505050815260200186868080601f0160208091040260200160405190810160405280939291908181526020018383808284375f81840152601f19601f8201169050808301925050505050505081526020018481526020016001600581111561176d5761176c6144a7565b5b81526020015f81525090508060015f8481526020019081526020015f205f820151815f015f6101000a81548173ffffffffffffffffffffffffffffffffffffffff021916908373ffffffffffffffffffffffffffffffffffffffff1602179055506020820151816001015f6101000a81548173ffffffffffffffffffffffffffffffffffffffff021916908373ffffffffffffffffffffffffffffffffffffffff16021790555060408201518160020190816118299190614ea8565b50606082015181600301908161183f9190614ea8565b506080820151816004015560a0820151816005015f6101000a81548160ff02191690836005811115611874576118736144a7565b5b021790555060c0820151816006015590505060095f9054906101000a900473ffffffffffffffffffffffffffffffffffffffff1673ffffffffffffffffffffffffffffffffffffffff16631e89e05833856040518363ffffffff1660e01b81526004016118e2929190615247565b5f604051808303815f87803b1580156118f9575f5ffd5b505af115801561190b573d5f5f3e3d5ffd5b50505050600160025f828254611921919061526e565b925050819055507f4fb1726f546a7c2df9330ef0375a6331aa2f55d13233b4940f90920d9301754582888860405161195b939291906152db565b60405180910390a150505050505050565b7f548c7f0307ab2a7ea894e5c7e8c5353cc750bb9385ee2e945f189a9a83daa8ed81565b5f5481565b7fa49807205ce4d355092ef5a8a18f56e8913cf4a201fbe287825b095693c2177581565b6001602052805f5260405f205f91509050805f015f9054906101000a900473ffffffffffffffffffffffffffffffffffffffff1690806001015f9054906101000a900473ffffffffffffffffffffffffffffffffffffffff1690806002018054611a2290614ce1565b80601f0160208091040260200160405190810160405280929190818152602001828054611a4e90614ce1565b8015611a995780601f10611a7057610100808354040283529160200191611a99565b820191905f5260205f20905b815481529060010190602001808311611a7c57829003601f168201915b505050505090806003018054611aae90614ce1565b80601f0160208091040260200160405190810160405280929190818152602001828054611ada90614ce1565b8015611b255780601f10611afc57610100808354040283529160200191611b25565b820191905f5260205f20905b815481529060010190602001808311611b0857829003601f168201915b505050505090806004015490806005015f9054906101000a900460ff16908060060154905087565b600a60035f3373ffffffffffffffffffffffffffffffffffffffff1673ffffffffffffffffffffffffffffffffffffffff1681526020019081526020015f20541015611bce576040517f08c379a0000000000000000000000000000000000000000000000000000000008152600401611bc590615355565b60405180910390fd5b622e248060045f3373ffffffffffffffffffffffffffffffffffffffff1673ffffffffffffffffffffffffffffffffffffffff1681526020019081526020015f205442611c1b919061500c565b1015611c5c576040517f08c379a0000000000000000000000000000000000000000000000000000000008152600401611c53906153bd565b60405180910390fd5b60075f9054906101000a900473ffffffffffffffffffffffffffffffffffffffff1673ffffffffffffffffffffffffffffffffffffffff166340d097c3336040518263ffffffff1660e01b8152600401611cb69190614834565b5f604051808303815f87803b158015611ccd575f5ffd5b505af1158015611cdf573d5f5f3e3d5ffd5b50505050565b5f5f611cef61370e565b9050805f015f8581526020019081526020015f205f015f8473ffffffffffffffffffffffffffffffffffffffff1673ffffffffffffffffffffffffffffffffffffffff1681526020019081526020015f205f9054906101000a900460ff1691505092915050565b5f60015f8681526020019081526020015f205f015f9054906101000a900473ffffffffffffffffffffffffffffffffffffffff1690505f60015f8781526020019081526020015f206001015f9054906101000a900473ffffffffffffffffffffffffffffffffffffffff1690505f60015f8881526020019081526020015f206004015490508515611ec4575f8273ffffffffffffffffffffffffffffffffffffffff1682604051611e0690615408565b5f6040518083038185875af1925050503d805f8114611e40576040519150601f19603f3d011682016040523d82523d5f602084013e611e45565b606091505b5050905080611e89576040517f08c379a0000000000000000000000000000000000000000000000000000000008152600401611e8090615466565b60405180910390fd5b7fabb9382c3f9ac67dfe9ef9b15126298d48d2652c5fab10d215c59e414caf2b808383604051611eba929190615247565b60405180910390a1505b841561204e5760035f8473ffffffffffffffffffffffffffffffffffffffff1673ffffffffffffffffffffffffffffffffffffffff1681526020019081526020015f205f815480929190611f1790615484565b9190505550600160035f8573ffffffffffffffffffffffffffffffffffffffff1673ffffffffffffffffffffffffffffffffffffffff1681526020019081526020015f205403611fa4574260045f8573ffffffffffffffffffffffffffffffffffffffff1673ffffffffffffffffffffffffffffffffffffffff1681526020019081526020015f20819055505b5f8373ffffffffffffffffffffffffffffffffffffffff1682604051611fc990615408565b5f6040518083038185875af1925050503d805f8114612003576040519150601f19603f3d011682016040523d82523d5f602084013e612008565b606091505b505090508061204c576040517f08c379a000000000000000000000000000000000000000000000000000000000815260040161204390615466565b60405180910390fd5b505b83156120de5760095f9054906101000a900473ffffffffffffffffffffffffffffffffffffffff1673ffffffffffffffffffffffffffffffffffffffff1663076622e284836040518363ffffffff1660e01b81526004016120b0929190615247565b5f604051808303815f87803b1580156120c7575f5ffd5b505af11580156120d9573d5f5f3e3d5ffd5b505050505b60015f8881526020019081526020015f205f5f82015f6101000a81549073ffffffffffffffffffffffffffffffffffffffff0219169055600182015f6101000a81549073ffffffffffffffffffffffffffffffffffffffff0219169055600282015f61214a9190613e24565b600382015f6121599190613e24565b600482015f9055600582015f6101000a81549060ff0219169055600682015f9055505050505050505050565b61218d613e61565b60015f8381526020019081526020015f206040518060e00160405290815f82015f9054906101000a900473ffffffffffffffffffffffffffffffffffffffff1673ffffffffffffffffffffffffffffffffffffffff1673ffffffffffffffffffffffffffffffffffffffff168152602001600182015f9054906101000a900473ffffffffffffffffffffffffffffffffffffffff1673ffffffffffffffffffffffffffffffffffffffff1673ffffffffffffffffffffffffffffffffffffffff16815260200160028201805461226290614ce1565b80601f016020809104026020016040519081016040528092919081815260200182805461228e90614ce1565b80156122d95780601f106122b0576101008083540402835291602001916122d9565b820191905f5260205f20905b8154815290600101906020018083116122bc57829003601f168201915b505050505081526020016003820180546122f290614ce1565b80601f016020809104026020016040519081016040528092919081815260200182805461231e90614ce1565b80156123695780601f1061234057610100808354040283529160200191612369565b820191905f5260205f20905b81548152906001019060200180831161234c57829003601f168201915b5050505050815260200160048201548152602001600582015f9054906101000a900460ff1660058111156123a05761239f6144a7565b5b60058111156123b2576123b16144a7565b5b81526020016006820154815250509050919050565b60075f9054906101000a900473ffffffffffffffffffffffffffffffffffffffff1681565b5f5f1b81565b3373ffffffffffffffffffffffffffffffffffffffff1660015f8381526020019081526020015f205f015f9054906101000a900473ffffffffffffffffffffffffffffffffffffffff1673ffffffffffffffffffffffffffffffffffffffff16036124bf575f5460015f8381526020019081526020015f206006015442612479919061500c565b10156124ba576040517f08c379a00000000000000000000000000000000000000000000000000000000081526004016124b190615089565b60405180910390fd5b612561565b3373ffffffffffffffffffffffffffffffffffffffff1660015f8381526020019081526020015f206001015f9054906101000a900473ffffffffffffffffffffffffffffffffffffffff1673ffffffffffffffffffffffffffffffffffffffff1614612560576040517f08c379a000000000000000000000000000000000000000000000000000000000815260040161255790614c69565b60405180910390fd5b5b600460015f8381526020019081526020015f206005015f6101000a81548160ff02191690836005811115612598576125976144a7565b5b02179055506125aa815f600180611d56565b50565b7fa49807205ce4d355092ef5a8a18f56e8913cf4a201fbe287825b095693c217756125d7816136fa565b5f60015f8481526020019081526020015f205f015f9054906101000a900473ffffffffffffffffffffffffffffffffffffffff1690505f73ffffffffffffffffffffffffffffffffffffffff168173ffffffffffffffffffffffffffffffffffffffff160361267b576040517f08c379a000000000000000000000000000000000000000000000000000000000815260040161267290615515565b60405180910390fd5b61268481613a0d565b61268d81613b36565b61269681613bc0565b600260058111156126aa576126a96144a7565b5b60015f8581526020019081526020015f206005015f9054906101000a900460ff1660058111156126dd576126dc6144a7565b5b036126f4576126ef8360015f5f611d56565b612769565b60036005811115612708576127076144a7565b5b60015f8581526020019081526020015f206005015f9054906101000a900460ff16600581111561273b5761273a6144a7565b5b0361275b5761274d8360015f5f611d56565b6127568361392c565b612768565b612767835f5f5f611d56565b5b5b505050565b5f60035f8373ffffffffffffffffffffffffffffffffffffffff1673ffffffffffffffffffffffffffffffffffffffff1681526020019081526020015f20549050919050565b600160058111156127c8576127c76144a7565b5b60015f8881526020019081526020015f206005015f9054906101000a900460ff1660058111156127fb576127fa6144a7565b5b1461283b576040517f08c379a00000000000000000000000000000000000000000000000000000000081526004016128329061557d565b60405180910390fd5b5f811161287d576040517f08c379a000000000000000000000000000000000000000000000000000000000815260040161287490615159565b60405180910390fd5b5f85859050116128c2576040517f08c379a00000000000000000000000000000000000000000000000000000000081526004016128b9906151c1565b60405180910390fd5b5f8383905011612907576040517f08c379a00000000000000000000000000000000000000000000000000000000081526004016128fe90615229565b60405180910390fd5b3373ffffffffffffffffffffffffffffffffffffffff1660015f8881526020019081526020015f205f015f9054906101000a900473ffffffffffffffffffffffffffffffffffffffff1673ffffffffffffffffffffffffffffffffffffffff16146129a7576040517f08c379a000000000000000000000000000000000000000000000000000000000815260040161299e9061560b565b60405180910390fd5b5f8160015f8981526020019081526020015f20600401541115612a74578160015f8981526020019081526020015f20600401546129e4919061500c565b905060095f9054906101000a900473ffffffffffffffffffffffffffffffffffffffff1673ffffffffffffffffffffffffffffffffffffffff1663076622e233836040518363ffffffff1660e01b8152600401612a42929190615247565b5f604051808303815f87803b158015612a59575f5ffd5b505af1158015612a6b573d5f5f3e3d5ffd5b50505050612b3d565b8160015f8981526020019081526020015f20600401541015612b3c5760015f8881526020019081526020015f206004015482612ab0919061500c565b905060095f9054906101000a900473ffffffffffffffffffffffffffffffffffffffff1673ffffffffffffffffffffffffffffffffffffffff16631e89e05833836040518363ffffffff1660e01b8152600401612b0e929190615247565b5f604051808303815f87803b158015612b25575f5ffd5b505af1158015612b37573d5f5f3e3d5ffd5b505050505b5b858560015f8a81526020019081526020015f206002019182612b60929190615633565b50838360015f8a81526020019081526020015f206003019182612b84929190615633565b508160015f8981526020019081526020015f20600401819055507fe498c427997a059c76f62dc80c09e284746fb7abf268e673ad2980ec9d1ce212878787604051612bd1939291906152db565b60405180910390a150505050505050565b60068181548110612bf1575f80fd5b905f5260205f20015f915054906101000a900473ffffffffffffffffffffffffffffffffffffffff1681565b612c2682610ff4565b612c2f816136fa565b612c398383613834565b50505050565b5f5f90505b600254811015612deb573373ffffffffffffffffffffffffffffffffffffffff1660015f8381526020019081526020015f205f015f9054906101000a900473ffffffffffffffffffffffffffffffffffffffff1673ffffffffffffffffffffffffffffffffffffffff1603612dde57818015612d04575060016005811115612ccf57612cce6144a7565b5b60015f8381526020019081526020015f206005015f9054906101000a900460ff166005811115612d0257612d016144a7565b5b145b15612d4a57600560015f8381526020019081526020015f206005015f6101000a81548160ff02191690836005811115612d4057612d3f6144a7565b5b0217905550612ddd565b81158015612d9b5750600580811115612d6657612d656144a7565b5b60015f8381526020019081526020015f206005015f9054906101000a900460ff166005811115612d9957612d986144a7565b5b145b15612ddc576001805f8381526020019081526020015f206005015f6101000a81548160ff02191690836005811115612dd657612dd56144a7565b5b02179055505b5b5b8080600101915050612c44565b5050565b7f3b5d4cc60d3ec3516ee8ae083bd60934f6eb2a6c54b1229985c41bfb092b260381565b5f612e1c613d2f565b90505f815f0160089054906101000a900460ff161590505f825f015f9054906101000a900467ffffffffffffffff1690505f5f8267ffffffffffffffff16148015612e645750825b90505f60018367ffffffffffffffff16148015612e9757505f3073ffffffffffffffffffffffffffffffffffffffff163b145b905081158015612ea5575080155b15612edc576040517ff92ee8a900000000000000000000000000000000000000000000000000000000815260040160405180910390fd5b6001855f015f6101000a81548167ffffffffffffffff021916908367ffffffffffffffff1602179055508315612f29576001855f0160086101000a81548160ff0219169083151502179055505b612f31613d42565b612f5b7fa49807205ce4d355092ef5a8a18f56e8913cf4a201fbe287825b095693c2177533613735565b50612f867f3b5d4cc60d3ec3516ee8ae083bd60934f6eb2a6c54b1229985c41bfb092b26038a613735565b508660075f6101000a81548173ffffffffffffffffffffffffffffffffffffffff021916908373ffffffffffffffffffffffffffffffffffffffff1602179055508560085f6101000a81548173ffffffffffffffffffffffffffffffffffffffff021916908373ffffffffffffffffffffffffffffffffffffffff16021790555088600a5f6101000a81548173ffffffffffffffffffffffffffffffffffffffff021916908373ffffffffffffffffffffffffffffffffffffffff1602179055508760095f6101000a81548173ffffffffffffffffffffffffffffffffffffffff021916908373ffffffffffffffffffffffffffffffffffffffff16021790555083156130e1575f855f0160086101000a81548160ff0219169083151502179055507fc7f505b2f371ae2175ee4913f4499e1f2633a7b5936321eed1cdaeb6115181d260016040516130d8919061574c565b60405180910390a15b505050505050505050565b5f73ffffffffffffffffffffffffffffffffffffffff1660015f8381526020019081526020015f205f015f9054906101000a900473ffffffffffffffffffffffffffffffffffffffff1673ffffffffffffffffffffffffffffffffffffffff160361318c576040517f08c379a000000000000000000000000000000000000000000000000000000000815260040161318390615515565b60405180910390fd5b600160058111156131a05761319f6144a7565b5b60015f8381526020019081526020015f206005015f9054906101000a900460ff1660058111156131d3576131d26144a7565b5b14613213576040517f08c379a000000000000000000000000000000000000000000000000000000000815260040161320a906157af565b60405180910390fd5b60015f8281526020019081526020015f206004015434101561326a576040517f08c379a000000000000000000000000000000000000000000000000000000000815260040161326190615817565b60405180910390fd5b6132c67f548c7f0307ab2a7ea894e5c7e8c5353cc750bb9385ee2e945f189a9a83daa8ed60015f8481526020019081526020015f205f015f9054906101000a900473ffffffffffffffffffffffffffffffffffffffff16611ce5565b15613306576040517f08c379a00000000000000000000000000000000000000000000000000000000081526004016132fd906150f1565b60405180910390fd5b3360015f8381526020019081526020015f206001015f6101000a81548173ffffffffffffffffffffffffffffffffffffffff021916908373ffffffffffffffffffffffffffffffffffffffff160217905550600260015f8381526020019081526020015f206005015f6101000a81548160ff0219169083600581111561338f5761338e6144a7565b5b02179055504260015f8381526020019081526020015f20600601819055507fe3d4187f6ca4248660cc0ac8b8056515bac4a8132be2eca31d6d0cc170722a7e33826040516133de929190615247565b60405180910390a150565b6133f1613ed7565b60055f8381526020019081526020015f206040518060800160405290815f82015481526020016001820154815260200160028201805461343090614ce1565b80601f016020809104026020016040519081016040528092919081815260200182805461345c90614ce1565b80156134a75780601f1061347e576101008083540402835291602001916134a7565b820191905f5260205f20905b81548152906001019060200180831161348a57829003601f168201915b505050505081526020016003820180546134c090614ce1565b80601f01602080910402602001604051908101604052809291908181526020018280546134ec90614ce1565b80156135375780601f1061350e57610100808354040283529160200191613537565b820191905f5260205f20905b81548152906001019060200180831161351a57829003601f168201915b5050505050815250509050919050565b5f7f01ffc9a7000000000000000000000000000000000000000000000000000000007bffffffffffffffffffffffffffffffffffffffffffffffffffffffff1916827bffffffffffffffffffffffffffffffffffffffffffffffffffffffff1916149050919050565b5f60015f8581526020019081526020015f206001015f9054906101000a900473ffffffffffffffffffffffffffffffffffffffff1690505f60055f8681526020019081526020015f209050838382600301918261360e929190615633565b50600a5f9054906101000a900473ffffffffffffffffffffffffffffffffffffffff1673ffffffffffffffffffffffffffffffffffffffff166324ffa4118683600201846003016040518463ffffffff1660e01b8152600401613673939291906158b6565b6020604051808303815f875af115801561368f573d5f5f3e3d5ffd5b505050506040513d601f19601f820116820180604052508101906136b3919061590d565b815f01819055507fbd7453469187da17528f45cf1793962104dabbc6d7f267bc42903f77d1a76d1a82866040516136eb929190615247565b60405180910390a15050505050565b61370b8161370661382d565b613d4c565b50565b5f7f02dd7bc7dec4dceedda775e58dd541e08a116c6c53815c0bd028192f7b626800905090565b5f5f61373f61370e565b905061374b8484611ce5565b613822576001815f015f8681526020019081526020015f205f015f8573ffffffffffffffffffffffffffffffffffffffff1673ffffffffffffffffffffffffffffffffffffffff1681526020019081526020015f205f6101000a81548160ff0219169083151502179055506137be61382d565b73ffffffffffffffffffffffffffffffffffffffff168373ffffffffffffffffffffffffffffffffffffffff16857f2f8788117e7eff1d82e926ec794901d17c78024a50270940304540a733656f0d60405160405180910390a46001915050613827565b5f9150505b92915050565b5f33905090565b5f5f61383e61370e565b905061384a8484611ce5565b15613921575f815f015f8681526020019081526020015f205f015f8573ffffffffffffffffffffffffffffffffffffffff1673ffffffffffffffffffffffffffffffffffffffff1681526020019081526020015f205f6101000a81548160ff0219169083151502179055506138bd61382d565b73ffffffffffffffffffffffffffffffffffffffff168373ffffffffffffffffffffffffffffffffffffffff16857ff6391f5c32d9c69d2a47ea670b442974b53935d1edc7fd64eb21e047a839171b60405160405180910390a46001915050613926565b5f9150505b92915050565b5f60055f8381526020019081526020015f205f01549050600a5f9054906101000a900473ffffffffffffffffffffffffffffffffffffffff1673ffffffffffffffffffffffffffffffffffffffff1663df02935c826040518263ffffffff1660e01b815260040161399d91906140d3565b5f604051808303815f87803b1580156139b4575f5ffd5b505af11580156139c6573d5f5f3e3d5ffd5b5050505060055f8381526020019081526020015f205f5f82015f9055600182015f9055600282015f6139f89190613e24565b600382015f613a079190613e24565b50505050565b60075f9054906101000a900473ffffffffffffffffffffffffffffffffffffffff1673ffffffffffffffffffffffffffffffffffffffff16639d886a68826040518263ffffffff1660e01b8152600401613a679190614834565b602060405180830381865afa158015613a82573d5f5f3e3d5ffd5b505050506040513d601f19601f82011682018060405250810190613aa6919061594c565b15613b335760075f9054906101000a900473ffffffffffffffffffffffffffffffffffffffff1673ffffffffffffffffffffffffffffffffffffffff166375c97027826040518263ffffffff1660e01b8152600401613b059190614834565b5f604051808303815f87803b158015613b1c575f5ffd5b505af1158015613b2e573d5f5f3e3d5ffd5b505050505b50565b60085f9054906101000a900473ffffffffffffffffffffffffffffffffffffffff1673ffffffffffffffffffffffffffffffffffffffff16637e9d2ac1826040518263ffffffff1660e01b8152600401613b909190614834565b5f604051808303815f87803b158015613ba7575f5ffd5b505af1158015613bb9573d5f5f3e3d5ffd5b5050505050565b613bea7f548c7f0307ab2a7ea894e5c7e8c5353cc750bb9385ee2e945f189a9a83daa8ed8261101e565b5f60035f8373ffffffffffffffffffffffffffffffffffffffff1673ffffffffffffffffffffffffffffffffffffffff1681526020019081526020015f20819055505f60045f8373ffffffffffffffffffffffffffffffffffffffff1673ffffffffffffffffffffffffffffffffffffffff1681526020019081526020015f208190555060095f9054906101000a900473ffffffffffffffffffffffffffffffffffffffff1673ffffffffffffffffffffffffffffffffffffffff166374cb9ed8826040518263ffffffff1660e01b8152600401613cc89190614834565b5f604051808303815f87803b158015613cdf575f5ffd5b505af1158015613cf1573d5f5f3e3d5ffd5b505050507f3792d06e03cef23745f2e711098be52e90a31d22cb5f39e60d75393ee83412b581604051613d249190614834565b60405180910390a150565b5f5f613d39613d9d565b90508091505090565b613d4a613dc6565b565b613d568282611ce5565b613d995780826040517fe2517d3f000000000000000000000000000000000000000000000000000000008152600401613d90929190615977565b60405180910390fd5b5050565b5f7ff0c57e16840df040f15088dc2f81fe391c3923bec73e23a9662efc9c229c6a005f1b905090565b613dce613e06565b613e04576040517fd7e6bcf800000000000000000000000000000000000000000000000000000000815260040160405180910390fd5b565b5f613e0f613d2f565b5f0160089054906101000a900460ff16905090565b508054613e3090614ce1565b5f825580601f10613e415750613e5e565b601f0160209004905f5260205f2090810190613e5d9190613efd565b5b50565b6040518060e001604052805f73ffffffffffffffffffffffffffffffffffffffff1681526020015f73ffffffffffffffffffffffffffffffffffffffff16815260200160608152602001606081526020015f81526020015f6005811115613ecb57613eca6144a7565b5b81526020015f81525090565b60405180608001604052805f81526020015f815260200160608152602001606081525090565b5b80821115613f14575f815f905550600101613efe565b5090565b5f5ffd5b5f5ffd5b5f7fffffffff0000000000000000000000000000000000000000000000000000000082169050919050565b613f5481613f20565b8114613f5e575f5ffd5b50565b5f81359050613f6f81613f4b565b92915050565b5f60208284031215613f8a57613f89613f18565b5b5f613f9784828501613f61565b91505092915050565b5f8115159050919050565b613fb481613fa0565b82525050565b5f602082019050613fcd5f830184613fab565b92915050565b5f819050919050565b613fe581613fd3565b8114613fef575f5ffd5b50565b5f8135905061400081613fdc565b92915050565b5f5ffd5b5f5ffd5b5f5ffd5b5f5f83601f84011261402757614026614006565b5b8235905067ffffffffffffffff8111156140445761404361400a565b5b6020830191508360018202830111156140605761405f61400e565b5b9250929050565b5f5f5f6040848603121561407e5761407d613f18565b5b5f61408b86828701613ff2565b935050602084013567ffffffffffffffff8111156140ac576140ab613f1c565b5b6140b886828701614012565b92509250509250925092565b6140cd81613fd3565b82525050565b5f6020820190506140e65f8301846140c4565b92915050565b5f73ffffffffffffffffffffffffffffffffffffffff82169050919050565b5f614115826140ec565b9050919050565b6141258161410b565b811461412f575f5ffd5b50565b5f813590506141408161411c565b92915050565b5f6020828403121561415b5761415a613f18565b5b5f61416884828501614132565b91505092915050565b5f6020828403121561418657614185613f18565b5b5f61419384828501613ff2565b91505092915050565b5f819050919050565b5f6141bf6141ba6141b5846140ec565b61419c565b6140ec565b9050919050565b5f6141d0826141a5565b9050919050565b5f6141e1826141c6565b9050919050565b6141f1816141d7565b82525050565b5f60208201905061420a5f8301846141e8565b92915050565b5f61421a826141c6565b9050919050565b61422a81614210565b82525050565b5f6020820190506142435f830184614221565b92915050565b5f819050919050565b61425b81614249565b8114614265575f5ffd5b50565b5f8135905061427681614252565b92915050565b5f6020828403121561429157614290613f18565b5b5f61429e84828501614268565b91505092915050565b6142b081614249565b82525050565b5f6020820190506142c95f8301846142a7565b92915050565b5f5f604083850312156142e5576142e4613f18565b5b5f6142f285828601614268565b925050602061430385828601614132565b9150509250929050565b5f81519050919050565b5f82825260208201905092915050565b8281835e5f83830152505050565b5f601f19601f8301169050919050565b5f61434f8261430d565b6143598185614317565b9350614369818560208601614327565b61437281614335565b840191505092915050565b5f6080820190506143905f8301876140c4565b61439d60208301866140c4565b81810360408301526143af8185614345565b905081810360608301526143c38184614345565b905095945050505050565b5f6143d8826141c6565b9050919050565b6143e8816143ce565b82525050565b5f6020820190506144015f8301846143df565b92915050565b5f5f5f5f5f606086880312156144205761441f613f18565b5b5f86013567ffffffffffffffff81111561443d5761443c613f1c565b5b61444988828901614012565b9550955050602086013567ffffffffffffffff81111561446c5761446b613f1c565b5b61447888828901614012565b9350935050604061448b88828901613ff2565b9150509295509295909350565b6144a18161410b565b82525050565b7f4e487b71000000000000000000000000000000000000000000000000000000005f52602160045260245ffd5b600681106144e5576144e46144a7565b5b50565b5f8190506144f5826144d4565b919050565b5f614504826144e8565b9050919050565b614514816144fa565b82525050565b5f60e08201905061452d5f83018a614498565b61453a6020830189614498565b818103604083015261454c8188614345565b905081810360608301526145608187614345565b905061456f60808301866140c4565b61457c60a083018561450b565b61458960c08301846140c4565b98975050505050505050565b61459e81613fa0565b81146145a8575f5ffd5b50565b5f813590506145b981614595565b92915050565b5f5f5f5f608085870312156145d7576145d6613f18565b5b5f6145e487828801613ff2565b94505060206145f5878288016145ab565b9350506040614606878288016145ab565b9250506060614617878288016145ab565b91505092959194509250565b61462c8161410b565b82525050565b5f82825260208201905092915050565b5f61464c8261430d565b6146568185614632565b9350614666818560208601614327565b61466f81614335565b840191505092915050565b61468381613fd3565b82525050565b614692816144fa565b82525050565b5f60e083015f8301516146ad5f860182614623565b5060208301516146c06020860182614623565b50604083015184820360408601526146d88282614642565b915050606083015184820360608601526146f28282614642565b9150506080830151614707608086018261467a565b5060a083015161471a60a0860182614689565b5060c083015161472d60c086018261467a565b508091505092915050565b5f6020820190508181035f8301526147508184614698565b905092915050565b5f614762826141c6565b9050919050565b61477281614758565b82525050565b5f60208201905061478b5f830184614769565b92915050565b5f5f5f5f5f5f608087890312156147ab576147aa613f18565b5b5f6147b889828a01613ff2565b965050602087013567ffffffffffffffff8111156147d9576147d8613f1c565b5b6147e589828a01614012565b9550955050604087013567ffffffffffffffff81111561480857614807613f1c565b5b61481489828a01614012565b9350935050606061482789828a01613ff2565b9150509295509295509295565b5f6020820190506148475f830184614498565b92915050565b5f6020828403121561486257614861613f18565b5b5f61486f848285016145ab565b91505092915050565b5f5f5f5f608085870312156148905761488f613f18565b5b5f61489d87828801614132565b94505060206148ae87828801614132565b93505060406148bf87828801614132565b92505060606148d087828801614132565b91505092959194509250565b5f608083015f8301516148f15f86018261467a565b506020830151614904602086018261467a565b506040830151848203604086015261491c8282614642565b915050606083015184820360608601526149368282614642565b9150508091505092915050565b5f6020820190508181035f83015261495b81846148dc565b905092915050565b7f4974656d206e6f742064697370757465640000000000000000000000000000005f82015250565b5f614997601183614317565b91506149a282614963565b602082019050919050565b5f6020820190508181035f8301526149c48161498b565b9050919050565b7f4e6f74207468652073656c6c65720000000000000000000000000000000000005f82015250565b5f6149ff600e83614317565b9150614a0a826149cb565b602082019050919050565b5f6020820190508181035f830152614a2c816149f3565b9050919050565b7f53656c6c6572277320726561736f6e696e672063616e6e6f7420626520656d705f8201527f7479000000000000000000000000000000000000000000000000000000000000602082015250565b5f614a8d602283614317565b9150614a9882614a33565b604082019050919050565b5f6020820190508181035f830152614aba81614a81565b9050919050565b7f53616c652063616e27742062652063616e63656c6c65640000000000000000005f82015250565b5f614af5601783614317565b9150614b0082614ac1565b602082019050919050565b5f6020820190508181035f830152614b2281614ae9565b9050919050565b7f4f6e6c79207468652073656c6c65722063616e2063616e63656c2074686520735f8201527f616c650000000000000000000000000000000000000000000000000000000000602082015250565b5f614b83602383614317565b9150614b8e82614b29565b604082019050919050565b5f6020820190508181035f830152614bb081614b77565b9050919050565b7f4974656d206e6f742070656e64696e67000000000000000000000000000000005f82015250565b5f614beb601083614317565b9150614bf682614bb7565b602082019050919050565b5f6020820190508181035f830152614c1881614bdf565b9050919050565b7f4e6f7420746865206275796572000000000000000000000000000000000000005f82015250565b5f614c53600d83614317565b9150614c5e82614c1f565b602082019050919050565b5f6020820190508181035f830152614c8081614c47565b9050919050565b7f4e487b71000000000000000000000000000000000000000000000000000000005f52604160045260245ffd5b7f4e487b71000000000000000000000000000000000000000000000000000000005f52602260045260245ffd5b5f6002820490506001821680614cf857607f821691505b602082108103614d0b57614d0a614cb4565b5b50919050565b5f819050815f5260205f209050919050565b5f6020601f8301049050919050565b5f82821b905092915050565b5f60088302614d6d7fffffffffffffffffffffffffffffffffffffffffffffffffffffffffffffffff82614d32565b614d778683614d32565b95508019841693508086168417925050509392505050565b5f614da9614da4614d9f84613fd3565b61419c565b613fd3565b9050919050565b5f819050919050565b614dc283614d8f565b614dd6614dce82614db0565b848454614d3e565b825550505050565b5f5f905090565b614ded614dde565b614df8818484614db9565b505050565b5b81811015614e1b57614e105f82614de5565b600181019050614dfe565b5050565b601f821115614e6057614e3181614d11565b614e3a84614d23565b81016020851015614e49578190505b614e5d614e5585614d23565b830182614dfd565b50505b505050565b5f82821c905092915050565b5f614e805f1984600802614e65565b1980831691505092915050565b5f614e988383614e71565b9150826002028217905092915050565b614eb18261430d565b67ffffffffffffffff811115614eca57614ec9614c87565b5b614ed48254614ce1565b614edf828285614e1f565b5f60209050601f831160018114614f10575f8415614efe578287015190505b614f088582614e8d565b865550614f6f565b601f198416614f1e86614d11565b5f5b82811015614f4557848901518255600182019150602085019450602081019050614f20565b86831015614f625784890151614f5e601f891682614e71565b8355505b6001600288020188555050505b505050505050565b7f44697370757465206e6f7420666f756e640000000000000000000000000000005f82015250565b5f614fab601183614317565b9150614fb682614f77565b602082019050919050565b5f6020820190508181035f830152614fd881614f9f565b9050919050565b7f4e487b71000000000000000000000000000000000000000000000000000000005f52601160045260245ffd5b5f61501682613fd3565b915061502183613fd3565b925082820390508181111561503957615038614fdf565b5b92915050565b7f496e73756666696369656e7420656c61707365642074696d65000000000000005f82015250565b5f615073601983614317565b915061507e8261503f565b602082019050919050565b5f6020820190508181035f8301526150a081615067565b9050919050565b7f53656c6c657220697320626c61636b6c697374656400000000000000000000005f82015250565b5f6150db601583614317565b91506150e6826150a7565b602082019050919050565b5f6020820190508181035f830152615108816150cf565b9050919050565b7f5072696365206d7573742062652067726561746572207468616e2030000000005f82015250565b5f615143601c83614317565b915061514e8261510f565b602082019050919050565b5f6020820190508181035f83015261517081615137565b9050919050565b7f5469746c652063616e6e6f7420626520656d70747900000000000000000000005f82015250565b5f6151ab601583614317565b91506151b682615177565b602082019050919050565b5f6020820190508181035f8301526151d88161519f565b9050919050565b7f4465736372697074696f6e2063616e6e6f7420626520656d70747900000000005f82015250565b5f615213601b83614317565b915061521e826151df565b602082019050919050565b5f6020820190508181035f83015261524081615207565b9050919050565b5f60408201905061525a5f830185614498565b61526760208301846140c4565b9392505050565b5f61527882613fd3565b915061528383613fd3565b925082820190508082111561529b5761529a614fdf565b5b92915050565b828183375f83830152505050565b5f6152ba8385614317565b93506152c78385846152a1565b6152d083614335565b840190509392505050565b5f6040820190506152ee5f8301866140c4565b81810360208301526153018184866152af565b9050949350505050565b7f4e6f7420656e6f7567682076616c69642073616c6573000000000000000000005f82015250565b5f61533f601683614317565b915061534a8261530b565b602082019050919050565b5f6020820190508181035f83015261536c81615333565b9050919050565b7f4e6f7420656e6f7567682074696d652068617320656c617073656400000000005f82015250565b5f6153a7601b83614317565b91506153b282615373565b602082019050919050565b5f6020820190508181035f8301526153d48161539b565b9050919050565b5f81905092915050565b50565b5f6153f35f836153db565b91506153fe826153e5565b5f82019050919050565b5f615412826153e8565b9150819050919050565b7f53616c65207061796d656e74206661696c6564000000000000000000000000005f82015250565b5f615450601383614317565b915061545b8261541c565b602082019050919050565b5f6020820190508181035f83015261547d81615444565b9050919050565b5f61548e82613fd3565b91507fffffffffffffffffffffffffffffffffffffffffffffffffffffffffffffffff82036154c0576154bf614fdf565b5b600182019050919050565b7f6974656d496420646f6573206e6f7420657869737400000000000000000000005f82015250565b5f6154ff601583614317565b915061550a826154cb565b602082019050919050565b5f6020820190508181035f83015261552c816154f3565b9050919050565b7f53616c652063616e2774206265206d6f646966696564000000000000000000005f82015250565b5f615567601683614317565b915061557282615533565b602082019050919050565b5f6020820190508181035f8301526155948161555b565b9050919050565b7f4f6e6c79207468652073656c6c65722063616e206d6f646966792074686520735f8201527f616c650000000000000000000000000000000000000000000000000000000000602082015250565b5f6155f5602383614317565b91506156008261559b565b604082019050919050565b5f6020820190508181035f830152615622816155e9565b9050919050565b5f82905092915050565b61563d8383615629565b67ffffffffffffffff81111561565657615655614c87565b5b6156608254614ce1565b61566b828285614e1f565b5f601f831160018114615698575f8415615686578287013590505b6156908582614e8d565b8655506156f7565b601f1984166156a686614d11565b5f5b828110156156cd578489013582556001820191506020850194506020810190506156a8565b868310156156ea57848901356156e6601f891682614e71565b8355505b6001600288020188555050505b50505050505050565b5f819050919050565b5f67ffffffffffffffff82169050919050565b5f61573661573161572c84615700565b61419c565b615709565b9050919050565b6157468161571c565b82525050565b5f60208201905061575f5f83018461573d565b92915050565b7f4974656d2063616e6e6f7420626520626f7567687400000000000000000000005f82015250565b5f615799601583614317565b91506157a482615765565b602082019050919050565b5f6020820190508181035f8301526157c68161578d565b9050919050565b7f496e636f727265637420616d6f756e74206f662045746865722073656e7400005f82015250565b5f615801601e83614317565b915061580c826157cd565b602082019050919050565b5f6020820190508181035f83015261582e816157f5565b9050919050565b5f815461584181614ce1565b61584b8186614317565b9450600182165f8114615865576001811461587b576158ad565b60ff1983168652811515602002860193506158ad565b61588485614d11565b5f5b838110156158a557815481890152600182019150602081019050615886565b808801955050505b50505092915050565b5f6060820190506158c95f8301866140c4565b81810360208301526158db8185615835565b905081810360408301526158ef8184615835565b9050949350505050565b5f8151905061590781613fdc565b92915050565b5f6020828403121561592257615921613f18565b5b5f61592f848285016158f9565b91505092915050565b5f8151905061594681614595565b92915050565b5f6020828403121561596157615960613f18565b5b5f61596e84828501615938565b91505092915050565b5f60408201905061598a5f830185614498565b61599760208301846142a7565b939250505056fea264697066735822122071bb5b4fba79306f0e9ff84fd46b3bf5c06301980acc31be0dc4820dc1b28a3964736f6c634300081e0033","linkReferences":{}},"methodIdentifiers":{"ADMIN_ROLE()":"75b238fc","BLACKLISTED_ROLE()":"62b199c5","DAO_ROLE()":"e9c26518","DEFAULT_ADMIN_ROLE()":"a217fddf","MAX_DISPUTE_WAITING_FOR_REPLY()":"113b8f49","MAX_PENDING_TIME()":"72af5ba3","blacklistedSellers(uint256)":"c2b9cf8d","cancelActiveSale(uint256)":"1d24e299","claimPowersellerBadge()":"8409ae49","closeSale(uint256,bool,bool,bool)":"91eedc62","coolNFTContract()":"237e3feb","daoContract()":"4a7ffcbc","disputeSale(uint256,string)":"20ca2d27","disputedItems(uint256)":"424f7eda","disputedSaleReply(uint256,string)":"0fa3d7d6","doBuy(uint256)":"fb7c0a3f","endDispute(uint256)":"5187b7a0","firstValidSaleTimestamp(address)":"15248bf9","getRoleAdmin(bytes32)":"248a9ca3","grantRole(bytes32,address)":"2f2ff15d","hasRole(bytes32,address)":"91d14854","initialize(address,address,address,address)":"f8c8765e","itemReceived(uint256)":"a55dd46b","modifySale(uint256,string,string,uint256)":"ab0378be","newSale(string,string,uint256)":"5937204e","numValidSales(address)":"3b75b691","offerIndex()":"1f22b677","offeredItems(uint256)":"7b5e7e93","powersellerContract()":"9cef900e","queryDispute(uint256)":"fe253de2","queryNumValidSales(address)":"a6766e95","querySale(uint256)":"98f52bd1","removeMaliciousSale(uint256)":"a610c298","renounceRole(bytes32,address)":"36568abe","returnItem(uint256)":"223ed1dd","revokeRole(bytes32,address)":"d547741f","setVacationMode(bool)":"d9209de8","supportsInterface(bytes4)":"01ffc9a7","vaultContract()":"2274346b"},"id":57}