{"abi":[{"type":"constructor","inputs":[{"name":"powersellerNFT","type":"address","internalType":"address"},{"name":"dao","type":"address","internalType":"address"}],"stateMutability":"nonpayable"},{"type":"function","name":"CONTROL_ROLE","inputs":[],"outputs":[{"name":"","type":"bytes32","internalType":"bytes32"}],"stateMutability":"view"},{"type":"function","name":"DAO_ROLE","inputs":[],"outputs":[{"name":"","type":"bytes32","internalType":"bytes32"}],"stateMutability":"view"},{"type":"function","name":"DEFAULT_ADMIN_ROLE","inputs":[],"outputs":[{"name":"","type":"bytes32","internalType":"bytes32"}],"stateMutability":"view"},{"type":"function","name":"POWERSELLER_NFT_ADDRESS","inputs":[],"outputs":[{"name":"","type":"address","internalType":"address"}],"stateMutability":"view"},{"type":"function","name":"balance","inputs":[{"name":"","type":"address","internalType":"address"}],"outputs":[{"name":"","type":"uint256","internalType":"uint256"}],"stateMutability":"view"},{"type":"function","name":"claimRewards","inputs":[],"outputs":[],"stateMutability":"nonpayable"},{"type":"function","name":"doLock","inputs":[{"name":"user","type":"address","internalType":"address"},{"name":"amount","type":"uint256","internalType":"uint256"}],"outputs":[],"stateMutability":"nonpayable"},{"type":"function","name":"doSlash","inputs":[{"name":"badUser","type":"address","internalType":"address"}],"outputs":[],"stateMutability":"nonpayable"},{"type":"function","name":"doStake","inputs":[],"outputs":[],"stateMutability":"payable"},{"type":"function","name":"doUnlock","inputs":[{"name":"user","type":"address","internalType":"address"},{"name":"amount","type":"uint256","internalType":"uint256"}],"outputs":[],"stateMutability":"nonpayable"},{"type":"function","name":"doUnstake","inputs":[{"name":"amount","type":"uint256","internalType":"uint256"}],"outputs":[],"stateMutability":"nonpayable"},{"type":"function","name":"getRoleAdmin","inputs":[{"name":"role","type":"bytes32","internalType":"bytes32"}],"outputs":[{"name":"","type":"bytes32","internalType":"bytes32"}],"stateMutability":"view"},{"type":"function","name":"grantRole","inputs":[{"name":"role","type":"bytes32","internalType":"bytes32"},{"name":"account","type":"address","internalType":"address"}],"outputs":[],"stateMutability":"nonpayable"},{"type":"function","name":"hasRole","inputs":[{"name":"role","type":"bytes32","internalType":"bytes32"},{"name":"account","type":"address","internalType":"address"}],"outputs":[{"name":"","type":"bool","internalType":"bool"}],"stateMutability":"view"},{"type":"function","name":"lockedFunds","inputs":[{"name":"","type":"address","internalType":"address"}],"outputs":[{"name":"","type":"uint256","internalType":"uint256"}],"stateMutability":"view"},{"type":"function","name":"maxClaimableAmount","inputs":[],"outputs":[{"name":"","type":"uint256","internalType":"uint256"}],"stateMutability":"view"},{"type":"function","name":"renounceRole","inputs":[{"name":"role","type":"bytes32","internalType":"bytes32"},{"name":"callerConfirmation","type":"address","internalType":"address"}],"outputs":[],"stateMutability":"nonpayable"},{"type":"function","name":"revokeRole","inputs":[{"name":"role","type":"bytes32","internalType":"bytes32"},{"name":"account","type":"address","internalType":"address"}],"outputs":[],"stateMutability":"nonpayable"},{"type":"function","name":"rewardsClaimed","inputs":[{"name":"","type":"address","internalType":"address"}],"outputs":[{"name":"","type":"uint256","internalType":"uint256"}],"stateMutability":"view"},{"type":"function","name":"setShop","inputs":[{"name":"shopAddress","type":"address","internalType":"address"}],"outputs":[],"stateMutability":"nonpayable"},{"type":"function","name":"supportsInterface","inputs":[{"name":"interfaceId","type":"bytes4","internalType":"bytes4"}],"outputs":[{"name":"","type":"bool","internalType":"bool"}],"stateMutability":"view"},{"type":"function","name":"totalSlashed","inputs":[],"outputs":[{"name":"","type":"uint256","internalType":"uint256"}],"stateMutability":"view"},{"type":"function","name":"userBalance","inputs":[{"name":"user","type":"address","internalType":"address"}],"outputs":[{"name":"","type":"uint256","internalType":"uint256"}],"stateMutability":"view"},{"type":"function","name":"userLockedBalance","inputs":[{"name":"user","type":"address","internalType":"address"}],"outputs":[{"name":"","type":"uint256","internalType":"uint256"}],"stateMutability":"view"},{"type":"function","name":"vaultBalance","inputs":[],"outputs":[{"name":"","type":"uint256","internalType":"uint256"}],"stateMutability":"view"},{"type":"event","name":"Locked","inputs":[{"name":"user","type":"address","indexed":false,"internalType":"address"},{"name":"amount","type":"uint256","indexed":false,"internalType":"uint256"}],"anonymous":false},{"type":"event","name":"RewardsClaimed","inputs":[{"name":"user","type":"address","indexed":false,"internalType":"address"},{"name":"amount","type":"uint256","indexed":false,"internalType":"uint256"}],"anonymous":false},{"type":"event","name":"RoleAdminChanged","inputs":[{"name":"role","type":"bytes32","indexed":true,"internalType":"bytes32"},{"name":"previousAdminRole","type":"bytes32","indexed":true,"internalType":"bytes32"},{"name":"newAdminRole","type":"bytes32","indexed":true,"internalType":"bytes32"}],"anonymous":false},{"type":"event","name":"RoleGranted","inputs":[{"name":"role","type":"bytes32","indexed":true,"internalType":"bytes32"},{"name":"account","type":"address","indexed":true,"internalType":"address"},{"name":"sender","type":"address","indexed":true,"internalType":"address"}],"anonymous":false},{"type":"event","name":"RoleRevoked","inputs":[{"name":"role","type":"bytes32","indexed":true,"internalType":"bytes32"},{"name":"account","type":"address","indexed":true,"internalType":"address"},{"name":"sender","type":"address","indexed":true,"internalType":"address"}],"anonymous":false},{"type":"event","name":"Slashed","inputs":[{"name":"user","type":"address","indexed":false,"internalType":"address"},{"name":"amount","type":"uint256","indexed":false,"internalType":"uint256"}],"anonymous":false},{"type":"event","name":"Stake","inputs":[{"name":"user","type":"address","indexed":false,"internalType":"address"},{"name":"amount","type":"uint256","indexed":false,"internalType":"uint256"}],"anonymous":false},{"type":"event","name":"Unlocked","inputs":[{"name":"user","type":"address","indexed":false,"internalType":"address"},{"name":"amount","type":"uint256","indexed":false,"internalType":"uint256"}],"anonymous":false},{"type":"event","name":"Unstake","inputs":[{"name":"user","type":"address","indexed":false,"internalType":"address"},{"name":"amount","type":"uint256","indexed":false,"internalType":"uint256"}],"anonymous":false},{"type":"error","name":"AccessControlBadConfirmation","inputs":[]},{"type":"error","name":"AccessControlUnauthorizedAccount","inputs":[{"name":"account","type":"address","internalType":"address"},{"name":"neededRole","type":"bytes32","internalType":"bytes32"}]}],"bytecode":{"object":"0x60a06040525f60015f6101000a81548160ff021916908315150217905550348015610028575f5ffd5b506040516123f83803806123f8833981810160405281019061004a91906102a4565b61007a7f3b5d4cc60d3ec3516ee8ae083bd60934f6eb2a6c54b1229985c41bfb092b2603826100e760201b60201c565b506100ab7f126c7c8716c8f1c7c73a7370c820c7d73a9b4ed0ad633cfce1092f9ff47c8574336100e760201b60201c565b508173ffffffffffffffffffffffffffffffffffffffff1660808173ffffffffffffffffffffffffffffffffffffffff168152505050506102e2565b5f6100f883836101dc60201b60201c565b6101d25760015f5f8581526020019081526020015f205f015f8473ffffffffffffffffffffffffffffffffffffffff1673ffffffffffffffffffffffffffffffffffffffff1681526020019081526020015f205f6101000a81548160ff02191690831515021790555061016f61023f60201b60201c565b73ffffffffffffffffffffffffffffffffffffffff168273ffffffffffffffffffffffffffffffffffffffff16847f2f8788117e7eff1d82e926ec794901d17c78024a50270940304540a733656f0d60405160405180910390a4600190506101d6565b5f90505b92915050565b5f5f5f8481526020019081526020015f205f015f8373ffffffffffffffffffffffffffffffffffffffff1673ffffffffffffffffffffffffffffffffffffffff1681526020019081526020015f205f9054906101000a900460ff16905092915050565b5f33905090565b5f5ffd5b5f73ffffffffffffffffffffffffffffffffffffffff82169050919050565b5f6102738261024a565b9050919050565b61028381610269565b811461028d575f5ffd5b50565b5f8151905061029e8161027a565b92915050565b5f5f604083850312156102ba576102b9610246565b5b5f6102c785828601610290565b92505060206102d885828601610290565b9150509250929050565b6080516120f06103085f395f8181610ab60152818161122d01526116e601526120f05ff3fe608060405260043610610165575f3560e01c806382cb811f116100d0578063b86247d711610089578063d547741f11610063578063d547741f14610517578063d7a1e6ab1461053f578063e3d670d714610569578063e9c26518146105a557610165565b8063b86247d714610477578063ce965f6a146104b3578063d3f730fd146104db57610165565b806382cb811f1461035757806386e07f2f146103815780638cf2b63e146103ab57806391d14854146103e7578063a201bbdd14610423578063a217fddf1461044d57610165565b80632f2ff15d116101225780632f2ff15d1461029757806336568abe146102bf578063372500ab146102e75780634697fbfa146102fd5780634efa7e701461032557806374cb9ed81461032f57610165565b80630103c92b1461016957806301ffc9a7146101a5578063076622e2146101e15780630bf6cc08146102095780631e89e05814610233578063248a9ca31461025b575b5f5ffd5b348015610174575f5ffd5b5061018f600480360381019061018a9190611928565b6105cf565b60405161019c919061196b565b60405180910390f35b3480156101b0575f5ffd5b506101cb60048036038101906101c691906119d9565b610615565b6040516101d89190611a1e565b60405180910390f35b3480156101ec575f5ffd5b5061020760048036038101906102029190611a61565b61068e565b005b348015610214575f5ffd5b5061021d61080b565b60405161022a919061196b565b60405180910390f35b34801561023e575f5ffd5b5061025960048036038101906102549190611a61565b610812565b005b348015610266575f5ffd5b50610281600480360381019061027c9190611ad2565b6109fb565b60405161028e9190611b0c565b60405180910390f35b3480156102a2575f5ffd5b506102bd60048036038101906102b89190611b25565b610a17565b005b3480156102ca575f5ffd5b506102e560048036038101906102e09190611b25565b610a39565b005b3480156102f2575f5ffd5b506102fb610ab4565b005b348015610308575f5ffd5b50610323600480360381019061031e9190611b63565b610dbf565b005b61032d611025565b005b34801561033a575f5ffd5b5061035560048036038101906103509190611928565b6110f5565b005b348015610362575f5ffd5b5061036b61122b565b6040516103789190611b9d565b60405180910390f35b34801561038c575f5ffd5b5061039561124f565b6040516103a2919061196b565b60405180910390f35b3480156103b6575f5ffd5b506103d160048036038101906103cc9190611928565b611255565b6040516103de919061196b565b60405180910390f35b3480156103f2575f5ffd5b5061040d60048036038101906104089190611b25565b61129b565b60405161041a9190611a1e565b60405180910390f35b34801561042e575f5ffd5b506104376112fe565b604051610444919061196b565b60405180910390f35b348015610458575f5ffd5b50610461611304565b60405161046e9190611b0c565b60405180910390f35b348015610482575f5ffd5b5061049d60048036038101906104989190611928565b61130a565b6040516104aa919061196b565b60405180910390f35b3480156104be575f5ffd5b506104d960048036038101906104d49190611928565b61131f565b005b3480156104e6575f5ffd5b5061050160048036038101906104fc9190611928565b6113e0565b60405161050e919061196b565b60405180910390f35b348015610522575f5ffd5b5061053d60048036038101906105389190611b25565b6113f5565b005b34801561054a575f5ffd5b50610553611417565b6040516105609190611b0c565b60405180910390f35b348015610574575f5ffd5b5061058f600480360381019061058a9190611928565b61143b565b60405161059c919061196b565b60405180910390f35b3480156105b0575f5ffd5b506105b9611450565b6040516105c69190611b0c565b60405180910390f35b5f60025f8373ffffffffffffffffffffffffffffffffffffffff1673ffffffffffffffffffffffffffffffffffffffff1681526020019081526020015f20549050919050565b5f7f7965db0b000000000000000000000000000000000000000000000000000000007bffffffffffffffffffffffffffffffffffffffffffffffffffffffff1916827bffffffffffffffffffffffffffffffffffffffffffffffffffffffff19161480610687575061068682611474565b5b9050919050565b7f126c7c8716c8f1c7c73a7370c820c7d73a9b4ed0ad633cfce1092f9ff47c85746106b8816114dd565b5f82116106fa576040517f08c379a00000000000000000000000000000000000000000000000000000000081526004016106f190611c10565b60405180910390fd5b60035f8473ffffffffffffffffffffffffffffffffffffffff1673ffffffffffffffffffffffffffffffffffffffff1681526020019081526020015f205482111561077a576040517f08c379a000000000000000000000000000000000000000000000000000000000815260040161077190611c78565b60405180910390fd5b8160035f8573ffffffffffffffffffffffffffffffffffffffff1673ffffffffffffffffffffffffffffffffffffffff1681526020019081526020015f205f8282546107c69190611cc3565b925050819055507f0f0bc5b519ddefdd8e5f9e6423433aa2b869738de2ae34d58ebc796fc749fa0d83836040516107fe929190611cf6565b60405180910390a1505050565b5f47905090565b7f126c7c8716c8f1c7c73a7370c820c7d73a9b4ed0ad633cfce1092f9ff47c857461083c816114dd565b82825f60025f8473ffffffffffffffffffffffffffffffffffffffff1673ffffffffffffffffffffffffffffffffffffffff1681526020019081526020015f205490505f60035f8573ffffffffffffffffffffffffffffffffffffffff1673ffffffffffffffffffffffffffffffffffffffff1681526020019081526020015f20549050816108ed577f4e6f207374616b65642066756e647321000000000000000000000000000000005f5260205ffd5b82818303036001811015610923577f4e6f7420656e6f7567682066756e6473210000000000000000000000000000005f5260205ffd5b505f8611610966576040517f08c379a000000000000000000000000000000000000000000000000000000000815260040161095d90611c10565b60405180910390fd5b8560035f8973ffffffffffffffffffffffffffffffffffffffff1673ffffffffffffffffffffffffffffffffffffffff1681526020019081526020015f205f8282546109b29190611d1d565b925050819055507f9f1ec8c880f76798e7b793325d625e9b60e4082a553c98f42b6cda368dd6000887876040516109ea929190611cf6565b60405180910390a150505050505050565b5f5f5f8381526020019081526020015f20600101549050919050565b610a20826109fb565b610a29816114dd565b610a3383836114f1565b50505050565b610a416115da565b73ffffffffffffffffffffffffffffffffffffffff168173ffffffffffffffffffffffffffffffffffffffff1614610aa5576040517f6697b23200000000000000000000000000000000000000000000000000000000815260040160405180910390fd5b610aaf82826115e1565b505050565b7f000000000000000000000000000000000000000000000000000000000000000073ffffffffffffffffffffffffffffffffffffffff1633604051602401610afc9190611b9d565b6040516020818303038152906040527f9d886a68000000000000000000000000000000000000000000000000000000007bffffffffffffffffffffffffffffffffffffffffffffffffffffffff19166020820180517bffffffffffffffffffffffffffffffffffffffffffffffffffffffff8381831617835250505050604051610b869190611da2565b5f604051808303815f865af19150503d805f8114610bbf576040519150601f19603f3d011682016040523d82523d5f602084013e610bc4565b606091505b50505060045460055f3373ffffffffffffffffffffffffffffffffffffffff1673ffffffffffffffffffffffffffffffffffffffff1681526020019081526020015f205410610c48576040517f08c379a0000000000000000000000000000000000000000000000000000000008152600401610c3f90611e02565b60405180910390fd5b5f60055f3373ffffffffffffffffffffffffffffffffffffffff1673ffffffffffffffffffffffffffffffffffffffff1681526020019081526020015f2054600454610c949190611cc3565b90505f3373ffffffffffffffffffffffffffffffffffffffff1682604051610cbb90611e43565b5f6040518083038185875af1925050503d805f8114610cf5576040519150601f19603f3d011682016040523d82523d5f602084013e610cfa565b606091505b5050905080610d3e576040517f08c379a0000000000000000000000000000000000000000000000000000000008152600401610d3590611ea1565b60405180910390fd5b60045460055f3373ffffffffffffffffffffffffffffffffffffffff1673ffffffffffffffffffffffffffffffffffffffff1681526020019081526020015f20819055507ffc30cddea38e2bf4d6ea7d3f9ed3b6ad7f176419f4963bd81318067a4aee73fe3383604051610db3929190611cf6565b60405180910390a15050565b33815f60025f8473ffffffffffffffffffffffffffffffffffffffff1673ffffffffffffffffffffffffffffffffffffffff1681526020019081526020015f205490505f60035f8573ffffffffffffffffffffffffffffffffffffffff1673ffffffffffffffffffffffffffffffffffffffff1681526020019081526020015f2054905081610e70577f4e6f207374616b65642066756e647321000000000000000000000000000000005f5260205ffd5b82818303036001811015610ea6577f4e6f7420656e6f7567682066756e6473210000000000000000000000000000005f5260205ffd5b505f8511610ee9576040517f08c379a0000000000000000000000000000000000000000000000000000000008152600401610ee090611c10565b60405180910390fd5b8460025f3373ffffffffffffffffffffffffffffffffffffffff1673ffffffffffffffffffffffffffffffffffffffff1681526020019081526020015f205f828254610f359190611cc3565b925050819055505f3373ffffffffffffffffffffffffffffffffffffffff1686604051610f6190611e43565b5f6040518083038185875af1925050503d805f8114610f9b576040519150601f19603f3d011682016040523d82523d5f602084013e610fa0565b606091505b5050905080610fe4576040517f08c379a0000000000000000000000000000000000000000000000000000000008152600401610fdb90611f09565b60405180910390fd5b7f85082129d87b2fe11527cb1b3b7a520aeb5aa6913f88a3d8757fe40d1db02fdd3387604051611015929190611cf6565b60405180910390a1505050505050565b5f3411611067576040517f08c379a000000000000000000000000000000000000000000000000000000000815260040161105e90611c10565b60405180910390fd5b3460025f3373ffffffffffffffffffffffffffffffffffffffff1673ffffffffffffffffffffffffffffffffffffffff1681526020019081526020015f205f8282546110b39190611d1d565b925050819055507febedb8b3c678666e7f36970bc8f57abf6d8fa2e828c0da91ea5b75bf68ed101a33346040516110eb929190611cf6565b60405180910390a1565b7f126c7c8716c8f1c7c73a7370c820c7d73a9b4ed0ad633cfce1092f9ff47c857461111f816114dd565b5f60025f8473ffffffffffffffffffffffffffffffffffffffff1673ffffffffffffffffffffffffffffffffffffffff1681526020019081526020015f205490505f60025f8573ffffffffffffffffffffffffffffffffffffffff1673ffffffffffffffffffffffffffffffffffffffff1681526020019081526020015f20819055505f60035f8573ffffffffffffffffffffffffffffffffffffffff1673ffffffffffffffffffffffffffffffffffffffff1681526020019081526020015f20819055506111ed816116ca565b7f4ed05e9673c26d2ed44f7ef6a7f2942df0ee3b5e1e17db4b99f9dcd261a339cd838260405161121e929190611cf6565b60405180910390a1505050565b7f000000000000000000000000000000000000000000000000000000000000000081565b60045481565b5f60035f8373ffffffffffffffffffffffffffffffffffffffff1673ffffffffffffffffffffffffffffffffffffffff1681526020019081526020015f20549050919050565b5f5f5f8481526020019081526020015f205f015f8373ffffffffffffffffffffffffffffffffffffffff1673ffffffffffffffffffffffffffffffffffffffff1681526020019081526020015f205f9054906101000a900460ff16905092915050565b60065481565b5f5f1b81565b6003602052805f5260405f205f915090505481565b7f126c7c8716c8f1c7c73a7370c820c7d73a9b4ed0ad633cfce1092f9ff47c8574611349816114dd565b60015f9054906101000a900460ff1615611398576040517f08c379a000000000000000000000000000000000000000000000000000000000815260040161138f90611f71565b60405180910390fd5b6001805f6101000a81548160ff0219169083151502179055506113db7f126c7c8716c8f1c7c73a7370c820c7d73a9b4ed0ad633cfce1092f9ff47c8574836114f1565b505050565b6005602052805f5260405f205f915090505481565b6113fe826109fb565b611407816114dd565b61141183836115e1565b50505050565b7f126c7c8716c8f1c7c73a7370c820c7d73a9b4ed0ad633cfce1092f9ff47c857481565b6002602052805f5260405f205f915090505481565b7f3b5d4cc60d3ec3516ee8ae083bd60934f6eb2a6c54b1229985c41bfb092b260381565b5f7f01ffc9a7000000000000000000000000000000000000000000000000000000007bffffffffffffffffffffffffffffffffffffffffffffffffffffffff1916827bffffffffffffffffffffffffffffffffffffffffffffffffffffffff1916149050919050565b6114ee816114e96115da565b61185d565b50565b5f6114fc838361129b565b6115d05760015f5f8581526020019081526020015f205f015f8473ffffffffffffffffffffffffffffffffffffffff1673ffffffffffffffffffffffffffffffffffffffff1681526020019081526020015f205f6101000a81548160ff02191690831515021790555061156d6115da565b73ffffffffffffffffffffffffffffffffffffffff168273ffffffffffffffffffffffffffffffffffffffff16847f2f8788117e7eff1d82e926ec794901d17c78024a50270940304540a733656f0d60405160405180910390a4600190506115d4565b5f90505b92915050565b5f33905090565b5f6115ec838361129b565b156116c0575f5f5f8581526020019081526020015f205f015f8473ffffffffffffffffffffffffffffffffffffffff1673ffffffffffffffffffffffffffffffffffffffff1681526020019081526020015f205f6101000a81548160ff02191690831515021790555061165d6115da565b73ffffffffffffffffffffffffffffffffffffffff168273ffffffffffffffffffffffffffffffffffffffff16847ff6391f5c32d9c69d2a47ea670b442974b53935d1edc7fd64eb21e047a839171b60405160405180910390a4600190506116c4565b5f90505b92915050565b8060065f8282546116db9190611d1d565b925050819055505f5f7f000000000000000000000000000000000000000000000000000000000000000073ffffffffffffffffffffffffffffffffffffffff166040516024016040516020818303038152906040527f85aa2e1b000000000000000000000000000000000000000000000000000000007bffffffffffffffffffffffffffffffffffffffffffffffffffffffff19166020820180517bffffffffffffffffffffffffffffffffffffffffffffffffffffffff83818316178352505050506040516117ab9190611da2565b5f604051808303815f865af19150503d805f81146117e4576040519150601f19603f3d011682016040523d82523d5f602084013e6117e9565b606091505b50915091508161182e576040517f08c379a000000000000000000000000000000000000000000000000000000000815260040161182590611fd9565b60405180910390fd5b5f81806020019051810190611843919061200b565b90505f81111561185757611856816118ae565b5b50505050565b611867828261129b565b6118aa5780826040517fe2517d3f0000000000000000000000000000000000000000000000000000000081526004016118a1929190612036565b60405180910390fd5b5050565b5f816006546118bd919061208a565b9050806004819055505050565b5f5ffd5b5f73ffffffffffffffffffffffffffffffffffffffff82169050919050565b5f6118f7826118ce565b9050919050565b611907816118ed565b8114611911575f5ffd5b50565b5f81359050611922816118fe565b92915050565b5f6020828403121561193d5761193c6118ca565b5b5f61194a84828501611914565b91505092915050565b5f819050919050565b61196581611953565b82525050565b5f60208201905061197e5f83018461195c565b92915050565b5f7fffffffff0000000000000000000000000000000000000000000000000000000082169050919050565b6119b881611984565b81146119c2575f5ffd5b50565b5f813590506119d3816119af565b92915050565b5f602082840312156119ee576119ed6118ca565b5b5f6119fb848285016119c5565b91505092915050565b5f8115159050919050565b611a1881611a04565b82525050565b5f602082019050611a315f830184611a0f565b92915050565b611a4081611953565b8114611a4a575f5ffd5b50565b5f81359050611a5b81611a37565b92915050565b5f5f60408385031215611a7757611a766118ca565b5b5f611a8485828601611914565b9250506020611a9585828601611a4d565b9150509250929050565b5f819050919050565b611ab181611a9f565b8114611abb575f5ffd5b50565b5f81359050611acc81611aa8565b92915050565b5f60208284031215611ae757611ae66118ca565b5b5f611af484828501611abe565b91505092915050565b611b0681611a9f565b82525050565b5f602082019050611b1f5f830184611afd565b92915050565b5f5f60408385031215611b3b57611b3a6118ca565b5b5f611b4885828601611abe565b9250506020611b5985828601611914565b9150509250929050565b5f60208284031215611b7857611b776118ca565b5b5f611b8584828501611a4d565b91505092915050565b611b97816118ed565b82525050565b5f602082019050611bb05f830184611b8e565b92915050565b5f82825260208201905092915050565b7f416d6f756e742063616e6e6f74206265207a65726f00000000000000000000005f82015250565b5f611bfa601583611bb6565b9150611c0582611bc6565b602082019050919050565b5f6020820190508181035f830152611c2781611bee565b9050919050565b7f4e6f7420656e6f756768206c6f636b65642066756e64730000000000000000005f82015250565b5f611c62601783611bb6565b9150611c6d82611c2e565b602082019050919050565b5f6020820190508181035f830152611c8f81611c56565b9050919050565b7f4e487b71000000000000000000000000000000000000000000000000000000005f52601160045260245ffd5b5f611ccd82611953565b9150611cd883611953565b9250828203905081811115611cf057611cef611c96565b5b92915050565b5f604082019050611d095f830185611b8e565b611d16602083018461195c565b9392505050565b5f611d2782611953565b9150611d3283611953565b9250828201905080821115611d4a57611d49611c96565b5b92915050565b5f81519050919050565b5f81905092915050565b8281835e5f83830152505050565b5f611d7c82611d50565b611d868185611d5a565b9350611d96818560208601611d64565b80840191505092915050565b5f611dad8284611d72565b915081905092915050565b7f4d617820636c61696d61626c6520616d6f756e742072656163686564000000005f82015250565b5f611dec601c83611bb6565b9150611df782611db8565b602082019050919050565b5f6020820190508181035f830152611e1981611de0565b9050919050565b50565b5f611e2e5f83611d5a565b9150611e3982611e20565b5f82019050919050565b5f611e4d82611e23565b9150819050919050565b7f52657761726473207061796d656e74206661696c6564000000000000000000005f82015250565b5f611e8b601683611bb6565b9150611e9682611e57565b602082019050919050565b5f6020820190508181035f830152611eb881611e7f565b9050919050565b7f556e7374616b65206661696c65640000000000000000000000000000000000005f82015250565b5f611ef3600e83611bb6565b9150611efe82611ebf565b602082019050919050565b5f6020820190508181035f830152611f2081611ee7565b9050919050565b7f53686f70206164647265737320616c72656164792073657400000000000000005f82015250565b5f611f5b601883611bb6565b9150611f6682611f27565b602082019050919050565b5f6020820190508181035f830152611f8881611f4f565b9050919050565b7f746f74616c506f77657273656c6c65727328292063616c6c206661696c6564005f82015250565b5f611fc3601f83611bb6565b9150611fce82611f8f565b602082019050919050565b5f6020820190508181035f830152611ff081611fb7565b9050919050565b5f8151905061200581611a37565b92915050565b5f602082840312156120205761201f6118ca565b5b5f61202d84828501611ff7565b91505092915050565b5f6040820190506120495f830185611b8e565b6120566020830184611afd565b9392505050565b7f4e487b71000000000000000000000000000000000000000000000000000000005f52601260045260245ffd5b5f61209482611953565b915061209f83611953565b9250826120af576120ae61205d565b5b82820490509291505056fea264697066735822122087b54507a85949c0fafd1b05f8c7e2e3201a10b2a4d68b8e43815d98f422f1ff64736f6c634300081e0033","linkReferences":{}},"methodIdentifiers":{"CONTROL_ROLE()":"d7a1e6ab","DAO_ROLE()":"e9c26518","DEFAULT_ADMIN_ROLE()":"a217fddf","POWERSELLER_NFT_ADDRESS()":"82cb811f","balance(address)":"e3d670d7","claimRewards()":"372500ab","doLock(address,uint256)":"1e89e058","doSlash(address)":"74cb9ed8","doStake()":"4efa7e70","doUnlock(address,uint256)":"076622e2","doUnstake(uint256)":"4697fbfa","getRoleAdmin(bytes32)":"248a9ca3","grantRole(bytes32,address)":"2f2ff15d","hasRole(bytes32,address)":"91d14854","lockedFunds(address)":"b86247d7","maxClaimableAmount()":"86e07f2f","renounceRole(bytes32,address)":"36568abe","revokeRole(bytes32,address)":"d547741f","rewardsClaimed(address)":"d3f730fd","setShop(address)":"ce965f6a","supportsInterface(bytes4)":"01ffc9a7","totalSlashed()":"a201bbdd","userBalance(address)":"0103c92b","userLockedBalance(address)":"8cf2b63e","vaultBalance()":"0bf6cc08"},"id":58}